:100000000C948A020C94A7020C94A7020C94A702E9
:100010000C94610C0C948A0C0C94B30C0C94DC0CB6
:100020000C94A7020C94420B0C946B0B0C94940B45
:100030000C940F0C0C94BD0B0C94E60B0C94380C28
:100040000C94C70A0C94F00A0C94190B0C94A70298
:100050000C94A7020C94A7020C94A7020C94A7027C
:100060000C94A7020C94A7020C94A7020C94A7026C
:100070000C94A7020C94A7020C94A70207634236C3
:10008000B79BD8A71A39685618AEBAAB558C1D3C29
:10009000B7CC5763BD6DEDFD753EF6177231BF00ED
:1000A0000000803F08000000BE922449123EABAA27
:1000B000AA2ABECDCCCC4C3E00000080BEABAAAA82
:1000C000AA3E00000000BF000000803F00000000CA
:1000D00000084178D3BB4387D1133D190E3CC3BD03
:1000E0004282AD2B3E68EC8276BED98FE1A93E4CB0
:1000F00080EFFFBE01C4FF7F3F0000000000160537
:100100000100000000000000FA000000E000E00034
:1001100028FE28FE282454FE5448C4C81026466CE5
:1001200092AA44A000A0C0000000384482000082CF
:1001300044380028107C102810107C1010000A0C85
:100140000000101010101000060600000408102017
:10015000407C8A92A27C0042FE020042868A926221
:100160008482A2D28C182848FE08E4A2A2A29C3C59
:100170005292920C808E90A0C06C9292926C60927F
:10018000929478006C6C0000006A6C0000102844A7
:1001900082002828282828008244281040808A903D
:1001A000604C929E827C7E8888887EFE9292926CC1
:1001B0007C82828244FE82824438FE92929282FE47
:1001C000909090807C8292925EFE101010FE0082D1
:1001D000FE8200040282FC80FE10284482FE02029D
:1001E0000202FE403040FEFE201008FE7C82828229
:1001F0007CFE909090607C828A847AFE90989462D3
:10020000629292928C8080FE8080FC020202FCF856
:10021000040204F8FC021C02FCC6281028C6E010E8
:100220000E10E0868A92A2C200FE82820040201058
:100230000804008282FE0020408040200202020268
:10024000020080402000042A2A2A1EFE1222221CBC
:100250001C222222041C222212FE1C2A2A2A1810E6
:100260007E908040304A4A4A7CFE1020201E0022A8
:10027000BE0200040222BC00FE081422000082FE1E
:1002800002003E2018201E3E1020201E1C2222228A
:100290001C3E28282810102828183E3E1020201028
:1002A000122A2A2A0420FC2202043C0202043E38BC
:1002B000040204383C020C023C2214081422300AC6
:1002C0000A0A3C22262A322200106C82000000FE1C
:1002D000000000826C1000081010081000000000E0
:1002E000007F8181817F7F8383837F7F8787877F73
:1002F0007F8F8F8F7F7F9F9F9F7F7FBFBFBF7F7FBE
:10030000FFFFFF7F2040FF4020621517156500FBAF
:10031000FB00000000000000C0FF0300E0FF07003A
:10032000F0FF0F00F8FF1F0078001E0078001E008D
:1003300078001E0078001E0078001E0078001E0065
:1003400078001E0078001E0078001E0000000000EB
:100350000000000080FF0300E0FF0700F0FF0F0037
:10036000F8FF1F00F83C1F00783C1E00783C1E0080
:10037000783C1E00783C1E00783C1E00783C1E0035
:10038000783C1E00783C1E00783C1E00783C1E0025
:100390000000000000000000E0FF0300F0FF070085
:1003A000F8FF0F00F8FF1F00783C1E00783C1E008D
:1003B000783C1E00783C1E00783C1E00783C1E00F5
:1003C000783C1E00783C1E00783C1E00783C1E00E5
:1003D0000000000000000000F8FF0300F8FF0F001D
:1003E000F8FF1F00F8FF1F0000001E0000001E00A5
:1003F00000801F0000F01F0000FF0F00E0FF07005B
:10040000F0FF0000F80F0000F80000007800000086
:1004100078000000F8FF1F00F8FF1F00F0FF1F002A
:10042000E0FF1F000000000000000000F8FF1F00B8
:10043000F8FF1F00F8FF1F00F8FF1F0078001E00E4
:10044000783C1E00783C1E00783C1E00783C1E0064
:10045000783C1E00783C1E00F87E1F00F8FF1F004D
:10046000F0FF0F00E0E7030000000000000038008C
:10047000EEFF6C002A8045003A0047FC03FF6CFC4D
:1004800083FF3900DEFF0B7CD0810BFCD0810BC0D9
:10049000D0810BFCD0810B7CDEFF0B0082FF39701A
:1004A00002FF6CF83A0047DC2A8045CCEEFF6CCCAA
:1004B000000038000000000C00001E0C00001E00B0
:1004C00000001E0000001E0000001E00F8FF1F00BC
:1004D000F8FF1F00F8FF1F00F8FF1F0000001E00BC
:1004E00000001E0000001E0000001E0000005E0054
:1004F0000000400000007C000000400000004000C0
:1005000000007C00000030000000100000003000FF
:1005100000007C0011241FBECFEFD8E0DEBFCDBFAE
:1005200011E0A0E0B1E0E2EAFEE302C005900D9226
:10053000AA33B107D9F722E0AAE3B1E001C01D92C6
:10054000A432B207E1F70E9422030C944F1F0C94CF
:1005500000008FE00E941C09882311F082E003C094
:100560000E94170381E0992708958FE00E942A09CD
:10057000882319F480E090E0089580917A008064E7
:1005800080937A0080917A00829586958695837013
:1005900080FDF8CF20917800809179009927982FDD
:1005A00088273327822B932B0895ECE7F0E0908186
:1005B0009F738295880F880F807C982B9083089575
:1005C000582F80910001652F77278830D0F4409113
:1005D0007E0021E030E0F90102C0EE0FFF1F8A9596
:1005E000E2F7CF018095842380937E0080917E0086
:1005F00002C0220F331F6A95E2F7822B80937E00A0
:100600000CC020917E0081E090E002C0880F991F0D
:100610006A95E2F7282B20937E0050930001809189
:100620007C00807E5F71852B80937C0008958FE134
:1006300080937C00EAE7F0E087E080838081806837
:10064000808308950E94C50A0E94B70A0E94E0169E
:1006500080E090E008950F931F9385E00E941C09AD
:10066000882311F082E07BC00E943C04182F0E9476
:1006700037091150123008F06EC08150823008F0F6
:100680006AC00E943A0460E08EEA0E941F0460E0A3
:1006900082EA0E941F0460E080EA0E941F0400E5D5
:1006A00013ECC8010197F1F760E080EC0E941F0491
:1006B00060E08FE20E941F0460E081E80E941F0456
:1006C00060E086E10E941F0460E082E20E941F0455
:1006D000C8010197F1F760E08FEA0E941F0460E013
:1006E00086EA0E941F0460E085EA0E941F0420E061
:1006F00030E0E8E8F3E1CF010197F1F72F5F3F4FDA
:1007000093E0283E3907B9F760E083EB0E941F04AD
:1007100060E080E40E941F0460E083E00E94B30375
:1007200060E083E00E940D041092BC011092BE01B3
:100730001092BD0181E091E090932102809320020C
:1007400088E10E94EC030E94170D60E084EA0E9499
:100750001F0481E004C085E00E940B0987E099270F
:100760001F910F910895FF920F931F93082FF62E5C
:1007700085E00E942A098823A1F01F2D1F770370AE
:1007800060E0802F806B0E941F0412951F7060E054
:10079000812F80610E941F0460E08F2D8F700E9466
:1007A0001F041F910F91FF9008950F931F93082F1F
:1007B000162F85E00E942A09882359F0812F1531D0
:1007C00008F084E166E0869FB0011124802F0E942A
:1007D0000D041F910F9108951F93182F85E00E941B
:1007E0002A098823C1F087E00E947F046AE082E042
:1007F0000E94DE0461EB82E00E94DE04612F113270
:1008000008F060E282E00E94DE0489EE8A95F1F74A
:1008100087E00E947F041F9108950F931F93082F74
:10082000162F85E00E942A09882331F003701F7774
:100830001093BA010093BB011F910F9108950F937C
:100840001F93082F162F85E00E942A09882379F02C
:10085000112319F0113021F402C02B9801C02B9AFA
:1008600086E08A95F1F7602F80E00E94DE041F91F8
:100870000F910895239A089582E00E941C0988230D
:1008800011F082E031C00E94ED0464E77EE080E078
:100890000E9476046CE67EE081E00E94760464E6C5
:1008A0007EE082E00E94760463E57EE086E00E94BE
:1008B00076046CE57EE083E00E9476046CE57EE0E1
:1008C00084E00E9476046CE57EE085E00E94760478
:1008D0006CE57EE087E00E9476048FEF8093BF0195
:1008E00087E00E947F0481E099270895E82FFF2781
:1008F000EE0FFF1FE258FE4F7183608308951F9330
:10090000182F82E00E942A09882309F455C0912FEC
:1009100097708091BF01981709F44EC09093BF0162
:1009200085B1887F892B85B9933051F1943028F4B3
:10093000913051F09230B0F40EC0953079F195308D
:1009400030F1963091F515C0E0918001F091810170
:10095000309791F130C0E0917E01F0917F013097A6
:1009600059F129C0E0918201F0918301309721F182
:1009700022C0E0918A01F0918B013097E9F01BC011
:10098000E0918401F09185013097B1F014C0E091BD
:100990008601F0918701309779F00DC0E0918801D0
:1009A000F0918901309741F006C0E0918C01F091FF
:1009B0008D01309709F009951F9108951F93162F07
:1009C0000E947F0482E00E942A09882321F01EBD34
:1009D0000DB407FEFDCF1F910895259A2698279AFA
:1009E000209A219A229A08952F923F924F925F92D5
:1009F0006F927F928F929F92AF92BF92CF92DF922F
:100A0000EF92FF920F931F93CF93DF93CDB7DEB793
:100A100022970FB6F894DEBF0FBECDBF382E962EAC
:100A2000242E290138011C2DBA82A982B82C6B8D85
:100A30007C8DAD8C81E0981609F1981628F092E033
:100A4000991609F062C039C0B70180E00E94C00663
:100A500047EFC42E41E0D42E31E0E32E012F930165
:100A6000A201622D80E00E947B07332009F04DC077
:100A700089819A819F938F931F9219C081E00E9470
:100A8000C00627EFC22E21E0D22E91E0E92E0A2DDA
:100A9000298D3A8D4F89588D682D81E00E947B0702
:100AA000332099F58E8D9F8D9F938F939F920E94F7
:100AB00092080F900F900F9028C0C7010E94E10686
:100AC00087EF91E09F938F9381E0882EC98CDA8C19
:100AD000EF88F88C0B2D212FA301B201822D0E94EB
:100AE0000D080F900F90332081F48E8D9F8D9F9372
:100AF0008F9389819A819F938F939F920E949208EE
:100B00000F900F900F900F900F9022960FB6F894C1
:100B1000DEBF0FBECDBFDF91CF911F910F91FF9030
:100B2000EF90DF90CF90BF90AF909F908F907F908D
:100B30006F905F904F903F902F9008958F929F926B
:100B4000AF92BF92CF92DF92EF92FF920F931F93DB
:100B5000CF93DF93CDB7DEB7562F942EAC2DEF8514
:100B6000F889C988DA886B897C894D898130C1F11F
:100B7000813030F1823009F04CC0513071F0513089
:100B800020F0523009F045C011C0B70180E00E944A
:100B9000C006A801692D80E006C081E00E94C00661
:100BA000A601682D81E00E948C0633C0C7010E9417
:100BB000E1069601482DB801892D0E94A30629C09F
:100BC0008E899F899F938F934F937F936F93DF922B
:100BD000CF92FF93EF93CA2E492D652F80E00FC06F
:100BE0001F921F924F937F936F93DF92CF92FF9349
:100BF000EF93AA24BB24CA2E492D652F81E00E94C1
:100C0000F4048DB79EB709960FB6F8949EBF0FBE39
:100C10008DBFDF91CF911F910F91FF90EF90DF90EB
:100C2000CF90BF90AF909F908F90089587E00E94E3
:100C30001C09882311F082E06DC00E94010981E047
:100C40008093F6011092C0011092C1011092C3016D
:100C50001092C2011092C5011092C4011092C701F6
:100C60001092C6011092C9011092C8011092CB01D6
:100C70001092CA011092CD011092CC011092CF01B6
:100C80001092CE011092D1011092D0011092D30196
:100C90001092D2011092D5011092D4011092D70176
:100CA0001092D6011092D9011092D8011092DE0153
:100CB0001092DF011092E0011092E1011092E30125
:100CC0001092E4011092E5011092E6011092E70102
:100CD0001092E8011092E9011092EB011092EA01E2
:100CE0001092ED011092EC011092EF011092EE01C2
:100CF0001092F1011092F0011092DB011092DA01D2
:100D00001092DD011092DC011092F5011092F401B5
:100D10001092F60199270895EF92FF920F931F9377
:100D2000182F062F7A0160E00E941C07602F812F88
:100D30000E94FD06B701812F0E9431071F910F917C
:100D4000FF90EF900895CF92DF92EF92FF920F9372
:100D50001F93C82E7B01D42E890160E082E00E949F
:100D60001C076D2D8C2D0E941207B801C7010E942F
:100D70005D071F910F91FF90EF90DF90CF90089546
:100D8000982F81E08093F60183E0693E780710F0A8
:100D900068EE73E0913071F0913018F0923071F498
:100DA00005C07093CB016093CA0108C07093CB015A
:100DB0006093CA017093CD016093CC011092F6014B
:100DC000089521E02093F601F89423E0893E9207EC
:100DD00010F088EE93E09093CB018093CA0183E0FA
:100DE000693E780710F068EE73E07093CD01609370
:100DF000CC0178941092F6010895982F81E08093A9
:100E0000F601913051F0913018F0923041F403C066
:100E10006093E30104C06093E3016093E4011092E6
:100E2000F601089591E09093F6018093E3016093B9
:100E3000E4011092F6010895982F81E08093F60165
:100E4000913051F0913018F0923041F403C060932A
:100E5000C00104C06093C0016093C1011092F6010B
:100E60000895982F81E08093F60181E06139780739
:100E700010F060E971E0913061F0913018F092303B
:100E8000C9F40EC0F8947093C3016093C2017894C2
:100E900011C0F8947093C5016093C40178940AC09E
:100EA000F8947093C3016093C2017093C50160937D
:100EB000C40178941092F60108959C0181E080931A
:100EC000F601F89481E06139780710F060E971E08B
:100ED0007093C5016093C401C90121E08139920773
:100EE00010F080E991E09093C3018093C20178945F
:100EF0001092F60108958F929F92AF92BF92CF9277
:100F0000DF92EF92FF920F931F93CF93DF93182FEF
:100F1000F62E4A015901E60187E00E942A0988233A
:100F200009F46EC061E0812F0E941C07A501B40185
:100F3000812F0E9455106F2D812F0E94FD06602F7A
:100F4000812F0E944010B401812F0E941710CD28DC
:100F500099F0113049F0113018F0123069F406C0E0
:100F600018821092F20108C0198204C018821982F6
:100F70001092F2011092F301D093F501C093F401A5
:100F8000EE20B9F58AE391E09093F5018093F401A6
:100F9000B501812F0E943107812F0E94021011306C
:100FA00071F0113018F0123059F512C010923A0158
:100FB0001092F20180913A01882311F5FBCF109233
:100FC0003B011092F30180913B018823C9F4FBCFD0
:100FD00010923A0110923B011092F2011092F3012B
:100FE00080913A018823E1F380913B018823C1F38A
:100FF00007C0B501812F0E943107812F0E94021086
:10100000DF91CF911F910F91FF90EF90DF90CF90E4
:10101000BF90AF909F908F9008953F924F925F92B4
:101020006F927F928F929F92AF92BF92CF92DF92F8
:10103000EF92FF920F931F93CF93DF93CDB7DEB75D
:10104000382E2B013A01922EB02E0C891D8987E093
:101050000E942A09882309F453C061E082E00E94BB
:101060001C07A301B20180E00E945510A601B70140
:1010700081E00E9455106B2D832D0E941207692D6F
:1010800080E00E9440106A2D81E00E944010B7016C
:10109000C2010E9432100115110539F0F8011082C9
:1010A00011821092F2011092F3011093F501009356
:1010B000F4018820F1F48CE391E09093F5018093A2
:1010C000F401B601C3010E945D0782E00E94021094
:1010D00010923C0110923D011092F2011092F30126
:1010E00080913C018823E1F380913D018823C1F385
:1010F00007C0B601C3010E945D0782E00E94021092
:10110000DF91CF911F910F91FF90EF90DF90CF90E3
:10111000BF90AF909F908F907F906F905F904F9017
:101120003F900895CF92DF92EF92FF920F931F931B
:10113000CF93DF93CDB7DEB722970FB6F894DEBF1B
:101140000FBECDBF1D8587E00E942A09882309F4C0
:1011500049C0113099F0113020F0123009F042C02E
:101160001BC0CE0140969A838983EE85FF858091CE
:10117000F7018823E1F33097A9F10CC0CE01409626
:101180009A838983EE85FF858091F8018823E1F3B6
:10119000309741F1099526C0CE84DF84CE01429676
:1011A0009A838983E888F98800E010E0002351F4ED
:1011B0008091F701882331F0C114D10411F0F601B8
:1011C000099501E0112351F48091F801882331F051
:1011D000E114F10411F0F701099511E0002331F356
:1011E000112321F322960FB6F894DEBF0FBECDBFB8
:1011F000DF91CF911F910F91FF90EF90DF90CF90F3
:1012000008953A9A3B9A3C9A3D9A3E9A3F9A88B101
:10121000837088B90895853160F4E82FFF27EB5576
:10122000FE4F8081882329F08081815080838081D6
:1012300001C08FEF99270895853110F080E008C034
:10124000E82FFF27EB55FE4F80818F5F8083815011
:1012500099270895853110F080E007C0E82FFF2717
:10126000EB55FE4F8081811181E099270895CF933E
:10127000DF93CDB7DEB723970FB6F894DEBF0FBE6E
:10128000CDBF81E00E941C09882311F082E011C0CB
:101290000E943C048150823040F40E94760ACE01C4
:1012A00001960E94A91081E004C081E00E940B0910
:1012B00087E0992723960FB6F894DEBF0FBECDBF07
:1012C000DF91CF9108950F931F938230B1F0833057
:1012D00028F4882341F08130F1F40AC0833091F082
:1012E0008430C9F414C070930E0260930D0213C0D1
:1012F0007093100260930F020EC0709312026093FD
:10130000110209C0709314026093130204C0709319
:101310001602609315020091150210911602209199
:101320001302309114024091110250911202609107
:101330000F027091100280910D0290910E020E9496
:10134000A4091F910F9108958F929F92AF92BF921F
:10135000CF92DF92EF92FF920F931F93CF93DF9381
:101360007C016B015A01490181E00E942A0988230E
:1013700009F4AFC087E00E947F0489EE8A95F1F7F7
:101380006AE082E00E94DE0460EB82E00E94DE04FC
:10139000C0910302D0910402CE15DF0540F0C09148
:1013A000F901D091FA01CE15DF0508F4E701E090CC
:1013B0000502F0900602EC14FD0440F0E090FB0101
:1013C000F090FC01EC14FD0408F47601C0900702D3
:1013D000D0900802CA14DB0440F0C090FD01D09008
:1013E000FE01CA14DB0408F46501A0900902B09064
:1013F0000A02A814B90440F0A090FF01B0900002C6
:10140000A814B90408F4540180900B0290900C02C7
:101410008016910640F080900102909002028016A2
:10142000910608F44801D0930E02C0930D02F09289
:101430001002E0920F02D0921202C0921102B092FA
:101440001402A0921302909216028092150219EED5
:10145000812F8A95F1F76D2F772782E00E94DE04B5
:101460006C2F82E00E94DE04812F8A95F1F76F2DA8
:10147000772782E00E94DE046E2D82E00E94DE0467
:10148000812F8A95F1F76D2D772782E00E94DE0487
:101490006C2D82E00E94DE04812F8A95F1F76B2D7E
:1014A000772782E00E94DE046A2D82E00E94DE043B
:1014B000812F8A95F1F7692D772782E00E94DE045B
:1014C000682D82E00E94DE041A95F1F787E00E9401
:1014D0007F04DF91CF911F910F91FF90EF90DF90EC
:1014E000CF90BF90AF909F908F90089510920E0272
:1014F00010920D021092100210920F02109212021E
:1015000010921102109214021092130210921602FD
:101510001092150280E991E09093FA018093F9010D
:101520009093FC018093FB019093FE018093FD0159
:10153000909300028093FF01909302028093010236
:1015400084E398E090930402809303029093060250
:1015500080930502909308028093070290930A02F9
:101560008093090290930C0280930B0208950E94CD
:1015700092100E94F10D0E94050D0E9453110E94CD
:101580003C040E94370978940895000008951F9242
:101590000F920FB60F9211242F933F934F935F93A7
:1015A0006F937F938F939F93AF93BF93EF93FF932B
:1015B000E0915E01F0915F01309709F00995FF918C
:1015C000EF91BF91AF919F918F917F916F915F91BB
:1015D0004F913F912F910F900FBE0F901F90189534
:1015E0001F920F920FB60F9211242F933F934F9398
:1015F0005F936F937F938F939F93AF93BF93EF937B
:10160000FF93E0916001F0916101309709F0099535
:10161000FF91EF91BF91AF919F918F917F916F91CA
:101620005F914F913F912F910F900FBE0F901F90A0
:1016300018951F920F920FB60F9211242F933F937C
:101640004F935F936F937F938F939F93AF93BF93CA
:10165000EF93FF93E0916201F0916301309709F0FD
:101660000995FF91EF91BF91AF919F918F917F91DC
:101670006F915F914F913F912F910F900FBE0F90FF
:101680001F9018951F920F920FB60F9211242F934F
:101690003F934F935F936F937F938F939F93AF93FA
:1016A000BF93EF93FF93E0915001F0915101309778
:1016B00009F00995FF91EF91BF91AF919F918F91A3
:1016C0007F916F915F914F913F912F910F900FBE3E
:1016D0000F901F9018951F920F920FB60F92112422
:1016E0002F933F934F935F936F937F938F939F932A
:1016F000AF93BF93EF93FF93E0915201F0915301A9
:10170000309709F00995FF91EF91BF91AF919F91AB
:101710008F917F916F915F914F913F912F910F909A
:101720000FBE0F901F9018951F920F920FB60F9239
:1017300011242F933F934F935F936F937F938F93D6
:101740009F93AF93BF93EF93FF93E0915401F09178
:101750005501309709F00995FF91EF91BF91AF9135
:101760009F918F917F916F915F914F913F912F91B9
:101770000F900FBE0F901F9018951F920F920FB6EB
:101780000F9211242F933F934F935F936F937F9307
:101790008F939F93AF93BF93EF93FF93E091580183
:1017A000F0915901309709F00995FF91EF91BF91A0
:1017B000AF919F918F917F916F915F914F913F91E9
:1017C0002F910F900FBE0F901F9018951F920F92A0
:1017D0000FB60F9211242F933F934F935F936F9304
:1017E0007F938F939F93AF93BF93EF93FF93E0917A
:1017F0005A01F0915B01309709F00995FF91EF9143
:10180000BF91AF919F918F917F916F915F914F9118
:101810003F912F910F900FBE0F901F9018951F9220
:101820000F920FB60F9211242F933F934F935F9314
:101830006F937F938F939F93AF93BF93EF93FF9398
:10184000E0915601F0915701309709F00995FF9109
:10185000EF91BF91AF919F918F917F916F915F9128
:101860004F913F912F910F900FBE0F901F901895A1
:101870001F920F920FB60F9211242F933F934F9305
:101880005F936F937F938F939F93AF93BF93EF93E8
:10189000FF93E0915C01F0915D01309709F00995AB
:1018A000FF91EF91BF91AF919F918F917F916F9138
:1018B0005F914F913F912F910F900FBE0F901F900E
:1018C00018951F920F920FB60F9211242F933F93EA
:1018D0004F935F936F937F938F939F93AF93BF9338
:1018E000EF93FF93E0914601F0914701309709F0A3
:1018F0000995FF91EF91BF91AF919F918F917F914A
:101900006F915F914F913F912F910F900FBE0F906C
:101910001F9018951F920F920FB60F9211242F93BC
:101920003F934F935F936F937F938F939F93AF9367
:10193000BF93EF93FF93E0914801F09149013097F5
:1019400009F00995FF91EF91BF91AF919F918F9110
:101950007F916F915F914F913F912F910F900FBEAB
:101960000F901F9018951F920F920FB60F9211248F
:101970002F933F934F935F936F937F938F939F9397
:10198000AF93BF93EF93FF93E0914A01F0914B0126
:10199000309709F00995FF91EF91BF91AF919F9119
:1019A0008F917F916F915F914F913F912F910F9008
:1019B0000FBE0F901F9018951F920F920FB60F92A7
:1019C00011242F933F934F935F936F937F938F9344
:1019D0009F93AF93BF93EF93FF93E0914C01F091EE
:1019E0004D01309709F00995FF91EF91BF91AF91AB
:1019F0009F918F917F916F915F914F913F912F9127
:101A00000F900FBE0F901F90189580E10E941C0947
:101A1000882311F082E009C0EEE3F1E01192119207
:101A200081E0EE37F807D1F781E0992708951F93F9
:101A3000CF93DF9385E00E942A098823D1F060E0EC
:101A400080E40E941F04C0E0D0E060E08C2F0E9480
:101A5000B30310E061E080E00E941F041F5F1038B4
:101A6000C9F72196C430D10581F760E083E00E9478
:101A70000D04DF91CF911F9108950F931F93CF9382
:101A8000DF93082F11278A3091F08B3040F4883093
:101A900091F1893020F5873009F049C037C08D3089
:101AA00049F08B3181F08C3009F041C006C01092B2
:101AB000BA0103C01092BA017AC08091BB01815073
:101AC0008093BB0174C00E94170D7DC061E080E06F
:101AD0000E941F048091BA018F5F8093BA018091A8
:101AE000BA0187FFF3CF1092BA018091BB018150F8
:101AF0008093BB0168C08091BA01882309F457C064
:101B00008091BA0186508093BA0151C081E00E9451
:101B1000530F24E630E04DE750E064EF71E080E0E1
:101B200090E00E94600F81E00E94A40E40C060918E
:101B3000BA018091BB010E94B303E801CC0FDD1F05
:101B4000CC0FDD1FC00FD11FCF59DF4F10E0FE01BA
:101B5000849161E00E941F041F5F21961530B9F740
:101B600061E080E00E941F048091BA018A5F809347
:101B7000BA018091BA0199278C3791053CF01092F7
:101B8000BA018091BB0181508093BB018091BB0160
:101B900083708093BB018091BC018130D9F4E091C6
:101BA000BD01F091BE013097A9F0099513C0609175
:101BB000BA018091BB010E94B3038091BB01837085
:101BC0008093BB0107C06091BA018091BB010E9464
:101BD000B303DCCF80E090E0DF91CF911F910F91B4
:101BE0000895F8940E94500E81E00E94FA0D81E061
:101BF00090E00895813071F0F894813059F081308F
:101C000030F08230C9F0833009F046C01AC080E05D
:101C100090E020C02C9A80E88093610010926100CF
:101C200080E090E00000019688329105D9F710928B
:101C3000680010926B00089580E88093610083E053
:101C400004C080E88093610088E08093610026C032
:101C5000000001962DE680369207D1F72C9880E09F
:101C600090E0000001962DE680369207D1F71092A1
:101C70007A008FEF80936400809168008160809388
:101C8000680080916B00846080936B00789483B7C8
:101C9000816083BF88950895823008F07894089514
:101CA000249A2C9A089583E58CBD81E08DBD84EF44
:101CB00091E00197F1F7089583E58CBD81E08DBD3A
:101CC0008DE08A95F1F7089583E58CBD1DBC84EF06
:101CD00091E00197F1F708958FE78CBD1DBC84EF6B
:101CE00091E00197F1F7089583E58CBD81E08DBD0A
:101CF0008DE08A95F1F708958AE00E940B09882308
:101D000029F481E00E94B60F10928F01089589E0B6
:101D10000E940B098823B9F480918E01882311F069
:101D20000E94FC0F82E00E94B60F80919C0190916E
:101D30009D01009731F00E94FD1B10929D011092B1
:101D40009C0110928E010895813029F0823029F48F
:101D50000E94870E08950E947C0E0895CF92DF9214
:101D6000EF92FF920F931F93CF93DF9380E291E066
:101D70000E94651BEC0190939D0180939C01892B2F
:101D800011F480E044C0CC24DD24EE24FF2487013C
:101D9000C801B7010E942618D7FE06C020E030E037
:101DA00040E857E40E94B31820E030E040EA51E4F4
:101DB0000E94901727EF35E740E05FE30E9451193A
:101DC0009B01AC0160E070E080E291E40E94B419F4
:101DD0002DEC3CEC42E851E40E9451190E94171985
:101DE0002AE030E040E050E00E94191B69937993AB
:101DF000899399930894C11CD11C0894E11CF11C8F
:101E0000011D111D88E4C816D10411F681E099273F
:101E1000DF91CF911F910F91FF90EF90DF90CF90C6
:101E200008958AE00E941C09882311F082E00AC00C
:101E3000109299011092980181E00E94D20F81E0E6
:101E400080938F01992708951F9389E00E941C09B0
:101E5000882311F082E024C08BE00E942A098823A5
:101E6000D9F40E94AE0E182F813011F086E018C010
:101E70001092900110929101109292011092930190
:101E80006CE172E18DE00E94E81182E00E94D20FC5
:101E900010938E0181E004C089E00E940B0987E065
:101EA00099271F910895813021F0823029F084E034
:101EB00005C00E94110F02C00E94240F99270895A7
:101EC0006F927F928F929F92AF92BF92CF92DF924A
:101ED000EF92FF920F931F93CF93DF933B014C013F
:101EE0005A01E9018AE00E942A09882381F120979A
:101EF00041F1B501882777FD8095982F9E01C53661
:101F0000D10510F024E630E0442755270E94191B24
:101F100024E630E040E050E00E94291B79018A016C
:101F2000C401B3010E941F12C7010E94E61060E0C5
:101F300070E080E090E00E941F12C5018E199F0999
:101F400004C0A114B10419F0C5010E94E610DF918C
:101F5000CF911F910F91FF90EF90DF90CF90BF90A6
:101F6000AF909F908F907F906F900895823029F46A
:101F7000809181008E7F8093810080918E018130DD
:101F800031F480918F01813011F400000895809127
:101F90008E01813021F080918F01813011F45F98A2
:101FA00057980895982F80918E01882331F480915D
:101FB0008F01882311F4579A5F9880918E018823AE
:101FC000D1F49230C1F4109280001092810080917F
:101FD000810088608093810080918100816080937E
:101FE0008100109285001092840081E08093890026
:101FF00080E9809388000895EFE6F0E080818D7F8E
:1020000080830895982F81E08093F601913051F0FC
:10201000913018F0923041F403C01092DE0104C0F8
:102020001092DE011092DF011092F6010895982FB0
:1020300081E08093F601913071F0913018F0923088
:1020400071F405C07093D3016093D20108C07093FE
:10205000D3016093D2017093D5016093D4011092A3
:10206000F601089521E02093F6019093D301809327
:10207000D2017093D5016093D4011092F6010895B6
:10208000982F81E08093F601913051F0913018F053
:10209000923041F403C06093E00104C06093E0011A
:1020A0006093E1011092F60108950F931F93CF936F
:1020B000DF938B01EA01813031F1813018F08230F9
:1020C00061F513C08091CA019091CB01892B11F069
:1020D00080E008C01092D7011092D6011EC0AE0158
:1020E000B80181E00E94841218C08091CA019091C9
:1020F000CB01892B21F080E00E94841204C0109251
:10210000D7011092D6018091CC019091CD01892BFD
:1021100031F71092D9011092D801DF91CF911F9120
:102120000F910895CF93DF93C0E0D0E060E08C2F53
:102130000E94A1102196C531D105C1F7DF91CF9141
:102140000895853128F4E82FFF27EB55FE4F608373
:1021500008951F93CF93DF93EC01892B99F181E0D0
:102160000E942A09882351F187E00E947F0418EC1D
:10217000812F8A95F1F76AE082E00E94DE0464EB29
:1021800082E00E94DE04812F8A95F1F760E082E010
:102190000E940B128883812F8A95F1F760E082E01C
:1021A0000E940B1289831A95F1F760E082E00E9489
:1021B0000B128A8387E00E947F0404C01882198270
:1021C0008DE28A83DF91CF911F9108950F931F9322
:1021D000CF93DF93CDB7DEB729970FB6F894DEBF64
:1021E0000FBECDBF8C0188E00E942A09882311F41C
:1021F00091E00DC0980140E061E0CE0101960E949F
:102200001411982F882319F48F818823E9F3892FDB
:10221000992729960FB6F894DEBF0FBECDBFDF9188
:10222000CF911F910F910895EF92FF920F931F93FB
:10223000CF93DF93EC01F62EE42E890188E00E9413
:102240002A09882311F481E026C084E090E00E94EE
:10225000651BFC01892B11F482E01DC0F982F0FCA2
:102260001E8281E0E81619F489818460898389815E
:10227000886089831B830A831D830C83D183C08379
:102280001382128281E080939E01CF010E94791116
:1022900010929E0180E09927DF91CF911F910F91BD
:1022A000FF90EF90089588E00E941C09882311F0A8
:1022B00082E014C0109217021092190210921802B4
:1022C00010929E0110929F016FEE72E180E10E94D8
:1022D000FB110E9470110E94E21181E0992708957C
:1022E00084B5826084BD85B5846085BD8EE487BD7C
:1022F0000895CF92DF92EF92FF920F931F93CF93A7
:10230000DF93EC0180911702882339F4D0931902EE
:10231000C09318020E94F61247C0C0901802D090D5
:10232000190200E010E0EE24FF2429C0A881B98141
:10233000FD0164817581F60140815181FA0184813A
:1023400095819B01281B390B37FF0AC0861B970B11
:1023500095838483DB82CA82012BF1F0F70122C0CE
:10236000F601828193812115310581F0FD013583CC
:1023700024830097B1F00F5F1F4F76016C018091AD
:10238000170299270817190788F20BC0FD0115825B
:1023900014829B838A8305C0D0931902C0931802CC
:1023A00003C0F601D383C283809117028F5F8093AD
:1023B0001702DF91CF911F910F91FF90EF90DF9067
:1023C000CF900895EEE6F0E08081826080830895EA
:1023D000E82F803268F48051833050F0FF27EE0FF1
:1023E000FF1FE25CFE4F80819181718360830895BD
:1023F00080E090E00895803218F080E090E0089549
:10240000E82FFF27EE0FFF1FE25CFE4F80819181D6
:102410007183608308951F93162F0E947F0482E0CA
:102420000E942A09882329F01EBD0DB407FEFDCFA6
:102430008EB599271F9108950E9443120895EF9237
:10244000FF920F931F937B018C018AE00E942A095F
:102450008823A1F080918F01882381F0D801C701E2
:10246000880F991FAA1FBB1F90939B0180939A010D
:10247000E114F1040105110509F45F981F910F9112
:10248000FF90EF9008958091900190919101A0911B
:102490009201B09193012091940130919501409166
:1024A000960150919701820F931FA41FB51F80932F
:1024B000900190939101A0939201B0939301809128
:1024C000900190919101A0919201B0919301885156
:1024D000964FA040B040BCF08BB180588BB9809132
:1024E000900190919101A0919201B0919301885136
:1024F000964FA040B0408093900190939101A0939B
:102500009201B09393010895EF92FF920F931F935E
:10251000CF93DF93EB01882321F0813009F058C07D
:102520002CC0CA019C0144275527CA01B9010E9449
:10253000191B2091CA013091CB01220F331F442770
:1025400055270E94291B79018A01220F331F441F3E
:10255000551FCE01AA27BB2782179307A407B507EB
:1025600028F0F092D701E092D60132C0D695C795F7
:10257000D093D701C093D6012BC0CA019C01442738
:102580005527CA01B9010E94191B2091CC01309135
:10259000CD01220F331F442755270E94291B7901A3
:1025A0008A01220F331F441F551FCE01AA27BB27C4
:1025B00082179307A407B50728F0F092D901E0929B
:1025C000D80106C0D695C795D093D901C093D8013C
:1025D000DF91CF911F910F91FF90EF9008950E948E
:1025E000FA120E943B130E941413089581E0809315
:1025F0009F01089588E00E942A09882311F484E04D
:1026000011C080919F01882311F483E00BC0809159
:102610009E01882311F082E005C00E94AB15813035
:10262000E1F380E09927089580918F01813011F5C1
:10263000809198019091990120919A0130919B018C
:10264000820F931F90939901809398018091980134
:1026500090919901885E93406CF08BB180588BB952
:102660008091980190919901885E9340909399018F
:1026700080939801089587E00E942A09882309F42D
:10268000AAC08091CA019091CB01892B09F1809158
:10269000EE019091EF012091CA013091CB01820FA0
:1026A000931F9093EF018093EE018091EE01909142
:1026B000EF01885E9340A4F08091EE019091EF01CC
:1026C000885E93409093EF018093EE0141E009C052
:1026D0008091C2019091C3019093C7018093C6017C
:1026E00040E08091CC019091CD01892B09F180913E
:1026F000F0019091F1012091CC013091CD01820F38
:10270000931F9093F1018093F0018091F0019091DB
:10271000F101885E9340A4F08091F0019091F10165
:10272000885E93409093F1018093F00161E009C0CD
:102730008091C4019091C5019093C9018093C80113
:1027400060E0842F0E94EC138091EA019091EB01EC
:102750002091C6013091C701820F931F9093EB0126
:102760008093EA018091EA019091EB01885E9340A9
:1027700014F440E00BC08091EA019091EB01885E77
:1027800093409093EB018093EA0141E08091EC014A
:102790009091ED012091C8013091C901820F931FE2
:1027A0009093ED018093EC018091EC019091ED010B
:1027B000885E934014F460E00BC08091EC0190912E
:1027C000ED01885E93409093ED018093EC0161E010
:1027D000842F0E94311408958823F1F02091C201C2
:1027E0003091C3018091C6019091C701281B390B1C
:1027F0001216130634F48091C6019091C701019618
:1028000007C0232B49F08091C6019091C701019721
:102810009093C7018093C601662311F12091C401F2
:102820003091C5018091C8019091C901281B390BD5
:102830001216130654F48091C8019091C9010196B3
:102840009093C9018093C8010895232B49F080918A
:10285000C8019091C90101979093C9018093C80163
:1028600008950F931F93082F162F8091F601882348
:1028700009F0E3C08091DE01882309F05AC08091FD
:10288000C6019091C701892BE9F48091A001837E54
:102890008093A0011092E7018091F201882309F44E
:1028A0005BC06091E00180E00E948615E091F40138
:1028B000F091F501309709F44FC081E080831092C8
:1028C000F2014AC08091C001813041F48091D2016F
:1028D0009091D301019711F401E002C00023E1F1CE
:1028E0009091A001937EE091E501FF27E15FFE4F0B
:1028F0008081982B9093A0018091E301882321F49B
:102900008091E5018F5F03C08091E5018150809344
:10291000E5018091E50183708093E50181E080937A
:10292000E7018091C0018130B9F480E00E94301548
:1029300013C09091A001937EE091E501FF27E15F34
:10294000FE4F8081982B9093A00182E08093E70155
:102950001092C7011092C6018091DF01882309F00F
:1029600059C08091C8019091C901892BE9F48091E7
:10297000A0018F718093A0011092E8018091F30172
:10298000882309F45AC06091E10181E00E94861514
:10299000E091F401F091F501309709F44EC081E027
:1029A00081831092F30149C08091C101813041F4CB
:1029B0008091D4019091D501019711F411E002C0EA
:1029C0001123D9F19091A0019F71E091E601FF27B9
:1029D000ED5EFE4F8081982B9093A0018091E401E1
:1029E000882321F48091E6018F5F03C08091E60186
:1029F00081508093E6018091E60183708093E60127
:102A000081E08093E8018091C1018130B1F40E949E
:102A1000301513C09091A0019F71E091E601FF274E
:102A2000ED5EFE4F8081982B9093A00182E0809311
:102A3000E8011092C9011092C8018091E901882330
:102A400031F4412F602F80EA91E00E941A1688B17C
:102A500083709091A001892B88B91F910F910895DF
:102A60001F93182F882321F0813009F04DC027C013
:102A70008091D2019091D301892B49F08091D201AC
:102A80009091D30101979093D3018093D2018091CB
:102A9000F2018823C9F52091D2013091D3018091B0
:102AA000D6019091D7012817390771F560E070E0E1
:102AB00080E00E94310781E08093F20125C080917F
:102AC000D4019091D501892B49F08091D401909146
:102AD000D50101979093D5018093D4018091F301A2
:102AE000882391F42091D4013091D5018091D801AF
:102AF0009091D9012817390739F460E070E081E03E
:102B00000E9431071093F3011F9108950F931F93B3
:102B1000182F062F662349F460E070E00E94310709
:102B200060E070E0812F0E94171081E08093F60131
:102B3000113051F0113018F0123041F403C00093FD
:102B4000DE0104C00093DE010093DF011092F60164
:102B50001F910F910895FF920F931F93CF93DF93CF
:102B600080911702882309F459C00091180210912E
:102B70001902F801C081D1818C819D8101979D83CB
:102B80008C83181619060CF449C0898180FF05C092
:102B90008E81882311F481E08E83898181FF03C0B7
:102BA000EF81F8850995809117028230A8F0F8012D
:102BB000828193819093190280931802138212826A
:102BC000E0910000F09101008481958118161906AA
:102BD0003CF081E0F82E05C0109219021092180204
:102BE000FF24809117028150809317028091170271
:102BF000882311F40E941716898182FF08C08A81F8
:102C00009B819D838C83C8010E94791108C0C801F3
:102C10000E94FD1B89818F7E898301C0FF248F2D37
:102C20009927DF91CF911F910F91FF9008951092F6
:102C30009F010895FC018091E701823069F4809141
:102C4000A40191E089278093A401882309F03EC064
:102C50008081837E80833AC08091C6019091C701B4
:102C6000C397A4F56623D1F02091C6013091C70126
:102C700080E690E0BC01269FC001279F900D369F03
:102C8000900D1124880F892F881F990B9093DB01D9
:102C90008093DA0181E08093A20118C08091A201A3
:102CA0008823A1F08091DA019091DB010197909344
:102CB000DB018093DA018091DA019091DB01892BAD
:102CC00029F48081837E80831092A2018091E801A3
:102CD000823069F48091A30191E089278093A30158
:102CE000882309F03EC080818F7180830895809190
:102CF000C8019091C901C397A4F54423D1F0209154
:102D0000C8013091C90180E690E0AC01249FC00168
:102D1000259F900D349F900D1124880F892F881FB7
:102D2000990B9093DD018093DC0181E08093A101F8
:102D300008958091A1018823A1F08091DC019091F8
:102D4000DD0101979093DD018093DC018091DC012E
:102D50009091DD01892B29F480818F7180831092FD
:102D6000A101089581E00E94D50283E00E94E00263
:102D70000C94B50281E00E94D50284E00E94E0023A
:102D80000C94B5020F931F93CF93DF938C01EB014B
:102D900062E082E00E941C0760E080E00E9412076F
:102DA0006CE271E08CE291E00E94E106BE01C80194
:102DB0000E945D07CE01DF91CF911F910F91089581
:102DC00011B80E943709982E0E94A902C82F0E94AC
:102DD0002B030E941606582EC13049F4CDE1D1E0F4
:102DE0009AE2692E91E0792E28ECD22E38C097C055
:102DF00087EBE81683E0F80608F083C01F921F9265
:102E00001F921F92DF921F92DF921F92DF92812CFE
:102E1000A12CB12CC12C88ECE82EF12C08EC10E090
:102E200028EC30E041E062E080E00E949E051F92C5
:102E30001F921F921F92DF921F92DF921F921F928A
:102E400020E030E040E062E080E00E949E058DB727
:102E50009EB742960FB6F8949EBF0FBE8DBF0E94DC
:102E6000B2168C010E94BA167C01B801685471092F
:102E700080E090E00E9424182DE837E946E150E414
:102E80000E9490170E94F817B62EC72E062F172FF4
:102E9000B7016056710980E090E00E9424182DE887
:102EA00037E946E150E40E9490170E94F817A62ED9
:102EB000872EE62EF72E66E083E00E94D503DF938F
:102EC000CF930E948C1C60E082E00E94D5038F9219
:102ED000AF92CF92BF927F926F920E948C1C8DB75F
:102EE0009EB708960FB6F8949EBF0FBE8DBF91E0B7
:102EF00059127ECF6A2D782D8B2D9C2D0E94C216E3
:102F000077CF073B134008F479CF81E0981609F496
:102F100075CF6CEB72E080E00E9463096FCFFFCF4A
:102F20000CD0E6C0DED040F0D5D030F021F45F3FC9
:102F300019F0C7C0511110C1CAC0EBD098F3992342
:102F4000C9F35523B1F3951B550BBB27AA2762176D
:102F50007307840738F09F5F5F4F220F331F441FB2
:102F6000AA1FA9F333D00E2E3AF0E0E830D09150EA
:102F70005040E695001CCAF729D0FE2F27D0660FD7
:102F8000771F881FBB1F261737074807AB07B0E816
:102F900009F0BB0B802DBF01FF2793585F4F2AF02C
:102FA0009E3F510568F08DC0D7C05F3FECF3983E5F
:102FB000DCF3869577956795B795F7959F5FC9F789
:102FC000880F911D9695879597F90895E1E0660F12
:102FD000771F881FBB1F621773078407BA0720F08B
:102FE000621B730B840BBA0BEE1F88F7E0950895F4
:102FF00098D088F09F5790F0B92F9927B751A0F03B
:10300000D1F0660F771F881F991F1AF0BA95C9F77C
:1030100012C0B13081F09FD0B1E008959CC0672FFD
:10302000782F8827B85F39F0B93FCCF3869577952C
:103030006795B395D9F73EF4909580957095619515
:103040007F4F8F4F9F4F0895E89409C097FB3EF440
:1030500090958095709561957F4F8F4F9F4F9923E5
:10306000A9F0F92F96E9BB279395F6958795779563
:103070006795B795F111F8CFFAF4BB0F11F460FF23
:103080001BC06F5F7F4F8F4F9F4F16C0882311F07B
:1030900096E911C0772321F09EE8872F762F05C08F
:1030A000662371F096E8862F70E060E02AF09A952A
:1030B000660F771F881FDAF7880F9695879597F91F
:1030C000089597F99F6780E870E060E008959FEFAA
:1030D00080EC089500240A941616170618060906AF
:1030E000089500240A94121613061406050608957E
:1030F000092E0394000C11F4882352F0BB0F40F406
:10310000BF2B11F460FF04C06F5F7F4F8F4F9F4F45
:10311000089557FD9058440F551F59F05F3F71F0C7
:103120004795880F97FB991F61F09F3F79F087952E
:103130000895121613061406551FF2CF4695F1DFB7
:1031400008C0161617061806991FF1CF8695710547
:10315000610508940895E894BB2766277727CB017B
:1031600097F908955058BB27AA270ED0C1CFB2DFD8
:1031700030F0B7DF20F031F49F3F11F41EF4A7CFF9
:103180000EF4E095E7FB9DCFE92FC3DF80F3BA177C
:10319000620773078407950718F071F49EF5DBCF7B
:1031A0000EF4E0950B2EBA2FA02D0B01B901900162
:1031B0000C01CA01A0011124FF27591B99F0593FA6
:1031C00050F4503E68F11A16F040A22F232F342FEE
:1031D0004427585FF3CF469537952795A795F0403C
:1031E0005395C9F77EF41F16BA0B620B730B840B51
:1031F000BAF09150A1F0FF0FBB1F661F771F881F09
:10320000C2F70EC0BA0F621F731F841F48F4879560
:1032100077956795B795F7959E3F08F0B3CF93954F
:10322000880F08F09927EE0F97958795089579DF15
:10323000A8F19E57A8F1985160F039F1983070F5D7
:10324000092E9927660F771F881F991F0A94D1F7B7
:103250001CC0BB27993F4CF4B111B1E0B62B672FCE
:10326000782F8827985FB1F708C08695779567957E
:10327000B79508F4B1609395C1F7BB0F30F411F422
:1032800060FF03C06F5F7F4F8F4F3EF49095809536
:10329000709561957F4F8F4F9F4F089568945CCFD5
:1032A0005ACF0BD025CF16DF28F01BDF18F095235F
:1032B00009F007CF0CCF11244FCF2BDFA0F3959F40
:1032C000D1F3950F50E0551F629FF001729FBB270D
:1032D000F00DB11D639FAA27F00DB11DAA1F649FB9
:1032E0006627B00DA11D661F829F2227B00DA11D6C
:1032F000621F739FB00DA11D621F839FA00D611DF2
:10330000221F749F3327A00D611D231F849F600D12
:10331000211D822F762F6A2F11249F5750408AF04B
:10332000E1F088234AF0EE0FFF1FBB1F661F771FD7
:10333000881F91505040A9F79E3F510570F0C1CEB3
:103340000BCF5F3FECF3983EDCF38695779567955E
:10335000B795F795E7959F5FC1F7FE2B880F911DF5
:103360009695879597F90895FA01EE0FFF1F30960D
:103370002105310599F16115710561F48038BFE3CC
:103380009B0749F168949038810561F08038BFEF60
:103390009B0741F0992342F5FF3FE10531052105E7
:1033A00011F1E8940894E795D901AA2329F4AB2FE9
:1033B000BE2FF85FD0F310C0FF5F70F4A695E0F762
:1033C000F73950F019F0FF3A38F49F779F930CD0FB
:1033D0000F9007FC905808953EF079CE60E070E0C1
:1033E00080E89FE308954FE79F775F934F933F9364
:1033F0002F939ED02F913F914F915F9152DF05C047
:1034000019F40EF05ECEA7CE62CE8BDEC8F39638EE
:10341000C0F707F80F92E8942BE33AEA48EB5FE72E
:103420004EDF0F920F920F924DB75EB70F92C0D042
:10343000ECE7F0E016D04F915F91EF91FF91E595A9
:10344000EE1FFF1F49F0FE57E0684427EE0F441FB0
:10345000FA95E1F74195550B32D00F9007FE26C043
:103460000895DF93CF931F930F93FF92EF92DF9214
:103470007B018C01689405C0DA2EEF011EDFFE018E
:10348000E894A5912591359145915591AEF3EF01C1
:103490007BDEFE019701A801DA9479F7DF90EF90C7
:1034A000FF900F911F91CF91DF9108959B01AC0187
:1034B00060E070E080E89FE333CD03CEACC031DE46
:1034C000E8F39923D9F3940F511DBBF39150504069
:1034D00094F059F0882332F0660F771F881F9150BF
:1034E0005040C1F79E3F510544F7880F911D9695B6
:1034F000879597F908955F3FACF0983E9CF0BB2705
:10350000869577956795B79508F4B1609395C1F75F
:10351000BB0F58F711F460FFE8CF6F5F7F4F8F4FFD
:103520009F4FE3CF19CE0EF076C0D1CD6894C9CDB0
:10353000F8DDC8F39923D1F3C6F3DF93CF931F933C
:103540000F93FF92C92FDD2788232AF02197660F5A
:10355000771F881FDAF720E030E040E85FEB9FE359
:10356000883920F0803E30F021968F77FCDDE4EA48
:10357000F0E003C0F8DDE1EDF0E073DF8B01BE01A8
:10358000EC01FB2E6F5771097595771F880B990B0E
:103590005DDD28E132E741E35FE38FDEAF2D980187
:1035A000AE01FF900F911F91CF91DF91EDDDA0CD86
:1035B000FA01DC01AA0FBB1F9B01AC01BF5728F425
:1035C00022273327442750781FC0B75188F4AB2FE8
:1035D0000024469537952795011CA395D2F300202A
:1035E00069F0220F331F441FB395DAF30DD0BACD23
:1035F00061307105A0E88A07B94630F49B01AC013F
:103600006627772788279078309621F020833183AA
:103610004283538308959F3F31F0915020F4879562
:1036200077956795B795880F911D9695879597F92A
:103630000895DB018F939F930E944B1BBF91AF9125
:10364000A29F800D911DA39F900DB29F900D1124FC
:103650000895A1E21A2EAA1BBB1BFD010DC0AA1FD3
:10366000BB1FEE1FFF1FA217B307E407F50720F0EB
:10367000A21BB30BE40BF50B661F771F881F991F66
:103680001A9469F760957095809590959B01AC01AF
:10369000BD01CF0108950E94561BA59F900DB49FB8
:1036A000900DA49F800D911D11240895A29FB0013B
:1036B000B39FC001A39F700D811D1124911DB29F66
:1036C000700D811D1124911D0895CF93DF938230D9
:1036D000910510F482E090E0E0911C02F0911D024F
:1036E00020E030E0A0E0B0E0309739F14081518136
:1036F00048175907B8F04817590771F48281938128
:10370000109729F013969C938E9312972CC0909348
:103710001D0280931C0227C02115310531F042178C
:10372000530718F0A901DB0101C0EF019A01BD01A7
:10373000DF010280F381E02DD7CF21153105F9F0AB
:10374000281B390B2430310580F48A819B81611557
:10375000710521F0FB019383828304C090931D02C5
:1037600080931C02FE01329644C0FE01E20FF31F5B
:103770008193919322503109398328833AC0209153
:103780001A0230911B02232B41F420911901309130
:103790001A0130931B0220931A02209117013091D5
:1037A00018012115310541F42DB73EB740911B0199
:1037B00050911C01241B350BE0911A02F0911B0261
:1037C000E217F307A0F42E1B3F0B2817390778F0F8
:1037D000AC014E5F5F4F2417350748F04E0F5F1F57
:1037E00050931B0240931A028193919302C0E0E030
:1037F000F0E0CF01DF91CF910895CF93DF93009751
:1038000009F487C0FC01329713821282C0911C0216
:10381000D0911D02209781F420813181280F391F1A
:1038200080911A0290911B028217930779F5F09309
:103830001B02E0931A026DC0DE0120E030E0AE17FB
:10384000BF0750F412964D915C9113979D0141155D
:10385000510509F1DA01F3CFB383A283408151818D
:10386000840F951F8A179B0771F48D919C91119776
:10387000840F951F02969183808312968D919C915F
:103880001397938382832115310529F4F0931D0248
:10389000E0931C023EC0D9011396FC93EE9312975D
:1038A0004D915D91A40FB51FEA17FB0779F4808154
:1038B0009181840F951F0296D90111969C938E9346
:1038C0008281938113969C938E931297E0E0F0E0AF
:1038D0008A819B81009719F0FE01EC01F9CFCE019E
:1038E000029628813981820F931F20911A0230910C
:1038F0001B022817390769F4309729F410921D022A
:1039000010921C0202C013821282D0931B02C09339
:103910001A02DF91CF910895A0E0B0E0E2E9FCE166
:103920000C94281FFE01359661917191AF01809131
:103930002002909121020E94A01CE2E00C94441FFE
:10394000ACE0B0E0E6EAFCE10C94181F7C016B01EE
:103950008A01FC0117821682838181FFBDC1CE01DD
:1039600001964C01F7019381F60193FD859193FF38
:1039700081916F01882309F4ABC1853239F493FD3D
:10398000859193FF81916F01853229F4B70190E011
:103990000E94881EE7CF512C312C20E02032A0F469
:1039A0008B3269F030F4803259F0833269F420614F
:1039B0002CC08D3239F0803339F4216026C022606A
:1039C000246023C0286021C027FD27C030ED380FB8
:1039D0003A3078F426FF06C0FAE05F9E300D1124DD
:1039E000532E13C08AE0389E300D1124332E2062EE
:1039F0000CC08E3221F426FD6BC1206406C08C36CB
:103A000011F4206802C0883641F4F60193FD8591D7
:103A100093FF81916F018111C1CF982F9F7D9554A4
:103A2000933028F40C5F1F4FFFE3F9830DC08336FA
:103A300031F0833771F0833509F05BC022C0F801A3
:103A4000808189830E5F1F4F44244394512C54017D
:103A500015C03801F2E06F0E711CF801A080B18032
:103A600026FF03C0652D70E002C06FEF7FEFC50138
:103A70002C870E947D1E2C0183012C852F77222EFE
:103A800017C03801F2E06F0E711CF801A080B18000
:103A900026FF03C0652D70E002C06FEF7FEFC50108
:103AA0002C870E94721E2C012C852068222E8301F7
:103AB00023FC1BC0832D90E048165906B0F4B701D3
:103AC00080E290E00E94881E3A94F4CFF50127FC32
:103AD000859127FE81915F01B70190E00E94881EC9
:103AE00031103A94F1E04F1A51084114510471F722
:103AF000E5C0843611F0893639F5F80127FF07C093
:103B000060817181828193810C5F1F4F08C0608149
:103B10007181882777FD8095982F0E5F1F4F2F7634
:103B2000B22E97FF09C090958095709561957F4F53
:103B30008F4F9F4F2068B22E2AE030E0A4010E94F0
:103B4000BA1EA82EA81844C0853729F42F7EB22E9D
:103B50002AE030E025C0F22FF97FBF2E8F36C1F06A
:103B600018F4883579F0B4C0803719F0883721F01F
:103B7000AFC02F2F2061B22EB4FE0DC08B2D8460FC
:103B8000B82E09C024FF0AC09F2F9660B92E06C028
:103B900028E030E005C020E130E002C020E132E062
:103BA000F801B7FE07C060817181828193810C5F4B
:103BB0001F4F06C06081718180E090E00E5F1F4F53
:103BC000A4010E94BA1EA82EA818FB2DFF77BF2EB5
:103BD000B6FE0BC02B2D2E7FA51450F4B4FE0AC0E8
:103BE000B2FC08C02B2D2E7E05C07A2C2B2D03C0D5
:103BF0007A2C01C0752C24FF0DC0FE01EA0DF11DC9
:103C00008081803311F4297E09C022FF06C073949D
:103C1000739404C0822F867809F0739423FD13C037
:103C200020FF06C05A2C731418F4530C5718732C29
:103C3000731468F4B70180E290E02C870E94881E1C
:103C400073942C85F5CF731410F4371801C0312C00
:103C500024FF12C0B70180E390E02C870E94881EE9
:103C60002C8522FF17C021FF03C088E590E002C029
:103C700088E790E0B7010CC0822F867859F021FDCB
:103C800002C080E201C08BE227FD8DE2B70190E027
:103C90000E94881EA51438F4B70180E390E00E94CA
:103CA000881E5A94F7CFAA94F401EA0DF11D808181
:103CB000B70190E00E94881EA110F5CF332009F4CF
:103CC00051CEB70180E290E00E94881E3A94F6CF70
:103CD000F7018681978102C08FEF9FEF2C96E2E17A
:103CE0000C94341FFC010590615070400110D8F70E
:103CF000809590958E0F9F1F0895FC016150704034
:103D000001900110D8F7809590958E0F9F1F089510
:103D10000F931F93CF93DF93182F092FEB018B8104
:103D200081FD03C08FEF9FEF20C082FF10C04E8146
:103D30005F812C813D81421753077CF4E881F98132
:103D40009F012F5F3F4F39832883108306C0E8858A
:103D5000F985812F0995892B29F72E813F812F5FC6
:103D60003F4F3F832E83812F902FDF91CF911F9163
:103D70000F910895FA01AA27283051F1203181F1DD
:103D8000E8946F936E7F6E5F7F4F8F4F9F4FAF4F63
:103D9000B1E03ED0B4E03CD0670F781F891F9A1F76
:103DA000A11D680F791F8A1F911DA11D6A0F711D2A
:103DB000811D911DA11D20D009F468943F912AE036
:103DC000269F11243019305D3193DEF6CF0108951E
:103DD000462F4770405D4193B3E00FD0C9F7F6CF4F
:103DE000462F4F70405D4A3318F0495D31FD405217
:103DF000419302D0A9F7EACFB4E0A69597958795AD
:103E000077956795BA95C9F700976105710508958B
:103E10009B01AC010A2E0694579547953795279537
:103E2000BA95C9F7620F731F841F951FA01D0895CF
:103E30002F923F924F925F926F927F928F929F92BA
:103E4000AF92BF92CF92DF92EF92FF920F931F93A8
:103E5000CF93DF93CDB7DEB7CA1BDB0B0FB6F89459
:103E6000DEBF0FBECDBF09942A88398848885F8499
:103E70006E847D848C849B84AA84B984C884DF800A
:103E8000EE80FD800C811B81AA81B981CE0FD11DEE
:103E90000FB6F894DEBF0FBECDBFED010895F894C4
:023EA000FFCF52
:103EA2001F00000002000000003D0D00000000188D
:103EB2000C041060C080200000240220004C454603
:103EC2005420205249474854090053504545443A2A
:0A3ED200202564202020256409004B
:00000001FF
