S01A00005541525420436F6E66696775726174696F6E2E7372656356
S11300000C948A020C94A7020C94A7020C94A702E5
S11300100C94110D0C943A0D0C94630D0C948C0DEE
S11300200C94A7020C94F20B0C941B0C0C94440C2F
S11300300C94BF0C0C946D0C0C94960C0C94E80C62
S11300400C94770B0C94A00B0C94C90B0C94A70282
S11300500C94A7020C94A7020C94A7020C94A70278
S11300600C94A7020C94A7020C94A7020C94A70268
S11300700C94A7020C94A7020C94A70207634236BF
S1130080B79BD8A71A39685618AEBAAB558C1D3C25
S1130090B7CC5763BD6DEDFD753EF6177231BF00E9
S11300A00000803F08000000BE922449123EABAA23
S11300B0AA2ABECDCCCC4C3E00000080BEABAAAA7E
S11300C0AA3E00000000BF000000803F00000000C6
S11300D000084178D3BB4387D1133D190E3CC3BDFF
S11300E04282AD2B3E68EC8276BED98FE1A93E4CAC
S11300F080EFFFBE01C4FF7F3F0000000000160533
S11301000100000000000000FA000000E000E00030
S113011028FE28FE282454FE5448C4C81026466CE1
S113012092AA44A000A0C0000000384482000082CB
S113013044380028107C102810107C1010000A0C81
S11301400000101010101000060600000408102013
S1130150407C8A92A27C0042FE020042868A92621D
S11301608482A2D28C182848FE08E4A2A2A29C3C55
S11301705292920C808E90A0C06C9292926C60927B
S1130180929478006C6C0000006A6C0000102844A3
S113019082002828282828008244281040808A9039
S11301A0604C929E827C7E8888887EFE9292926CBD
S11301B07C82828244FE82824438FE92929282FE43
S11301C0909090807C8292925EFE101010FE0082CD
S11301D0FE8200040282FC80FE10284482FE020299
S11301E00202FE403040FEFE201008FE7C82828225
S11301F07CFE909090607C828A847AFE90989462CF
S1130200629292928C8080FE8080FC020202FCF852
S1130210040204F8FC021C02FCC6281028C6E010E4
S11302200E10E0868A92A2C200FE82820040201054
S11302300804008282FE0020408040200202020264
S1130240020080402000042A2A2A1EFE1222221CB8
S11302501C222222041C222212FE1C2A2A2A1810E2
S11302607E908040304A4A4A7CFE1020201E0022A4
S1130270BE0200040222BC00FE081422000082FE1A
S113028002003E2018201E3E1020201E1C22222286
S11302901C3E28282810102828183E3E1020201024
S11302A0122A2A2A0420FC2202043C0202043E38B8
S11302B0040204383C020C023C2214081422300AC2
S11302C00A0A3C22262A322200106C82000000FE18
S11302D0000000826C1000081010081000000000DC
S11302E0007F8181817F7F8383837F7F8787877F6F
S11302F07F8F8F8F7F7F9F9F9F7F7FBFBFBF7F7FBA
S1130300FFFFFF7F2040FF4020621517156500FBAB
S1130310FB00000000000000C0FF0300E0FF070036
S1130320F0FF0F00F8FF1F0078001E0078001E0089
S113033078001E0078001E0078001E0078001E0061
S113034078001E0078001E0078001E0000000000E7
S11303500000000080FF0300E0FF0700F0FF0F0033
S1130360F8FF1F00F83C1F00783C1E00783C1E007C
S1130370783C1E00783C1E00783C1E00783C1E0031
S1130380783C1E00783C1E00783C1E00783C1E0021
S11303900000000000000000E0FF0300F0FF070081
S11303A0F8FF0F00F8FF1F00783C1E00783C1E0089
S11303B0783C1E00783C1E00783C1E00783C1E00F1
S11303C0783C1E00783C1E00783C1E00783C1E00E1
S11303D00000000000000000F8FF0300F8FF0F0019
S11303E0F8FF1F00F8FF1F0000001E0000001E00A1
S11303F000801F0000F01F0000FF0F00E0FF070057
S1130400F0FF0000F80F0000F80000007800000082
S113041078000000F8FF1F00F8FF1F00F0FF1F0026
S1130420E0FF1F000000000000000000F8FF1F00B4
S1130430F8FF1F00F8FF1F00F8FF1F0078001E00E0
S1130440783C1E00783C1E00783C1E00783C1E0060
S1130450783C1E00783C1E00F87E1F00F8FF1F0049
S1130460F0FF0F00E0E70300000000000000380088
S1130470EEFF6C002A8045003A0047FC03FF6CFC49
S113048083FF3900DEFF0B7CD0810BFCD0810BC0D5
S1130490D0810BFCD0810B7CDEFF0B0082FF397016
S11304A002FF6CF83A0047DC2A8045CCEEFF6CCCA6
S11304B0000038000000000C00001E0C00001E00AC
S11304C000001E0000001E0000001E00F8FF1F00B8
S11304D0F8FF1F00F8FF1F00F8FF1F0000001E00B8
S11304E000001E0000001E0000001E0000005E0050
S11304F00000400000007C000000400000004000BC
S113050000007C00000030000000100000003000FB
S113051000007C0011241FBECFEFD8E0DEBFCDBFAA
S113052011E0A0E0B1E0E8E4FFE302C005900D9221
S1130530A834B107D9F722E0A8E4B1E001C01D92C4
S1130540A536B207E1F70E94A9020C94A21F0C94ED
S113055000000E94750B0E94670B0E94511780E0F7
S113056090E008950F931F9385E00E94DC08882390
S113057011F082E07BC00E946B04182F0E94F708E0
S11305801150123008F06EC08150823008F06AC0F9
S11305900E94AA0360E08EEA0E948F0360E082EA70
S11305A00E948F0360E080EA0E948F0300E513EC51
S11305B0C8010197F1F760E080EC0E948F0360E0CE
S11305C08FE20E948F0360E081E80E948F0360E065
S11305D086E10E948F0360E082E20E948F03C801DB
S11305E00197F1F760E08FEA0E948F0360E086EAEA
S11305F00E948F0360E085EA0E948F0320E030E0D0
S1130600E8E8F3E1CF010197F1F72F5F3F4F93E063
S1130610283E3907B9F760E083EB0E948F0360E05E
S113062080E40E948F0360E083E00E943A0360E06C
S113063083E00E947D031092EF011092F101109269
S1130640F00180E091E0909362028093610288E17E
S11306500E945C030E94C70D60E084EA0E948F033D
S113066081E004C085E00E94CB0887E099271F91B0
S11306700F910895FF920F931F93082FF62E85E094
S11306800E94EA088823A1F01F2D1F77037060E001
S1130690802F806B0E948F0312951F7060E0812F62
S11306A080610E948F0360E08F2D8F700E948F0302
S11306B01F910F91FF9008951F93182F85E00E94BA
S11306C0EA088823C1F087E00E94BF046AE082E060
S11306D00E941E0561EB82E00E941E05612F11320B
S11306E008F060E282E00E941E0589EE8A95F1F727
S11306F087E00E94BF041F9108950F931F93082F52
S1130700162F85E00E94EA08882331F003701F77D2
S11307101093ED010093EE011F910F9108950F9333
S11307201F93082F162F85E00E94EA08882379F08A
S1130730112319F0113021F402C02B9801C02B9A17
S113074086E08A95F1F7602F80E00E941E051F91D4
S11307500F910895239A089584E00E94DC08882369
S113076011F082E016C00E946B048150823068F45C
S11307701092F20180E88093F3018093F401809356
S1130780F5018093F60181E004C084E00E94CB0867
S113079087E0992708950F931F93CF93DF938C01DC
S11307A084E00E94EA08882309F48AC0011511052F
S11307B009F486C087E00E94BF04C0E0D0E0FE01D7
S11307C0E25FFE4F608181E00E94A504FE01E457D0
S11307D0FE4F80838AEF90E00197F1F7209709F4A8
S11307E071C0C430D10531F480918D01813409F098
S11307F069C007C0C830D10521F02196C930D105A0
S1130800F0F287E00E94BF0480918E018A3509F0DE
S113081053C080918D01813421F481E0F8018083FB
S113082042C08337E1F582E0F80180838091910131
S11308308058809391018091930180588093930113
S113084080919201809580588093920180919401C7
S1130850809580588093940183838091930184834D
S11308608091920185838091910186838091F20128
S1130870882399F4809194018093F30180919301EA
S11308808093F401809192018093F501809191010C
S11308908093F60181E08093F20191E005C0F801B4
S11308A010821092F20190E080918F01F80181830F
S11308B080919001828308C0F80110821092F201A5
S11308C090E002C021967BCF892F9927DF91CF91A9
S11308D01F910F91089582E00E94DC08882311F093
S11308E082E031C00E942D0564E27FE080E00E9436
S11308F0B6046CE17FE081E00E94B60464E17FE02D
S113090082E00E94B60463E07FE086E00E94B604C1
S11309106CE07FE083E00E94B6046CE07FE084E05A
S11309200E94B6046CE07FE085E00E94B6046CE0AF
S11309307FE087E00E94B6048FEF8093000287E097
S11309400E94BF0481E0992708951F93162F0E94E7
S1130950BF0482E00E94EA08882329F01EBD0DB47A
S113096007FEFDCF8EB599271F910895E82FFF2725
S1130970EE0FFF1FEB56FE4F7183608308951F93A4
S1130980182F82E00E94EA08882309F455C0912FA9
S1130990977080910002981709F44EC0909300025A
S11309A085B1887F892B85B9933051F1943028F42F
S11309B0913051F09230B0F40EC0953079F1953009
S11309C030F1963091F515C0E0919701F0919801BE
S11309D0309791F130C0E0919501F09196013097F4
S11309E059F129C0E0919901F0919A01309721F1D0
S11309F022C0E091A101F091A2013097E9F01BC05F
S1130A00E0919B01F0919C013097B1F014C0E0910A
S1130A109D01F0919E01309779F00DC0E0919F0106
S1130A20F091A001309741F006C0E091A301F0914C
S1130A30A401309709F009951F9108951F93162F6B
S1130A400E94BF0482E00E94EA08882321F01EBDB0
S1130A500DB407FEFDCF1F910895259A2698279A75
S1130A60209A219A229A08952F923F924F925F9250
S1130A706F927F928F929F92AF92BF92CF92DF92AA
S1130A80EF92FF920F931F93CF93DF93CDB7DEB70F
S1130A9022970FB6F894DEBF0FBECDBF382E962E28
S1130AA0242E290138011C2DBA82A982B82C6B8D01
S1130AB07C8DAD8C81E0981609F1981628F092E0AF
S1130AC0991609F062C039C0B70180E00E948A0615
S1130AD048E3C42E42E0D42E31E0E32E012F9301EB
S1130AE0A201622D80E00E944507332009F04DC029
S1130AF089819A819F938F931F9219C081E00E94EC
S1130B008A0628E3C22E22E0D22E91E0E92E0A2D95
S1130B10298D3A8D4F89588D682D81E00E944507B3
S1130B20332099F58E8D9F8D9F938F939F920E9472
S1130B305C080F900F900F9028C0C7010E94AB066D
S1130B4088E392E09F938F9381E0882EC98CDA8C9E
S1130B50EF88F88C0B2D212FA301B201822D0E9466
S1130B60D7070F900F90332081F48E8D9F8D9F9324
S1130B708F9389819A819F938F939F920E945C089F
S1130B800F900F900F900F900F9022960FB6F8943D
S1130B90DEBF0FBECDBFDF91CF911F910F91FF90AC
S1130BA0EF90DF90CF90BF90AF909F908F907F9009
S1130BB06F905F904F903F902F9008958F929F92E7
S1130BC0AF92BF92CF92DF92EF92FF920F931F9357
S1130BD0CF93DF93CDB7DEB7562F942EAC2DEF8590
S1130BE0F889C988DA886B897C894D898130C1F19B
S1130BF0813030F1823009F04CC0513071F0513005
S1130C0020F0523009F045C011C0B70180E00E94C5
S1130C108A06A801692D80E006C081E00E948A0648
S1130C20A601682D81E00E94560633C0C7010E94C8
S1130C30AB069601482DB801892D0E946D0629C086
S1130C408E899F899F938F934F937F936F93DF92A6
S1130C50CF92FF93EF93CA2E492D652F80E00FC0EA
S1130C601F921F924F937F936F93DF92CF92FF93C4
S1130C70EF93AA24BB24CA2E492D652F81E00E943C
S1130C8034058DB79EB709960FB6F8949EBF0FBE74
S1130C908DBFDF91CF911F910F91FF90EF90DF9067
S1130CA0CF90BF90AF909F908F900895EF92FF9256
S1130CB00F931F93182F062F7A0160E00E94E60617
S1130CC0602F812F0E94C706B701812F0E94FB0667
S1130CD01F910F91FF90EF900895CF92DF92EF92C2
S1130CE0FF920F931F93C82E7B01D42E890160E0DD
S1130CF082E00E94E6066D2D8C2D0E94DC06B80170
S1130D00C7010E9427071F910F91FF90EF90DF907A
S1130D10CF900895982F81E08093370283E0693E55
S1130D20780710F068EE73E0913071F0913018F0AC
S1130D30923071F405C070930C0260930B0208C0EA
S1130D4070930C0260930B0270930E0260930D0279
S1130D5010923702089521E020933702F89423E09B
S1130D60893E920710F088EE93E090930C028093F2
S1130D700B0283E0693E780710F068EE73E070932D
S1130D800E0260930D027894109237020895982F02
S1130D9081E080933702913051F0913018F0923015
S1130DA041F403C06093240204C06093240260935E
S1130DB0250210923702089591E0909337028093B0
S1130DC0240260932502109237020895982F81E03F
S1130DD080933702913051F0913018F0923041F401
S1130DE003C06093010204C0609301026093020295
S1130DF0109237020895982F81E08093370281E0A2
S1130E006139780710F060E971E0913061F0913058
S1130E1018F09230C9F40EC0F894709304026093F1
S1130E200302789411C0F89470930602609305024B
S1130E3078940AC0F8947093040260930302709348
S1130E4006026093050278941092370208959C017B
S1130E5081E080933702F89481E06139780710F0DB
S1130E6060E971E07093060260930502C90121E014
S1130E708139920710F080E991E090930402809305
S1130E80030278941092370208958F929F92AF9242
S1130E90BF92CF92DF92EF92FF920F931F93CF9363
S1130EA0DF93182FF62E4A015901E60187E00E94CC
S1130EB0EA08882309F46EC061E0812F0E94E606E7
S1130EC0A501B401812F0E9405116F2D812F0E946D
S1130ED0C706602F812F0E94F010B401812F0E9459
S1130EE0C710CD2899F0113049F0113018F01230A4
S1130EF069F406C018821092330208C0198204C033
S1130F00188219821092330210923402D09336025E
S1130F10C0933502EE20B9F588E491E0909336024F
S1130F2080933502B501812F0E94FB06812F0E9418
S1130F30B210113071F0113018F0123059F512C09E
S1130F40109248011092330280914801882311F5D0
S1130F50FBCF1092490110923402809149018823F9
S1130F60C9F4FBCF10924801109249011092330248
S1130F7010923402809148018823E1F38091490161
S1130F808823C1F307C0B501812F0E94FB06812F7E
S1130F900E94B210DF91CF911F910F91FF90EF90BB
S1130FA0DF90CF90BF90AF909F908F9008953F9225
S1130FB04F925F926F927F928F929F92AF92BF9265
S1130FC0CF92DF92EF92FF920F931F93CF93DF9311
S1130FD0CDB7DEB7382E2B013A01922EB02E0C89F4
S1130FE01D8987E00E94EA08882309F453C061E060
S1130FF082E00E94E606A301B20180E00E9405118E
S1131000A601B70181E00E9405116B2D832D0E947A
S1131010DC06692D80E00E94F0106A2D81E00E94B8
S1131020F010B701C2010E94E2100115110539F058
S1131030F80110821182109233021092340210933C
S11310403602009335028820F1F48AE491E090930B
S1131050360280933502B601C3010E94270782E05D
S11310600E94B21010924A0110924B011092330266
S11310701092340280914A018823E1F380914B015C
S11310808823C1F307C0B601C3010E94270782E089
S11310900E94B210DF91CF911F910F91FF90EF90BA
S11310A0DF90CF90BF90AF909F908F907F906F9084
S11310B05F904F903F900895CF92DF92EF92FF920E
S11310C00F931F93CF93DF93CDB7DEB722970FB65D
S11310D0F894DEBF0FBECDBF1D8587E00E94EA08ED
S11310E0882309F449C0113099F0113020F01230EE
S11310F009F042C01BC0CE0140969A838983EE85D5
S1131100FF85809138028823E1F33097A9F10CC060
S1131110CE0140969A838983EE85FF8580913902BA
S11311208823E1F3309741F1099526C0CE84DF840A
S1131130CE0142969A838983E888F98800E010E01A
S1131140002351F480913802882331F0C114D10472
S113115011F0F601099501E0112351F4809139024F
S1131160882331F0E114F10411F0F701099511E03D
S1131170002331F3112321F322960FB6F894DEBF36
S11311800FBECDBFDF91CF911F910F91FF90EF90D4
S1131190DF90CF900895853160F4E82FFF27E45461
S11311A0FE4F8081882329F0808181508083808153
S11311B001C08FEF99270895853110F080E008C0B1
S11311C0E82FFF27E454FE4F80818F5F8083815096
S11311D099270895853110F080E007C0E82FFF2794
S11311E0E454FE4F8081811181E099270895CF93C3
S11311F0DF93CDB7DEB723970FB6F894DEBF0FBEEB
S1131200CDBF81E00E94DC08882311F082E011C088
S11312100E946B048150823040F40E942309CE0165
S113122001960E94591181E004C081E00E94CB081C
S113123087E0992723960FB6F894DEBF0FBECDBF83
S1131240DF91CF91089510924F0210924E021092A6
S113125051021092500210925302109252021092B4
S1131260550210925402109257021092560280E9CD
S113127091E090933B0280933A0290933D028093D5
S11312803C0290933F0280933E02909341028093EC
S11312904002909343028093420284E398E0909347
S11312A045028093440290934702809346029093B0
S11312B049028093480290934B0280934A02909390
S11312C04D0280934C020895CF92DF92EF92FF92E9
S11312D00F931F93CF93DF937B018C01EA01690184
S11312E081E0E81681EEF80680E0080780E0180740
S11312F040F424E0EE0CFF1C001F111F2A95D1F7C7
S113130007C093E0EE0CFF1C001F111F9A95D1F744
S113131060E072EC8BEE9BE0A80197010E947C1BBD
S113132079018A0186EF9FEFAFEFBFEFE80EF91E58
S11313300A1F1B1FC801B7012AE030E040E050E05B
S11313400E947C1B653071058105910540F08AE09F
S113135090E0A0E0B0E0E80EF91E0A1F1B1FC801D0
S1131360B7012AE030E040E050E00E947C1B288373
S1131370232F342F452F5527D6012C93DF91CF915E
S11313801F910F91FF90EF90DF90CF900895AF924F
S1131390BF92CF92DF92EF92FF920F931F93CF935E
S11313A0DF93CDB7DEB722970FB6F894DEBF0FBE3A
S11313B0CDBFA82EB62ED42EC22E882329F081E0CC
S11313C0A81609F076C03CC08DE00E94EA08882384
S11313D009F46FC01A8219821092C0001092C100E1
S11313E01092C2009E012F5F3F4FAE014E5F5F4FD0
S11313F0C801B7010E946409BB0CDD0CDD0CDD0CD7
S1131400DB28CC0CCC0CCC0CCC0CCD288A81809362
S1131410C40089818093C500C092C20081E0E816AF
S113142081EEF80680E0080780E0180728F0809134
S1131430C00082608093C00081E08093E50139C0E0
S11314408EE00E94EA088823A1F119821A82109280
S1131450C8001092C9001092CA009E012E5F3F4F2F
S1131460AE014F5F5F4FC801B7010E946409BB0C16
S1131470DD0CDD0CDD0CDB28CC0CCC0CCC0CCC0C4A
S1131480CD2889818093CC008A818093CD00C0923D
S1131490CA0081E0E81681EEF80680E0080780E0E3
S11314A0180728F08091C80082608093C800A09239
S11314B0EA0122960FB6F894DEBF0FBECDBFDF91CE
S11314C0CF911F910F91FF90EF90DF90CF90BF903D
S11314D0AF900895882321F08130D9F084E037C09B
S11314E08DE00E94DC08882389F51092E5011092B2
S11314F0E3011092E4010E945A0B65E070E080E081
S11315000E94F40A28EE33E041E061E08AED91E0C4
S113151019C08EE00E94DC088823C1F41092EA010D
S11315201092E8011092E90181E00E945A0B65E0F3
S113153070E081E00E94F40A28EE33E041E061E0CB
S113154081ED91E00E94C41181E001C082E09927FD
S113155008950F931F93182F062F882331F48DE0DD
S11315600E94EA08882341F43CC0813029F48EE0CB
S11315700E94EA088823A9F10023F9F0013089F5D3
S1131580112319F0113069F50CC09091E5019130E7
S113159041F58091C10088608093C1009093E3017C
S11315A020C08091EA018130E1F48091C900886013
S11315B08093C9001093E80114C0112319F011306D
S11315C081F408C08091C100877F8093C10010928C
S11315D0E30107C08091C900877F8093C9001092FE
S11315E0E8011F910F91089577FF03C060E070E058
S11315F005C06F31710514F06EE170E0882319F0B5
S1131600813051F405C07093E7016093E6010895B9
S11316107093EC016093EB0108951F93162F8823B8
S113162021F0813009F042C020C08DE00E94EA0818
S11316308823E1F18091E3018130C1F58091C000FC
S113164082958695877080FFF9CF1093C6008091AC
S1131650C000829586958695837080FFF8CF80912F
S1131660C00080648093C0001FC08DE00E94EA081F
S11316708823E1F08091E8018130C1F48091C800B1
S113168082958695877080FFF9CF1093CE00809164
S1131690C800829586958695837080FFF8CF8091E7
S11316A0C80080648093C80080E001C081E099276D
S11316B01F910895882319F0813041F404C0519A90
S11316C05098599A0895539A52985B9A08950E9493
S11316D042110E94A10E0E94B50D0E9403120E94A5
S11316E06B040E94F70878940895000008951F92EF
S11316F00F920FB60F9211242F933F934F935F9342
S11317006F937F938F939F93AF93BF93EF93FF93C5
S1131710E0916C01F0916D01309709F00995FF910A
S1131720EF91BF91AF919F918F917F916F915F9155
S11317304F913F912F910F900FBE0F901F901895CE
S11317401F920F920FB60F9211242F933F934F9332
S11317505F936F937F938F939F93AF93BF93EF9315
S1131760FF93E0916E01F0916F01309709F00995B4
S1131770FF91EF91BF91AF919F918F917F916F9165
S11317805F914F913F912F910F900FBE0F901F903B
S113179018951F920F920FB60F9211242F933F9317
S11317A04F935F936F937F938F939F93AF93BF9365
S11317B0EF93FF93E0917001F0917101309709F07C
S11317C00995FF91EF91BF91AF919F918F917F9177
S11317D06F915F914F913F912F910F900FBE0F909A
S11317E01F9018951F920F920FB60F9211242F93EA
S11317F03F934F935F936F937F938F939F93AF9395
S1131800BF93EF93FF93E0915E01F0915F013097F6
S113181009F00995FF91EF91BF91AF919F918F913D
S11318207F916F915F914F913F912F910F900FBED8
S11318300F901F9018951F920F920FB60F921124BC
S11318402F933F934F935F936F937F938F939F93C4
S1131850AF93BF93EF93FF93E0916001F091610127
S1131860309709F00995FF91EF91BF91AF919F9146
S11318708F917F916F915F914F913F912F910F9035
S11318800FBE0F901F9018951F920F920FB60F92D4
S113189011242F933F934F935F936F937F938F9371
S11318A09F93AF93BF93EF93FF93E0916201F09105
S11318B06301309709F00995FF91EF91BF91AF91C2
S11318C09F918F917F916F915F914F913F912F9154
S11318D00F900FBE0F901F9018951F920F920FB686
S11318E00F9211242F933F934F935F936F937F93A2
S11318F08F939F93AF93BF93EF93FF93E091660110
S1131900F0916701309709F00995FF91EF91BF912C
S1131910AF919F918F917F916F915F914F913F9183
S11319202F910F900FBE0F901F9018951F920F923A
S11319300FB60F9211242F933F934F935F936F939E
S11319407F938F939F93AF93BF93EF93FF93E09114
S11319506801F0916901309709F00995FF91EF91C1
S1131960BF91AF919F918F917F916F915F914F91B3
S11319703F912F910F900FBE0F901F9018951F92BB
S11319800F920FB60F9211242F933F934F935F93AF
S11319906F937F938F939F93AF93BF93EF93FF9333
S11319A0E0916401F0916501309709F00995FF9188
S11319B0EF91BF91AF919F918F917F916F915F91C3
S11319C04F913F912F910F900FBE0F901F9018953C
S11319D01F920F920FB60F9211242F933F934F93A0
S11319E05F936F937F938F939F93AF93BF93EF9383
S11319F0FF93E0916A01F0916B01309709F009952A
S1131A00FF91EF91BF91AF919F918F917F916F91D2
S1131A105F914F913F912F910F900FBE0F901F90A8
S1131A2018951F920F920FB60F9211242F933F9384
S1131A304F935F936F937F938F939F93AF93BF93D2
S1131A40EF93FF93E0915401F0915501309709F021
S1131A500995FF91EF91BF91AF919F918F917F91E4
S1131A606F915F914F913F912F910F900FBE0F9007
S1131A701F9018951F920F920FB60F9211242F9357
S1131A803F934F935F936F937F938F939F93AF9302
S1131A90BF93EF93FF93E0915601F0915701309774
S1131AA009F00995FF91EF91BF91AF919F918F91AB
S1131AB07F916F915F914F913F912F910F900FBE46
S1131AC00F901F9018951F920F920FB60F9211242A
S1131AD02F933F934F935F936F937F938F939F9332
S1131AE0AF93BF93EF93FF93E0915801F0915901A5
S1131AF0309709F00995FF91EF91BF91AF919F91B4
S1131B008F917F916F915F914F913F912F910F90A2
S1131B100FBE0F901F9018951F920F920FB60F9241
S1131B2011242F933F934F935F936F937F938F93DE
S1131B309F93AF93BF93EF93FF93E0915A01F0917A
S1131B405B01309709F00995FF91EF91BF91AF9137
S1131B509F918F917F916F915F914F913F912F91C1
S1131B600F900FBE0F901F90189580E10E94DC0823
S1131B70882311F082E009C0ECE4F1E011921192A3
S1131B8081E0EC38F807D1F781E0992708951F9395
S1131B90CF93DF9385E00E94EA088823D1F060E0C8
S1131BA080E40E948F03C0E0D0E060E08C2F0E94AC
S1131BB03A0310E061E080E00E948F031F5F103859
S1131BC0C9F72196C430D10581F760E083E00E9413
S1131BD07D03DF91CF911F9108950F931F93CF93AE
S1131BE0DF93082F11278A3091F08B3040F488302E
S1131BF091F1893020F5873009F049C037C08D3024
S1131C0049F08B3181F08C3009F041C006C010924C
S1131C10ED0103C01092ED017AC08091EE01815074
S1131C208093EE0174C00E94C70D7DC061E080E026
S1131C300E948F038091ED018F5F8093ED0180916D
S1131C40ED0187FFF3CF1092ED018091EE018150F9
S1131C508093EE0168C08091ED01882309F457C098
S1131C608091ED0186508093ED0151C081E00E9486
S1131C70031024E630E04DE750E064EF71E080E0CB
S1131C8090E00E94101081E00E94540F40C06091C7
S1131C90ED018091EE010E943A03E801CC0FDD1FB3
S1131CA0CC0FDD1FC00FD11FCF59DF4F10E0FE0155
S1131CB0849161E00E948F031F5F21961530B9F76C
S1131CC061E080E00E948F038091ED018A5F809340
S1131CD0ED018091ED0199278C3791053CF010922C
S1131CE0ED018091EE0181508093EE018091EE012F
S1131CF083708093EE018091EF018130D9F4E091FB
S1131D00F001F091F1013097A9F0099513C06091A9
S1131D10ED018091EE010E943A038091EE018370FF
S1131D208093EE0107C06091ED018091EE010E9465
S1131D303A03DCCF80E090E0DF91CF911F910F91C7
S1131D400895F8940E94000F81E00E94AA0E81E099
S1131D5090E00895813071F0F894813059F0813029
S1131D6030F08230C9F0833009F046C01AC080E0F8
S1131D7090E020C02C9A80E880936100109261006A
S1131D8080E090E00000019688329105D9F7109226
S1131D90680010926B00089580E88093610083E0EE
S1131DA004C080E88093610088E08093610026C0CD
S1131DB0000001962DE680369207D1F72C9880E03A
S1131DC090E0000001962DE680369207D1F710923C
S1131DD07A008FEF80936400809168008160809323
S1131DE0680080916B00846080936B00789483B763
S1131DF0816083BF88950895823008F078940895AF
S1131E00249A2C9A089583E58CBD81E08DBD84EFDE
S1131E1091E00197F1F7089583E58CBD81E08DBDD4
S1131E208DE08A95F1F7089583E58CBD1DBC84EFA0
S1131E3091E00197F1F708958FE78CBD1DBC84EF05
S1131E4091E00197F1F7089583E58CBD81E08DBDA4
S1131E508DE08A95F1F708958AE00E94CB088823E3
S1131E6029F481E00E9466101092A601089589E089
S1131E700E94CB088823B9F48091A501882311F02E
S1131E800E94AC1082E00E9466108091B301909190
S1131E90B401009731F00E94501C1092B4011092CA
S1131EA0B3011092A5010895813029F0823029F4FC
S1131EB00E94370F08950E942C0F0895CF92DF924D
S1131EC0EF92FF920F931F93CF93DF9380E291E001
S1131ED00E94B81BEC019093B4018093B301892B49
S1131EE011F480E044C0CC24DD24EE24FF248701D7
S1131EF0C801B7010E94DE18D7FE06C020E030E01A
S1131F0040E857E40E94101820E030E040EA51E431
S1131F100E94741827EF35E740E05FE30E94A4199C
S1131F209B01AC0160E070E080E291E40E94071A3A
S1131F302DEC3CEC42E851E40E94A4190E946A1979
S1131F402AE030E040E050E00E946C1B69937993F2
S1131F50899399930894C11CD11C0894E11CF11C29
S1131F60011D111D88E4C816D10411F681E09927DA
S1131F70DF91CF911F910F91FF90EF90DF90CF9061
S1131F8008958AE00E94DC08882311F082E00AC0E8
S1131F901092B0011092AF0181E00E94821081E0A2
S1131FA08093A601992708951F9389E00E94DC0875
S1131FB0882311F082E024C08BE00E94EA08882381
S1131FC0D9F40E945E0F182F813011F086E018C0FA
S1131FD01092A7011092A8011092A9011092AA01CF
S1131FE06BEB72E18DE00E94981282E00E948210F5
S1131FF01093A50181E004C089E00E94CB0887E02A
S113200099271F910895813021F0823029F084E0CE
S113201005C00E94C10F02C00E94D40F99270895E1
S11320206F927F928F929F92AF92BF92CF92DF92E4
S1132030EF92FF920F931F93CF93DF933B014C01D9
S11320405A01E9018AE00E94EA08882381F1209775
S113205041F1B501882777FD8095982F9E01C536FB
S1132060D10510F024E630E0442755270E946C1B6C
S113207024E630E040E050E00E947C1B79018A01B4
S1132080C401B3010E94BE12C7010E94961160E010
S113209070E080E090E00E94BE12C5018E199F0995
S11320A004C0A114B10419F0C5010E949611DF9176
S11320B0CF911F910F91FF90EF90DF90CF90BF9041
S11320C0AF909F908F907F906F900895823029F405
S11320D0809181008E7F809381008091A501813061
S11320E031F48091A601813011F4000008958091AB
S11320F0A501813021F08091A601813011F45F980F
S113210057980895982F8091A501882331F48091E0
S1132110A601882311F4579A5F988091A50188231A
S1132120D1F49230C1F41092800010928100809119
S11321308100886080938100809181008160809318
S11321408100109285001092840081E080938900C0
S113215080E9809388000895EFE6F0E080818D7F28
S113216080830895982F81E080933702913051F055
S1132170913018F0923041F403C010921F0204C051
S113218010921F0210922002109237020895982F85
S113219081E080933702913071F0913018F09230E1
S11321A071F405C0709314026093130208C0709315
S11321B01402609313027093160260931502109236
S11321C03702089521E020933702909314028093FC
S11321D01302709316026093150210923702089549
S11321E0982F81E080933702913051F0913018F0AC
S11321F0923041F403C06093210204C06093210231
S1132200609322021092370208950F931F93CF9385
S1132210DF938B01EA01813031F1813018F0823093
S113222061F513C080910B0290910C02892B11F07F
S113223080E008C010921802109217021EC0AE016E
S1132240B80181E00E94231318C080910B02909181
S11322500C02892B21F080E00E94231304C0109209
S113226018021092170280910D0290910E02892B90
S113227031F710921A0210921902DF91CF911F9137
S11322800F910895CF93DF93C0E0D0E060E08C2FEE
S11322900E9451112196C531D105C1F7DF91CF912B
S11322A00895853128F4E82FFF27E454FE4F608316
S11322B008951F93CF93DF93EC01892B99F181E06B
S11322C00E94EA08882351F187E00E94BF0418ECB9
S11322D0812F8A95F1F76AE082E00E941E0564EB83
S11322E082E00E941E05812F8A95F1F760E082E06A
S11322F00E94A5048883812F8A95F1F760E082E02B
S11323000E94A50489831A95F1F760E082E00E9497
S1132310A5048A8387E00E94BF0404C0188219823E
S11323208DE28A83DF91CF911F9108950F931F93BC
S1132330CF93DF93CDB7DEB729970FB6F894DEBFFE
S11323400FBECDBF8C0188E00E94EA08882311F4F7
S113235091E00DC0980140E061E0CE0101960E9439
S1132360C411982F882319F48F818823E9F3892FC6
S1132370992729960FB6F894DEBF0FBECDBFDF9123
S1132380CF911F910F910895EF92FF920F931F9396
S1132390CF93DF93EC01F62EE42E890188E00E94AE
S11323A0EA08882311F481E026C084E090E00E94CA
S11323B0B81BFC01892B11F482E01DC0F982F0FCEA
S11323C01E8281E0E81619F48981846089838981F9
S11323D0886089831B830A831D830C83D183C08314
S11323E01382128281E08093B501CF010E942912E9
S11323F01092B50180E09927DF91CF911F910F9141
S1132400FF90EF90089588E00E94DC08882311F083
S113241082E014C01092580210925A02109259028B
S11324201092B5011092B6016EE873E180E10E944A
S1132430AB120E9420120E94921281E09927089503
S113244084B5826084BD85B5846085BD8EE487BD16
S11324500895CF92DF92EF92FF920F931F93CF9341
S1132460DF93EC0180915802882339F4D0935A0207
S1132470C09359020E94951347C0C0905902D0904E
S11324805A0200E010E0EE24FF2429C0A881B9819B
S1132490FD0164817581F60140815181FA018481D5
S11324A095819B01281B390B37FF0AC0861B970BAC
S11324B095838483DB82CA82012BF1F0F70122C069
S11324C0F601828193812115310581F0FD01358367
S11324D024830097B1F00F5F1F4F76016C01809148
S11324E0580299270817190788F20BC0FD011582B5
S11324F014829B838A8305C0D0935A02C0935902E5
S113250003C0F601D383C283809158028F5F809306
S11325105802DF91CF911F910F91FF90EF90DF90C0
S1132520CF900895EEE6F0E0808182608083089584
S1132530E82F803268F48051833050F0FF27EE0F8B
S1132540FF1FE45BFE4F8081918171836083089556
S113255080E090E00895803218F080E090E00895E3
S1132560E82FFF27EE0FFF1FE45BFE4F8081918170
S11325707183608308950E94E2120895EF92FF929E
S11325800F931F937B018C018AE00E94EA08882341
S1132590A1F08091A601882381F0D801C701880F9A
S11325A0991FAA1FBB1F9093B2018093B101E1143C
S11325B0F1040105110509F45F981F910F91FF9033
S11325C0EF9008958091A7019091A801A091A9018D
S11325D0B091AA012091AB013091AC014091AD01C1
S11325E05091AE01820F931FA41FB51F8093A701C2
S11325F09093A801A093A901B093AA018091A70187
S11326009091A801A091A901B091AA018851964F77
S1132610A040B040BCF08BB180588BB98091A70129
S11326209091A801A091A901B091AA018851964F57
S1132630A040B0408093A7019093A801A093A90162
S1132640B093AA010895EF92FF920F931F93CF9333
S1132650DF93EB01882321F0813009F058C02CC0AE
S1132660CA019C0144275527CA01B9010E946C1B69
S113267020910B0230910C02220F331F442755275F
S11326800E947C1B79018A01220F331F441F551FAE
S1132690CE01AA27BB2782179307A407B50728F002
S11326A0F0921802E092170232C0D695C795D093E3
S11326B01802C09317022BC0CA019C014427552756
S11326C0CA01B9010E946C1B20910D0230910E02C7
S11326D0220F331F442755270E947C1B79018A014E
S11326E0220F331F441F551FCE01AA27BB27821771
S11326F09307A407B50728F0F0921A02E092190292
S113270006C0D695C795D0931A02C0931902DF91DB
S1132710CF911F910F91FF90EF9008950E9499130C
S11327200E94DA130E94B313089581E08093B601E6
S1132730089588E00E94EA08882311F484E011C017
S11327408091B601882311F483E00BC08091B50118
S1132750882311F082E005C00E944A168130E1F31B
S113276080E0992708958091A601813011F5809128
S1132770AF019091B0012091B1013091B201820F6B
S1132780931F9093B0018093AF018091AF0190911A
S1132790B001885E93406CF08BB180588BB9809106
S11327A0AF019091B001885E93409093B001809303
S11327B0AF01089587E00E94EA08882309F4AAC0BB
S11327C080910B0290910C02892B09F180912F02C8
S11327D09091300220910B0230910C02820F931FD2
S11327E09093300280932F0280912F0290913002B7
S11327F0885E9340A4F080912F0290913002885E0D
S113280093409093300280932F0241E009C080915D
S1132810030290910402909308028093070240E01F
S113282080910D0290910E02892B09F18091310261
S11328309091320220910D0230910E02820F931F6B
S1132840909332028093310280913102909132024E
S1132850885E9340A4F08091310290913202885EA8
S11328609340909332028093310261E009C08091D9
S113287005029091060290930A028093090260E097
S1132880842F0E948B1480912B0290912C02209112
S1132890070230910802820F931F90932C028093B9
S11328A02B0280912B0290912C02885E934014F4A9
S11328B040E00BC080912B0290912C02885E9340E3
S11328C090932C0280932B0241E080912D029091F1
S11328D02E022091090230910A02820F931F9093D5
S11328E02E0280932D0280912D0290912E02885EFB
S11328F0934014F460E00BC080912D0290912E025D
S1132900885E934090932E0280932D0261E0842F81
S11329100E94D01408958823F1F02091030230918D
S113292004028091070290910802281B390B1216A9
S1132930130634F48091070290910802019607C0AF
S1132940232B49F0809107029091080201979093FC
S1132950080280930702662311F120910502309149
S113296006028091090290910A02281B390B121663
S1132970130654F48091090290910A0201969093EF
S11329800A02809309020895232B49F080910902D9
S113299090910A02019790930A0280930902089584
S11329A00F931F93082F162F80913702882309F065
S11329B0E3C080911F02882309F05AC08091070266
S11329C090910802892BE9F48091B701837E80936A
S11329D0B7011092280280913302882309F45BC066
S11329E06091210280E00E942516E0913502F09169
S11329F03602309709F44FC081E08083109233028D
S1132A004AC080910102813041F480911302909177
S1132A101402019711F401E002C00023E1F1909146
S1132A20B701937EE0912602FF27E95EFE4F808185
S1132A30982B9093B70180912402882321F48091EC
S1132A4026028F5F03C08091260281508093260264
S1132A508091260283708093260281E0809328026D
S1132A60809101028130B9F480E00E94CF1513C037
S1132A709091B701937EE0912602FF27E95EFE4F15
S1132A808081982B9093B70182E080932802109262
S1132A9008021092070280912002882309F059C08D
S1132AA08091090290910A02892BE9F48091B7017F
S1132AB08F718093B7011092290280913402882388
S1132AC009F45AC06091220281E00E942516E09127
S1132AD03502F0913602309709F44EC081E08183CB
S1132AE01092340249C080910202813041F48091F5
S1132AF0150290911602019711F411E002C01123FE
S1132B00D9F19091B7019F71E0912702FF27E55E0B
S1132B10FE4F8081982B9093B701809125028823E2
S1132B2021F4809127028F5F03C080912702815096
S1132B30809327028091270283708093270281E08B
S1132B4080932902809102028130B1F40E94CF1552
S1132B5013C09091B7019F71E0912702FF27E55EB2
S1132B60FE4F8081982B9093B70182E080932902D5
S1132B7010920A021092090280912A02882331F4E9
S1132B80412F602F87EB91E00E94B91688B18370C2
S1132B909091B701892B88B91F910F9108951F93C4
S1132BA0182F882321F0813009F04DC027C080916F
S1132BB0130290911402892B49F080911302909191
S1132BC014020197909314028093130280913302AC
S1132BD08823C9F5209113023091140280911702C1
S1132BE0909118022817390771F560E070E080E0D1
S1132BF00E94FB0681E08093330225C08091150278
S1132C0090911602892B49F0809115029091160239
S1132C1001979093160280931502809134028823C1
S1132C2091F420911502309116028091190290912D
S1132C301A022817390739F460E070E081E00E9435
S1132C40FB06109334021F9108950F931F93182FBE
S1132C50062F662349F460E070E00E94FB0660E002
S1132C6070E0812F0E94C71081E0809337021130F9
S1132C7051F0113018F0123041F403C000931F02D8
S1132C8004C000931F0200932002109237021F9188
S1132C900F910895FF920F931F93CF93DF93809129
S1132CA05802882309F459C00091590210915A021C
S1132CB0F801C081D1818C819D8101979D838C8392
S1132CC0181619060CF449C0898180FF05C08E814D
S1132CD0882311F481E08E83898181FF03C0EF8111
S1132CE0F8850995809158028230A8F0F801828114
S1132CF0938190935A028093590213821282E09135
S1132D000000F091010084819581181619063CF0A9
S1132D1081E0F82E05C010925A0210925902FF2445
S1132D2080915802815080935802809158028823E0
S1132D3011F40E94B616898182FF08C08A819B81A2
S1132D409D838C83C8010E94291208C0C8010E9477
S1132D50501C89818F7E898301C0FF248F2D992780
S1132D60DF91CF911F910F91FF9008951092B601BA
S1132D700895FC0180912802823069F48091BB019E
S1132D8091E089278093BB01882309F03EC08081AC
S1132D90837E80833AC08091070290910802C39792
S1132DA0A4F56623D1F0209107023091080280E651
S1132DB090E0BC01269FC001279F900D369F900D87
S1132DC01124880F892F881F990B90931C028093DC
S1132DD01B0281E08093B90118C08091B901882356
S1132DE0A1F080911B0290911C02019790931C0208
S1132DF080931B0280911B0290911C02892B29F461
S1132E008081837E80831092B9018091290282306F
S1132E1069F48091BA0191E089278093BA018823EB
S1132E2009F03EC080818F718083089580910902EA
S1132E3090910A02C397A4F54423D1F0209109028A
S1132E4030910A0280E690E0AC01249FC001259FE6
S1132E50900D349F900D1124880F892F881F990B92
S1132E6090931E0280931D0281E08093B80108951F
S1132E708091B8018823A1F080911D0290911E02D7
S1132E80019790931E0280931D0280911D029091E0
S1132E901E02892B29F480818F7180831092B801DE
S1132EA00895CF93DF93CDB7DEB762970FB6F8944A
S1132EB0DEBF0FBECDBF1C861D861E8681E08F87B8
S1132EC0188619868A871B860E94B2020E94AC0368
S1132ED080E00E946A0A888B912CD12C70E050E02B
S1132EE0612C712C2E012CE0420E511C1E0130E18C
S1132EF0230E311C1F921F921F9283E08F9398EE32
S1132F009F935F937F931F92A1E0AF93892CA12C91
S1132F10B12CC12C38EEE32E33E0F32E830121E0F3
S1132F2030E04D2D62E082E05A8B798B0E94DE0501
S1132F30E7EAF1E63197F1F700C00000CE0101960F
S1132F400E94CB030FB6F894DEBF0FBECDBF5A89E3
S1132F507989813079F68A818F3E39F53889313023
S1132F6009F054C085E291E09F938F930E94DF1C87
S1132F7010E8E12E15E2F12E00E010E020E040E040
S1132F8063E080E00E94C70961E080E00E94A90A32
S1132F9032010F900F90D3016D913D0180E00E94AA
S1132FA00D0B62147304B9F731C08F3B09F0A2CF43
S1132FB0B889B13029F099249394DD24D39428C09E
S1132FC0A6E3B1E0BF93AF930E94DF1C10E8E12EAB
S1132FD015E2F12E00E010E020E040E063E080E044
S1132FE00E94C70961E080E00E94A90A9E01285F4F
S1132FF03F4F39010F900F90D3016D913D0180E057
S11330000E940D0B64147504B9F7D5CF912CD12C03
S113301078E552E088E5682E82E0782E6BCF505830
S1133020BB27AA270ED01CC10DD130F012D120F03D
S113303031F49F3F11F41EF402C10EF4E095E7FB56
S1133040F8C0E92F1ED180F3BA176207730784070B
S1133050950718F071F49EF536C10EF4E0950B2E29
S1133060BA2FA02D0B01B90190010C01CA01A001D6
S11330701124FF27591B99F0593F50F4503E68F131
S11330801A16F040A22F232F342F4427585FF3CF72
S1133090469537952795A795F0405395C9F77EF443
S11330A01F16BA0B620B730B840BBAF09150A1F08C
S11330B0FF0FBB1F661F771F881FC2F70EC0BA0F12
S11330C0621F731F841F48F4879577956795B7959A
S11330D0F7959E3F08F0B3CF9395880F08F0992792
S11330E0EE0F9795879508950CD0BAC0B2D040F0F2
S11330F0A9D030F021F45F3F19F09BC05111E4C016
S11331009EC0BFD098F39923C9F35523B1F3951BFF
S1133110550BBB27AA2762177307840738F09F5FF4
S11331205F4F220F331F441FAA1FA9F333D00E2E63
S11331303AF0E0E830D091505040E695001CCAF7D0
S113314029D0FE2F27D0660F771F881FBB1F261795
S113315037074807AB07B0E809F0BB0B802DBF0168
S1133160FF2793585F4F2AF09E3F510568F061C0D6
S1133170ABC05F3FECF3983EDCF38695779567959B
S1133180B795F7959F5FC9F7880F911D9695879519
S113319097F90895E1E0660F771F881FBB1F621738
S11331A073078407BA0720F0621B730B840BBA0BF6
S11331B0EE1F88F7E0950895E89409C097FB3EF464
S11331C090958095709561957F4F8F4F9F4F992370
S11331D0A9F0F92F96E9BB279395F69587957795EE
S11331E06795B795F111F8CFFAF4BB0F11F460FFAE
S11331F01BC06F5F7F4F8F4F9F4F16C0882311F006
S113320096E911C0772321F09EE8872F762F05C019
S1133210662371F096E8862F70E060E02AF09A95B4
S1133220660F771F881FDAF7880F9695879597F9A9
S1133230089597F99F6780E870E060E008959FEF34
S113324080EC089500240A94161617061806090639
S1133250089500240A941216130614060506089508
S1133260092E0394000C11F4882352F0BB0F40F490
S1133270BF2B11F460FF04C06F5F7F4F8F4F9F4FD0
S1133280089557FD9058440F551F59F05F3F71F052
S11332904795880F97FB991F61F09F3F79F08795B9
S11332A00895121613061406551FF2CF4695F1DF42
S11332B008C0161617061806991FF1CF86957105D2
S11332C0610508940895E894BB2766277727CB0106
S11332D097F90895DEDFA8F19E57A8F1985160F0A0
S11332E039F1983070F5092E9927660F771F881FDA
S11332F0991F0A94D1F71CC0BB27993F4CF4B11114
S1133300B1E0B62B672F782F8827985FB1F708C0F4
S1133310869577956795B79508F4B1609395C1F74D
S1133320BB0F30F411F460FF03C06F5F7F4F8F4F0A
S11333303EF490958095709561957F4F8F4F9F4F88
S113334008956894C1CFBFCF0BD08ACF7BDF28F01C
S113335080DF18F0952309F06CCF71CF1124B4CF1E
S113336090DFA0F3959FD1F3950F50E0551F629F16
S1133370F001729FBB27F00DB11D639FAA27F00DCA
S1133380B11DAA1F649F6627B00DA11D661F829FF1
S11333902227B00DA11D621F739FB00DA11D621FD6
S11333A0839FA00D611D221F749F3327A00D611DF3
S11333B0231F849F600D211D822F762F6A2F1124D5
S11333C09F5750408AF0E1F088234AF0EE0FFF1F28
S11333D0BB1F661F771F881F91505040A9F79E3F5F
S11333E0510570F026CF70CF5F3FECF3983EDCF3CD
S11333F0869577956795B795F795E7959F5FC1F79C
S1133400FE2B880F911D9695879597F90895FA01DB
S1133410EE0FFF1F30962105310599F161157105F5
S113342061F48038BFE39B0749F1689490388105C3
S113343061F08038BFEF9B0741F0992342F5FF3FCD
S1133440E1053105210511F1E8940894E795D901C6
S1133450AA2329F4AB2FBE2FF85FD0F310C0FF5F6F
S113346070F4A695E0F7F73950F019F0FF3A38F404
S11334709F779F930CD00F9007FC905808953EF0CF
S1133480DECE60E070E080E89FE308954FE79F7729
S11334905F934F933F932F939ED02F913F914F91E2
S11334A05F9152DF05C019F40EF0C3CE0CCFC7CE26
S11334B0F0DEC8F39638C0F707F80F92E8942BE3D0
S11334C03AEA48EB5FE74EDF0F920F920F924DB747
S11334D05EB70F92C0D0ECE7F0E016D04F915F9149
S11334E0EF91FF91E595EE1FFF1F49F0FE57E0684D
S11334F04427EE0F441FFA95E1F74195550B32D05E
S11335000F9007FE26C00895DF93CF931F930F9368
S1133510FF92EF92DF927B018C01689405C0DA2E52
S1133520EF011EDFFE01E894A591259135914591A7
S11335305591AEF3EF0185DDFE019701A801DA9400
S113354079F7DF90EF90FF900F911F91CF91DF916A
S113355008959B01AC0160E070E080E89FE3C4CD76
S113356068CEACC096DEE8F39923D9F3940F511DCD
S1133570BBF39150504094F059F0882332F0660F19
S1133580771F881F91505040C1F79E3F510544F763
S1133590880F911D9695879597F908955F3FACF034
S11335A0983E9CF0BB27869577956795B79508F468
S11335B0B1609395C1F7BB0F58F711F460FFE8CFE2
S11335C06F5F7F4F8F4F9F4FE3CF7ECE0EF076C05D
S11335D036CE68942ECE5DDEC8F39923D1F3C6F3BC
S11335E0DF93CF931F930F93FF92C92FDD27882377
S11335F02AF02197660F771F881FDAF720E030E062
S113360040E85FEB9FE3883920F0803E30F021965C
S11336108F7706DDE4EAF0E003C002DDE1EDF0E0DF
S113362073DF8B01BE01EC01FB2E6F577109759599
S1133630771F880B990BC2DD28E132E741E35FE392
S11336408FDEAF2D9801AE01FF900F911F91CF91A6
S1133650DF91F7DC05CEFA01DC01AA0FBB1F9B0149
S1133660AC01BF5728F422273327442750781FC0C2
S1133670B75188F4AB2F0024469537952795011C44
S1133680A395D2F3002069F0220F331F441FB39592
S1133690DAF30DD0C4CC61307105A0E88A07B946CD
S11336A030F49B01AC016627772788279078309601
S11336B021F0208331834283538308959F3F31F067
S11336C0915020F4879577956795B795880F911D4C
S11336D09695879597F90895DB018F939F930E94A0
S11336E09E1BBF91AF91A29F800D911DA39F900D32
S11336F0B29F900D11240895A1E21A2EAA1BBB1BA0
S1133700FD010DC0AA1FBB1FEE1FFF1FA217B307A9
S1133710E407F50720F0A21BB30BE40BF50B661FBF
S1133720771F881F991F1A9469F760957095809583
S113373090959B01AC01BD01CF0108950E94A91B86
S1133740A59F900DB49F900DA49F800D911D1124F1
S11337500895A29FB001B39FC001A39F700D811D66
S11337601124911DB29F700D811D1124911D089586
S1133770CF93DF938230910510F482E090E0E091E2
S11337805D02F0915E0220E030E0A0E0B0E030970E
S113379039F14081518148175907B8F04817590742
S11337A071F482819381109729F013969C938E93E0
S11337B012972CC090935E0280935D0227C021155E
S11337C0310531F04217530718F0A901DB0101C09C
S11337D0EF019A01BD01DF010280F381E02DD7CF13
S11337E021153105F9F0281B390B2430310580F4FB
S11337F08A819B816115710521F0FB01938382838A
S113380004C090935E0280935D02FE01329644C030
S1133810FE01E20FF31F8193919322503109398302
S113382028833AC020915B0230915C02232B41F43F
S1133830209121013091220130935C0220935B029C
S113384020911F01309120012115310541F42DB73C
S11338503EB74091230150912401241B350BE09184
S11338605B02F0915C02E217F307A0F42E1B3F0BFE
S11338702817390778F0AC014E5F5F4F24173507DE
S113388048F04E0F5F1F50935C0240935B0281939C
S1133890919302C0E0E0F0E0CF01DF91CF91089571
S11338A0CF93DF93009709F487C0FC01329713820A
S11338B01282C0915D02D0915E02209781F4208132
S11338C03181280F391F80915B0290915C0282172D
S11338D0930779F5F0935C02E0935B026DC0DE011F
S11338E020E030E0AE17BF0750F412964D915C9182
S11338F013979D014115510509F1DA01F3CFB38303
S1133900A28340815181840F951F8A179B0771F40C
S11339108D919C911197840F951F029691838083BA
S113392012968D919C91139793838283211531056F
S113393029F4F0935E02E0935D023EC0D901139630
S1133940FC93EE9312974D915D91A40FB51FEA1766
S1133950FB0779F480819181840F951F0296D90128
S113396011969C938E938281938113969C938E934C
S11339701297E0E0F0E08A819B81009719F0FE0144
S1133980EC01F9CFCE01029628813981820F931F71
S113399020915B0230915C022817390769F4309753
S11339A029F410925E0210925D0202C01382128208
S11339B0D0935C02C0935B02DF91CF910895A0E0A5
S11339C0B0E0E5EEFCE10C947B1FFE0135966191BD
S11339D07191AF0180916102909162020E94F31C87
S11339E0E2E00C94971FACE0B0E0E9EFFCE10C944A
S11339F06B1F7C016B018A01FC0117821682838193
S1133A0081FFBDC1CE0101964C01F7019381F601FE
S1133A1093FD859193FF81916F01882309F4ABC1D4
S1133A20853239F493FD859193FF81916F0185323D
S1133A3029F4B70190E00E94DB1EE7CF512C312C12
S1133A4020E02032A0F48B3269F030F4803259F057
S1133A50833269F420612CC08D3239F0803339F41B
S1133A60216026C02260246023C0286021C027FD75
S1133A7027C030ED380F3A3078F426FF06C0FAE05C
S1133A805F9E300D1124532E13C08AE0389E300DF2
S1133A901124332E20620CC08E3221F426FD6BC11A
S1133AA0206406C08C3611F4206802C0883641F4C4
S1133AB0F60193FD859193FF81916F018111C1CF2F
S1133AC0982F9F7D9554933028F40C5F1F4FFFE38C
S1133AD0F9830DC0833631F0833771F0833509F0F3
S1133AE05BC022C0F801808189830E5F1F4F44248C
S1133AF04394512C540115C03801F2E06F0E711C2F
S1133B00F801A080B18026FF03C0652D70E002C0DB
S1133B106FEF7FEFC5012C870E94D01E2C0183011B
S1133B202C852F77222E17C03801F2E06F0E711CFE
S1133B30F801A080B18026FF03C0652D70E002C0AB
S1133B406FEF7FEFC5012C870E94C51E2C012C85C9
S1133B502068222E830123FC1BC0832D90E048168D
S1133B605906B0F4B70180E290E00E94DB1E3A945B
S1133B70F4CFF50127FC859127FE81915F01B70100
S1133B8090E00E94DB1E31103A94F1E04F1A510884
S1133B904114510471F7E5C0843611F0893639F5C2
S1133BA0F80127FF07C060817181828193810C5FD6
S1133BB01F4F08C060817181882777FD8095982FF9
S1133BC00E5F1F4F2F76B22E97FF09C090958095F8
S1133BD0709561957F4F8F4F9F4F2068B22E2AE0DA
S1133BE030E0A4010E940D1FA82EA81844C08537F8
S1133BF029F42F7EB22E2AE030E025C0F22FF97F7F
S1133C00BF2E8F36C1F018F4883579F0B4C08037F0
S1133C1019F0883721F0AFC02F2F2061B22EB4FEE7
S1133C200DC08B2D8460B82E09C024FF0AC09F2FBD
S1133C309660B92E06C028E030E005C020E130E0EF
S1133C4002C020E132E0F801B7FE07C06081718153
S1133C50828193810C5F1F4F06C06081718180E077
S1133C6090E00E5F1F4FA4010E940D1FA82EA818FC
S1133C70FB2DFF77BF2EB6FE0BC02B2D2E7FA51478
S1133C8050F4B4FE0AC0B2FC08C02B2D2E7E05C031
S1133C907A2C2B2D03C07A2C01C0752C24FF0DC067
S1133CA0FE01EA0DF11D8081803311F4297E09C0E3
S1133CB022FF06C07394739404C0822F867809F09F
S1133CC0739423FD13C020FF06C05A2C731418F4F8
S1133CD0530C5718732C731468F4B70180E290E006
S1133CE02C870E94DB1E73942C85F5CF731410F47B
S1133CF0371801C0312C24FF12C0B70180E390E0D3
S1133D002C870E94DB1E2C8522FF17C021FF03C0D5
S1133D1088E590E002C088E790E0B7010CC0822FEC
S1133D20867859F021FD02C080E201C08BE227FDB4
S1133D308DE2B70190E00E94DB1EA51438F4B701B0
S1133D4080E390E00E94DB1E5A94F7CFAA94F4011A
S1133D50EA0DF11D8081B70190E00E94DB1EA110E5
S1133D60F5CF332009F451CEB70180E290E00E94F0
S1133D70DB1E3A94F6CFF7018681978102C08FEF5C
S1133D809FEF2C96E2E10C94871FFC010590615093
S1133D9070400110D8F7809590958E0F9F1F08955D
S1133DA0FC016150704001900110D8F78095909506
S1133DB08E0F9F1F08950F931F93CF93DF93182F98
S1133DC0092FEB018B8181FD03C08FEF9FEF20C092
S1133DD082FF10C04E815F812C813D8142175307C1
S1133DE07CF4E881F9819F012F5F3F4F3983288359
S1133DF0108306C0E885F985812F0995892B29F759
S1133E002E813F812F5F3F4F3F832E83812F902F41
S1133E10DF91CF911F910F910895FA01AA272830BD
S1133E2051F1203181F1E8946F936E7F6E5F7F4F83
S1133E308F4F9F4FAF4FB1E03ED0B4E03CD0670FFF
S1133E40781F891F9A1FA11D680F791F8A1F911D52
S1133E50A11D6A0F711D811D911DA11D20D009F4A2
S1133E6068943F912AE0269F11243019305D3193E4
S1133E70DEF6CF010895462F4770405D4193B3E0CD
S1133E800FD0C9F7F6CF462F4F70405D4A3318F074
S1133E90495D31FD4052419302D0A9F7EACFB4E025
S1133EA0A6959795879577956795BA95C9F70097DD
S1133EB06105710508959B01AC010A2E069457957E
S1133EC0479537952795BA95C9F7620F731F841FD5
S1133ED0951FA01D08952F923F924F925F926F926B
S1133EE07F928F929F92AF92BF92CF92DF92EF9286
S1133EF0FF920F931F93CF93DF93CDB7DEB7CA1B07
S1133F00DB0B0FB6F894DEBF0FBECDBF09942A8831
S1133F10398848885F846E847D848C849B84AA84D9
S1133F20B984C884DF80EE80FD800C811B81AA8166
S1133F30B981CE0FD11D0FB6F894DEBF0FBECDBF31
S10B3F40ED010895F894FFCF90
S1133F480000000200000000ED0D00000000014226
S1133F5800000000000000180C041060C08020005D
S1133F6800650220005541525430204F50454E20E0
S1133F78464F525709005541525430204F50454E30
S10B3F88204241434B090000F3
S9030000FC
