:100000000C943E000C945B000C945B000C945B0021
:100010000C94B5030C94DE030C9407040C94300488
:100020000C945B000C9496020C94BF020C94E802B2
:100030000C9463030C9411030C943A030C948C03FA
:100040000C941B020C9444020C946D020C945B0003
:100050000C945B000C945B000C945B000C945B00B4
:100060000C945B000C945B000C945B000C945B00A4
:100070000C945B000C945B000C945B0011241FBE7D
:10008000CFEFD8E0DEBFCDBF11E0A0E0B1E0E0E20D
:10009000FDE102C005900D92A831B107D9F722E029
:1000A000A8E1B1E001C01D92A331B207E1F70E94BF
:1000B0005D000C948E0E0C9400000E9419020E94A8
:1000C0000B020E949C0A80E090E0089584E00E9468
:1000D000F001882311F082E016C00E9425018150B2
:1000E000823068F41092A60180E88093A701809383
:1000F000A8018093A9018093AA0181E004C084E053
:100100000E94DF0187E0992708950F931F93CF93F3
:10011000DF938C0184E00E94FE01882309F48AC0E9
:100120000115110509F486C087E00E947901C0E03D
:10013000D0E0FE01E050FF4F608181E00E945F014E
:10014000FE01E85AFE4F80838AEF90E00197F1F7B5
:10015000209709F471C0C430D10531F48091590160
:10016000813409F069C007C0C830D10521F021965B
:10017000C930D105F0F287E00E94790180915A01DF
:100180008A3509F053C080915901813421F481E00E
:10019000F801808342C08337E1F582E0F801808373
:1001A00080915D01805880935D0180915F0180584E
:1001B00080935F0180915E018095805880935E01FD
:1001C0008091600180958058809360018383809145
:1001D0005F01848380915E01858380915D018683C8
:1001E0008091A601882399F4809160018093A701F2
:1001F00080915F018093A80180915E018093A901A5
:1002000080915D018093AA0181E08093A60191E035
:1002100005C0F80110821092A60190E080915B0168
:10022000F801818380915C01828308C0F80110820B
:100230001092A60190E002C021967BCF892F9927CA
:10024000DF91CF911F910F91089582E00E94F001FC
:10025000882311F082E031C00E94D8016EEE74E074
:1002600080E00E94700166EE74E081E00E947001FF
:100270006EED74E082E00E9470016DEC74E086E047
:100280000E94700166ED74E083E00E94700166EDEB
:1002900074E084E00E94700166ED74E085E00E94E5
:1002A000700166ED74E087E00E9470018FEF80932B
:1002B000B40187E00E94790181E0992708951F9396
:1002C000162F0E94790182E00E94FE01882329F006
:1002D0001EBD0DB407FEFDCF8EB599271F91089561
:1002E000E82FFF27EE0FFF1FEF59FE4F718360834A
:1002F00008951F93182F82E00E94FE01882309F4BD
:1003000055C0912F97708091B401981709F44EC091
:100310009093B40185B1887F892B85B9933051F1D1
:10032000943028F4913051F09230B0F40EC09530F2
:1003300079F1953030F1963091F515C0E091630177
:10034000F0916401309791F130C0E0916101F0913A
:100350006201309759F129C0E0916501F091660181
:10036000309721F122C0E0916D01F0916E0130973C
:10037000E9F01BC0E0916701F09168013097B1F09E
:1003800014C0E0916901F0916A01309779F00DC0D5
:10039000E0916B01F0916C01309741F006C0E09163
:1003A0006F01F0917001309709F009951F91089540
:1003B000259A2698279A209A219A229A089585317B
:1003C00060F4E82FFF27EF56FE4F8081882329F045
:1003D000808181508083808101C08FEF99270895AB
:1003E000853110F080E008C0E82FFF27EF56FE4F60
:1003F00080818F5F8083815099270895853110F027
:1004000080E007C0E82FFF27EF56FE4F8081811163
:1004100081E0992708950E94F6040E946B040E94CF
:1004200059040E947A050E9425010E940D057894C6
:100430000895000008951F920F920FB60F92112495
:100440002F933F934F935F936F937F938F939F93DC
:10045000AF93BF93EF93FF93E0913801F09139018F
:10046000309709F00995FF91EF91BF91AF919F915E
:100470008F917F916F915F914F913F912F910F904D
:100480000FBE0F901F9018951F920F920FB60F92EC
:1004900011242F933F934F935F936F937F938F9389
:1004A0009F93AF93BF93EF93FF93E0913A01F09145
:1004B0003B01309709F00995FF91EF91BF91AF9102
:1004C0009F918F917F916F915F914F913F912F916C
:1004D0000F900FBE0F901F9018951F920F920FB69E
:1004E0000F9211242F933F934F935F936F937F93BA
:1004F0008F939F93AF93BF93EF93FF93E0913C0152
:10050000F0913D01309709F00995FF91EF91BF916E
:10051000AF919F918F917F916F915F914F913F919B
:100520002F910F900FBE0F901F9018951F920F9252
:100530000FB60F9211242F933F934F935F936F93B6
:100540007F938F939F93AF93BF93EF93FF93E0912C
:100550002A01F0912B01309709F00995FF91EF9155
:10056000BF91AF919F918F917F916F915F914F91CB
:100570003F912F910F900FBE0F901F9018951F92D3
:100580000F920FB60F9211242F933F934F935F93C7
:100590006F937F938F939F93AF93BF93EF93FF934B
:1005A000E0912C01F0912D01309709F00995FF9110
:1005B000EF91BF91AF919F918F917F916F915F91DB
:1005C0004F913F912F910F900FBE0F901F90189554
:1005D0001F920F920FB60F9211242F933F934F93B8
:1005E0005F936F937F938F939F93AF93BF93EF939B
:1005F000FF93E0912E01F0912F01309709F00995BA
:10060000FF91EF91BF91AF919F918F917F916F91EA
:100610005F914F913F912F910F900FBE0F901F90C0
:1006200018951F920F920FB60F9211242F933F939C
:100630004F935F936F937F938F939F93AF93BF93EA
:10064000EF93FF93E0913201F0913301309709F07D
:100650000995FF91EF91BF91AF919F918F917F91FC
:100660006F915F914F913F912F910F900FBE0F901F
:100670001F9018951F920F920FB60F9211242F936F
:100680003F934F935F936F937F938F939F93AF931A
:10069000BF93EF93FF93E0913401F09135013097D0
:1006A00009F00995FF91EF91BF91AF919F918F91C3
:1006B0007F916F915F914F913F912F910F900FBE5E
:1006C0000F901F9018951F920F920FB60F92112442
:1006D0002F933F934F935F936F937F938F939F934A
:1006E000AF93BF93EF93FF93E0913001F09131010D
:1006F000309709F00995FF91EF91BF91AF919F91CC
:100700008F917F916F915F914F913F912F910F90BA
:100710000FBE0F901F9018951F920F920FB60F9259
:1007200011242F933F934F935F936F937F938F93F6
:100730009F93AF93BF93EF93FF93E0913601F091B6
:100740003701309709F00995FF91EF91BF91AF9173
:100750009F918F917F916F915F914F913F912F91D9
:100760000F900FBE0F901F9018951F920F920FB60B
:100770000F9211242F933F934F935F936F937F9327
:100780008F939F93AF93BF93EF93FF93E0912001DB
:10079000F0912101309709F00995FF91EF91BF91F8
:1007A000AF919F918F917F916F915F914F913F9109
:1007B0002F910F900FBE0F901F9018951F920F92C0
:1007C0000FB60F9211242F933F934F935F936F9324
:1007D0007F938F939F93AF93BF93EF93FF93E0919A
:1007E0002201F0912301309709F00995FF91EF91D3
:1007F000BF91AF919F918F917F916F915F914F9139
:100800003F912F910F900FBE0F901F9018951F9240
:100810000F920FB60F9211242F933F934F935F9334
:100820006F937F938F939F93AF93BF93EF93FF93B8
:10083000E0912401F0912501309709F00995FF918D
:10084000EF91BF91AF919F918F917F916F915F9148
:100850004F913F912F910F900FBE0F901F901895C1
:100860001F920F920FB60F9211242F933F934F9325
:100870005F936F937F938F939F93AF93BF93EF9308
:10088000FF93E0912601F0912701309709F0099537
:10089000FF91EF91BF91AF919F918F917F916F9158
:1008A0005F914F913F912F910F900FBE0F901F902E
:1008B000189580E10E94F001882311F082E009C0C0
:1008C000E8E1F1E01192119281E0E835F807D1F703
:1008D00081E099270895F8940E94CA0481E00E945B
:1008E000740481E090E00895813071F0F8948130D3
:1008F00059F0813030F08230C9F0833009F046C0C1
:100900001AC080E090E020C02C9A80E880936100BB
:100910001092610080E090E000000196883291051D
:10092000D9F71092680010926B00089580E88093C8
:10093000610083E004C080E88093610088E08093D8
:10094000610026C0000001962DE680369207D1F79F
:100950002C9880E090E0000001962DE6803692070A
:10096000D1F710927A008FEF809364008091680035
:1009700081608093680080916B00846080936B003D
:10098000789483B7816083BF88950895823008F09A
:1009900078940895249A2C9A089583E58CBD81E07B
:1009A0008DBD84EF91E00197F1F7089583E58CBD4B
:1009B00081E08DBD8DE08A95F1F7089583E58CBDCA
:1009C0001DBC84EF91E00197F1F708958FE78CBD8E
:1009D0001DBC84EF91E00197F1F7089583E58CBD8C
:1009E00081E08DBD8DE08A95F1F70895CF93DF9377
:1009F000C0E0D0E060E08C2F0E9405052196C53153
:100A0000D105C1F7DF91CF910895853128F4E82F02
:100A1000FF27EF56FE4F60830895CF93DF93CDB746
:100A2000DEB723970FB6F894DEBF0FBECDBF81E0CF
:100A30000E94F001882311F082E011C00E9425017C
:100A40008150823040F40E943905CE0101960E9407
:100A5000B60581E004C081E00E94DF0187E09927AC
:100A600023960FB6F894DEBF0FBECDBFDF91CF91B6
:100A700008951092CA011092C9011092CC011092EF
:100A8000CB011092CE011092CD011092D0011092A4
:100A9000CF011092D2011092D10180E991E09093A0
:100AA000B6018093B5019093B8018093B7019093FC
:100AB000BA018093B9019093BC018093BB019093DC
:100AC000BE018093BD0184E398E09093C0018093C0
:100AD000BF019093C2018093C1019093C4018093A0
:100AE000C3019093C6018093C5019093C801809380
:100AF000C701089588E00E94F001882311F082E088
:100B000014C01092D3011092D5011092D40110920A
:100B100071011092720163EF75E080E10E94A605F9
:100B20000E9497050E94A00581E09927089584B549
:100B3000826084BD85B5846085BD8EE487BD0895DF
:100B4000EEE6F0E08081826080830895803218F0C4
:100B500080E090E00895E82FFF27EE0FFF1FE85E8A
:100B6000FE4F808191817183608308951F93CF939D
:100B7000DF93EC01892B99F181E00E94FE0188232B
:100B800051F187E00E94790118EC812F8A95F1F7E5
:100B90006AE082E00E94140664EB82E00E94140680
:100BA000812F8A95F1F760E082E00E945F018883DF
:100BB000812F8A95F1F760E082E00E945F018983CE
:100BC0001A95F1F760E082E00E945F018A8387E076
:100BD0000E94790104C0188219828DE28A83DF9114
:100BE000CF911F9108950E94FA050E944A060E9423
:100BF0002306089588E00E94FE01882311F484E012
:100C000011C080917201882311F483E00BC08091A0
:100C10007101882311F082E005C00E94E60881304E
:100C2000E1F380E0992708951F93162F0E94790120
:100C300082E00E94FE01882321F01EBD0DB407FE54
:100C4000FDCF1F91089580917401813011F580913D
:100C50007D0190917E0120917F0130918001820F72
:100C6000931F90937E0180937D0180917D019091EF
:100C70007E01885E93406CF08BB180588BB9809177
:100C80007D0190917E01885E934090937E018093D8
:100C90007D01089587E00E94FE01882309F4AAC01F
:100CA0008091E0019091E101892B09F1809104028A
:100CB000909105022091E0013091E101820F931F94
:100CC00090930502809304028091040290910502A2
:100CD000885E9340A4F08091040290910502885EA2
:100CE0009340909305028093040241E009C08091F3
:100CF000D8019091D9019093DD018093DC0140E00F
:100D00008091E2019091E301892B09F18091060223
:100D1000909107022091E2013091E301820F931F2D
:100D20009093070280930602809106029091070239
:100D3000885E9340A4F08091060290910702885E3D
:100D40009340909307028093060261E009C080916E
:100D5000DA019091DB019093DF018093DE0160E086
:100D6000842F0E94FB068091000290910102209145
:100D7000DC013091DD01820F931F9093010280937B
:100D800000028091000290910102885E934014F469
:100D900040E00BC08091000290910102885E934078
:100DA000909301028093000241E0809102029091B1
:100DB00003022091DE013091DF01820F931F909397
:100DC0000302809302028091020290910302885EE6
:100DD000934014F460E00BC08091020290910302F2
:100DE000885E9340909303028093020261E0842F17
:100DF0000E94400708958823F1F02091D801309196
:100E0000D9018091DC019091DD01281B390B12166C
:100E1000130634F48091DC019091DD01019607C046
:100E2000232B49F08091DC019091DD010197909393
:100E3000DD018093DC01662311F12091DA0130910C
:100E4000DB018091DE019091DF01281B390B121626
:100E5000130654F48091DE019091DF010196909386
:100E6000DF018093DE010895232B49F08091DE019C
:100E70009091DF0101979093DF018093DE01089547
:100E80000F931F93082F162F80910C02882309F0CF
:100E9000E3C08091F401882309F05AC08091DC01FD
:100EA0009091DD01892BE9F480918301837E809309
:100EB00083011092FD0180910802882309F45BC030
:100EC0006091F60180E00E94C108E0910A02F09171
:100ED0000B02309709F44FC081E080831092080222
:100EE0004AC08091D601813041F48091E80190910F
:100EF000E901019711F401E002C00023E1F19091B2
:100F00008301937EE091FB01FF27E75FFE4F808125
:100F1000982B909383018091F901882321F480918B
:100F2000FB018F5F03C08091FB0181508093FB0127
:100F30008091FB0183708093FB0181E08093FD0130
:100F40008091D6018130B9F480E00E943F0813C03F
:100F500090918301937EE091FB01FF27E75FFE4FB5
:100F60008081982B9093830182E08093FD01109201
:100F7000DD011092DC018091F501882309F059C050
:100F80008091DE019091DF01892BE9F4809183014A
:100F90008F71809383011092FE0180910902882352
:100FA00009F45AC06091F70181E00E94C108E09104
:100FB0000A02F0910B02309709F44EC081E0818360
:100FC0001092090249C08091D701813041F480918B
:100FD000EA019091EB01019711F411E002C0112395
:100FE000D9F1909183019F71E091FC01FF27E35FAC
:100FF000FE4F8081982B909383018091FA01882382
:1010000021F48091FC018F5F03C08091FC0181502D
:101010008093FC018091FC0183708093FC0181E04E
:101020008093FE018091D7018130B1F40E943F0886
:1010300013C0909183019F71E091FC01FF27E35F52
:10104000FE4F8081982B9093830182E08093FE0174
:101050001092DF011092DE018091FF01882331F4AC
:10106000412F602F83E891E00E94BE0988B1837010
:1010700090918301892B88B91F910F9108951F9337
:10108000182F882321F0813009F04DC027C08091AE
:10109000E8019091E901892B49F08091E801909154
:1010A000E90101979093E9018093E801809108029A
:1010B0008823C9F52091E8013091E9018091EC0184
:1010C0009091ED012817390771F560E070E080E03C
:1010D0000E94950881E08093080225C08091EA0172
:1010E0009091EB01892B49F08091EA019091EB01FD
:1010F00001979093EB018093EA0180910902882384
:1011000091F42091EA013091EB018091EE019091F0
:10111000EF012817390739F460E070E081E00E94A0
:101120009508109309021F910895982F81E08093EC
:101130000C0281E06139780710F060E971E09130CC
:1011400061F0913018F09230C9F40EC0F8947093A9
:10115000D9016093D801789411C0F8947093DB01A1
:101160006093DA0178940AC0F8947093D90160937F
:10117000D8017093DB016093DA01789410920C022D
:1011800008950F931F93182F062F662349F460E0EC
:1011900070E00E94950860E070E0812F0E94560A7E
:1011A00081E080930C02113051F0113018F01230B0
:1011B00041F403C00093F40104C00093F4010093D0
:1011C000F50110920C021F910F910895FF920F9359
:1011D0001F93CF93DF938091D301882309F459C0E3
:1011E0000091D4011091D501F801C081D1818C8189
:1011F0009D8101979D838C83181619060CF449C0B4
:10120000898180FF05C08E81882311F481E08E835F
:10121000898181FF03C0EF81F88509958091D30111
:101220008230A8F0F801828193819093D501809358
:10123000D40113821282E0910000F09101008481B8
:101240009581181619063CF081E0F82E05C0109221
:10125000D5011092D401FF248091D3018150809355
:10126000D3018091D301882311F40E94520989810E
:1012700082FF08C08A819B819D838C83C8010E9464
:10128000550908C0C8010E94500B89818F7E89834F
:1012900001C0FF248F2D9927DF91CF911F910F91CE
:1012A000FF900895109272010895CF92DF92EF920D
:1012B000FF920F931F93CF93DF93EC018091D301A3
:1012C000882339F4D093D501C093D4010E94710AC8
:1012D00047C0C090D401D090D50100E010E0EE24CA
:1012E000FF2429C0A881B981FD0164817581F601BF
:1012F00040815181FA01848195819B01281B390B22
:1013000037FF0AC0861B970B95838483DB82CA82D2
:10131000012BF1F0F70122C0F601828193812115A2
:10132000310581F0FD01358324830097B1F00F5F13
:101330001F4F76016C018091D30199270817190777
:1013400088F20BC0FD01158214829B838A8305C03D
:10135000D093D501C093D40103C0F601D383C283D7
:101360008091D3018F5F8093D301DF91CF911F9143
:101370000F91FF90EF90DF90CF900895FC01809146
:10138000FD01823069F48091870191E08927809383
:101390008701882309F03EC08081837E80833AC024
:1013A0008091DC019091DD01C397A4F56623D1F013
:1013B0002091DC013091DD0180E690E0BC01269FA8
:1013C000C001279F900D369F900D1124880F892F03
:1013D000881F990B9093F1018093F00181E0809335
:1013E000850118C0809185018823A1F08091F001CA
:1013F0009091F10101979093F1018093F001809118
:10140000F0019091F101892B29F48081837E808302
:10141000109285018091FE01823069F480918601ED
:1014200091E0892780938601882309F03EC080815E
:101430008F71808308958091DE019091DF01C397C1
:10144000A4F54423D1F02091DE013091DF0180E644
:1014500090E0AC01249FC001259F900D349F900D1A
:101460001124880F892F881F990B9093F301809383
:10147000F20181E0809384010895809184018823A2
:10148000A1F08091F2019091F30101979093F30103
:101490008093F2018091F2019091F301892B29F45C
:1014A00080818F718083109284010895982F81E04C
:1014B00080930C02913071F0913018F0923071F4F9
:1014C00005C07093E9016093E80108C07093E901D9
:1014D0006093E8017093EB016093EA0110920C02B3
:1014E000089581E080937201089520918C0126FD7A
:1014F00006C085E290E0909389018093880125FDE4
:1015000006C080E590E0909389018093880127FDD3
:1015100006C085E790E0909389018093880124FDBF
:1015200006C080E091E090938901809388018091CA
:1015300088019091890108950E94660098EF91B901
:101540008130A9F48091880190918901019790934D
:10155000890180938801892B09F4139A8AE891E024
:101560000E948500813071F70E94750AF7CF0895B7
:10157000CF93DF938230910510F482E090E0E09108
:101580001102F091120220E030E0A0E0B0E03097CC
:1015900039F14081518148175907B8F04817590768
:1015A00071F482819381109729F013969C938E9306
:1015B00012972CC0909312028093110227C021151C
:1015C000310531F04217530718F0A901DB0101C0C2
:1015D000EF019A01BD01DF010280F381E02DD7CF39
:1015E00021153105F9F0281B390B2430310580F421
:1015F0008A819B816115710521F0FB0193838283B0
:1016000004C09093120280931102FE01329644C0EE
:10161000FE01E20FF31F8193919322503109398328
:1016200028833AC020910F0230911002232B41F4FD
:1016300020911301309114013093100220930F0276
:1016400020911101309112012115310541F42DB77E
:101650003EB74091150150911601241B350BE091C6
:101660000F02F0911002E217F307A0F42E1B3F0BBC
:101670002817390778F0AC014E5F5F4F2417350704
:1016800048F04E0F5F1F5093100240930F0281935A
:10169000919302C0E0E0F0E0CF01DF91CF91089597
:1016A000CF93DF93009709F487C0FC013297138230
:1016B0001282C0911102D0911202209781F42081F0
:1016C0003181280F391F80910F02909110028217EB
:1016D000930779F5F0931002E0930F026DC0DE01DD
:1016E00020E030E0AE17BF0750F412964D915C91A8
:1016F00013979D014115510509F1DA01F3CFB38329
:10170000A28340815181840F951F8A179B0771F432
:101710008D919C911197840F951F029691838083E0
:1017200012968D919C911397938382832115310595
:1017300029F4F0931202E09311023EC0D9011396EE
:10174000FC93EE9312974D915D91A40FB51FEA178C
:10175000FB0779F480819181840F951F0296D9014E
:1017600011969C938E938281938113969C938E9372
:101770001297E0E0F0E08A819B81009719F0FE016A
:10178000EC01F9CFCE01029628813981820F931F97
:1017900020910F02309110022817390769F4309711
:1017A00029F4109212021092110202C013821282C6
:1017B000D0931002C0930F02DF91CF910895ACE057
:1017C000B0E0E5EEFBE00C94570E7C016B018A0162
:1017D000FC0117821682838181FFBDC1CE01019673
:1017E0004C01F7019381F60193FD859193FF81915F
:1017F0006F01882309F4ABC1853239F493FD8591DB
:1018000093FF81916F01853229F4B70190E00E9426
:10181000C70DE7CF512C312C20E02032A0F48B32C1
:1018200069F030F4803259F0833269F420612CC0C1
:101830008D3239F0803339F4216026C02260246073
:1018400023C0286021C027FD27C030ED380F3A3073
:1018500078F426FF06C0FAE05F9E300D1124532E67
:1018600013C08AE0389E300D1124332E20620CC044
:101870008E3221F426FD6BC1206406C08C3611F433
:10188000206802C0883641F4F60193FD859193FFEC
:1018900081916F018111C1CF982F9F7D9554933015
:1018A00028F40C5F1F4FFFE3F9830DC0833631F03E
:1018B000833771F0833509F05BC022C0F801808165
:1018C00089830E5F1F4F44244394512C540115C04B
:1018D0003801F2E06F0E711CF801A080B18026FF84
:1018E00003C0652D70E002C06FEF7FEFC5012C874C
:1018F0000E94BC0D2C0183012C852F77222E17C04E
:101900003801F2E06F0E711CF801A080B18026FF53
:1019100003C0652D70E002C06FEF7FEFC5012C871B
:101920000E94B10D2C012C852068222E830123FCFE
:101930001BC0832D90E048165906B0F4B70180E231
:1019400090E00E94C70D3A94F4CFF50127FC8591F1
:1019500027FE81915F01B70190E00E94C70D311011
:101960003A94F1E04F1A51084114510471F7E5C05F
:10197000843611F0893639F5F80127FF07C06081F8
:101980007181828193810C5F1F4F08C060817181DA
:10199000882777FD8095982F0E5F1F4F2F76B22EE8
:1019A00097FF09C090958095709561957F4F8F4FF7
:1019B0009F4F2068B22E2AE030E0A4010E94F90D6A
:1019C000A82EA81844C0853729F42F7EB22E2AE00D
:1019D00030E025C0F22FF97FBF2E8F36C1F018F40A
:1019E000883579F0B4C0803719F0883721F0AFC05E
:1019F0002F2F2061B22EB4FE0DC08B2D8460B82E27
:101A000009C024FF0AC09F2F9660B92E06C028E0A7
:101A100030E005C020E130E002C020E132E0F80112
:101A2000B7FE07C060817181828193810C5F1F4F77
:101A300006C06081718180E090E00E5F1F4FA401BD
:101A40000E94F90DA82EA818FB2DFF77BF2EB6FE19
:101A50000BC02B2D2E7FA51450F4B4FE0AC0B2FC8F
:101A600008C02B2D2E7E05C07A2C2B2D03C07A2C7E
:101A700001C0752C24FF0DC0FE01EA0DF11D80810F
:101A8000803311F4297E09C022FF06C07394739439
:101A900004C0822F867809F0739423FD13C020FFC1
:101AA00006C05A2C731418F4530C5718732C731463
:101AB00068F4B70180E290E02C870E94C70D739410
:101AC0002C85F5CF731410F4371801C0312C24FF86
:101AD00012C0B70180E390E02C870E94C70D2C85CF
:101AE00022FF17C021FF03C088E590E002C088E70D
:101AF00090E0B7010CC0822F867859F021FD02C01A
:101B000080E201C08BE227FD8DE2B70190E00E94E8
:101B1000C70DA51438F4B70180E390E00E94C70D0B
:101B20005A94F7CFAA94F401EA0DF11D8081B70110
:101B300090E00E94C70DA110F5CF332009F451CEDB
:101B4000B70180E290E00E94C70D3A94F6CFF7010A
:101B50008681978102C08FEF9FEF2C96E2E10C9473
:101B6000730EFC010590615070400110D8F780950C
:101B700090958E0F9F1F0895FC0161507040019059
:101B80000110D8F7809590958E0F9F1F08950F93A1
:101B90001F93CF93DF93182F092FEB018B8181FDCA
:101BA00003C08FEF9FEF20C082FF10C04E815F8186
:101BB0002C813D81421753077CF4E881F9819F0114
:101BC0002F5F3F4F39832883108306C0E885F9854E
:101BD000812F0995892B29F72E813F812F5F3F4F58
:101BE0003F832E83812F902FDF91CF911F910F91F3
:101BF0000895FA01AA27283051F1203181F1E894A3
:101C00006F936E7F6E5F7F4F8F4F9F4FAF4FB1E0EF
:101C10003ED0B4E03CD0670F781F891F9A1FA11DEA
:101C2000680F791F8A1F911DA11D6A0F711D811DEB
:101C3000911DA11D20D009F468943F912AE0269FB0
:101C400011243019305D3193DEF6CF010895462F0F
:101C50004770405D4193B3E00FD0C9F7F6CF462FF0
:101C60004F70405D4A3318F0495D31FD4052419359
:101C700002D0A9F7EACFB4E0A69597958795779516
:101C80006795BA95C9F700976105710508959B019D
:101C9000AC010A2E06945795479537952795BA9526
:101CA000C9F7620F731F841F951FA01D08952F92FF
:101CB0003F924F925F926F927F928F929F92AF92DC
:101CC000BF92CF92DF92EF92FF920F931F93CF9329
:101CD000DF93CDB7DEB7CA1BDB0B0FB6F894DEBFC0
:101CE0000FBECDBF09942A88398848885F846E84E6
:101CF0007D848C849B84AA84B984C884DF80EE8030
:101D0000FD800C811B81AA81B981CE0FD11D0FB638
:101D1000F894DEBF0FBECDBFED010895F894FFCF5C
:101D2000014200000000000000180C041060C08098
:081D3000200000130220000056
:00000001FF
