:100000000C948A020C94A7020C94A7020C94A702E9
:100010000C94620C0C948B0C0C94B40C0C94DD0CB2
:100020000C94A7020C94430B0C946C0B0C94950B42
:100030000C94100C0C94BE0B0C94E70B0C94390C24
:100040000C94C80A0C94F10A0C941A0B0C94A70295
:100050000C94A7020C94A7020C94A7020C94A7027C
:100060000C94A7020C94A7020C94A7020C94A7026C
:100070000C94A7020C94A7020C94A70207634236C3
:10008000B79BD8A71A39685618AEBAAB558C1D3C29
:10009000B7CC5763BD6DEDFD753EF6177231BF00ED
:1000A0000000803F08000000BE922449123EABAA27
:1000B000AA2ABECDCCCC4C3E00000080BEABAAAA82
:1000C000AA3E00000000BF000000803F00000000CA
:1000D00000084178D3BB4387D1133D190E3CC3BD03
:1000E0004282AD2B3E68EC8276BED98FE1A93E4CB0
:1000F00080EFFFBE01C4FF7F3F0000000000160537
:100100000100000000000000FA000000E000E00034
:1001100028FE28FE282454FE5448C4C81026466CE5
:1001200092AA44A000A0C0000000384482000082CF
:1001300044380028107C102810107C1010000A0C85
:100140000000101010101000060600000408102017
:10015000407C8A92A27C0042FE020042868A926221
:100160008482A2D28C182848FE08E4A2A2A29C3C59
:100170005292920C808E90A0C06C9292926C60927F
:10018000929478006C6C0000006A6C0000102844A7
:1001900082002828282828008244281040808A903D
:1001A000604C929E827C7E8888887EFE9292926CC1
:1001B0007C82828244FE82824438FE92929282FE47
:1001C000909090807C8292925EFE101010FE0082D1
:1001D000FE8200040282FC80FE10284482FE02029D
:1001E0000202FE403040FEFE201008FE7C82828229
:1001F0007CFE909090607C828A847AFE90989462D3
:10020000629292928C8080FE8080FC020202FCF856
:10021000040204F8FC021C02FCC6281028C6E010E8
:100220000E10E0868A92A2C200FE82820040201058
:100230000804008282FE0020408040200202020268
:10024000020080402000042A2A2A1EFE1222221CBC
:100250001C222222041C222212FE1C2A2A2A1810E6
:100260007E908040304A4A4A7CFE1020201E0022A8
:10027000BE0200040222BC00FE081422000082FE1E
:1002800002003E2018201E3E1020201E1C2222228A
:100290001C3E28282810102828183E3E1020201028
:1002A000122A2A2A0420FC2202043C0202043E38BC
:1002B000040204383C020C023C2214081422300AC6
:1002C0000A0A3C22262A322200106C82000000FE1C
:1002D000000000826C1000081010081000000000E0
:1002E000007F8181817F7F8383837F7F8787877F73
:1002F0007F8F8F8F7F7F9F9F9F7F7FBFBFBF7F7FBE
:10030000FFFFFF7F2040FF4020621517156500FBAF
:10031000FB00000000000000C0FF0300E0FF07003A
:10032000F0FF0F00F8FF1F0078001E0078001E008D
:1003300078001E0078001E0078001E0078001E0065
:1003400078001E0078001E0078001E0000000000EB
:100350000000000080FF0300E0FF0700F0FF0F0037
:10036000F8FF1F00F83C1F00783C1E00783C1E0080
:10037000783C1E00783C1E00783C1E00783C1E0035
:10038000783C1E00783C1E00783C1E00783C1E0025
:100390000000000000000000E0FF0300F0FF070085
:1003A000F8FF0F00F8FF1F00783C1E00783C1E008D
:1003B000783C1E00783C1E00783C1E00783C1E00F5
:1003C000783C1E00783C1E00783C1E00783C1E00E5
:1003D0000000000000000000F8FF0300F8FF0F001D
:1003E000F8FF1F00F8FF1F0000001E0000001E00A5
:1003F00000801F0000F01F0000FF0F00E0FF07005B
:10040000F0FF0000F80F0000F80000007800000086
:1004100078000000F8FF1F00F8FF1F00F0FF1F002A
:10042000E0FF1F000000000000000000F8FF1F00B8
:10043000F8FF1F00F8FF1F00F8FF1F0078001E00E4
:10044000783C1E00783C1E00783C1E00783C1E0064
:10045000783C1E00783C1E00F87E1F00F8FF1F004D
:10046000F0FF0F00E0E7030000000000000038008C
:10047000EEFF6C002A8045003A0047FC03FF6CFC4D
:1004800083FF3900DEFF0B7CD0810BFCD0810BC0D9
:10049000D0810BFCD0810B7CDEFF0B0082FF39701A
:1004A00002FF6CF83A0047DC2A8045CCEEFF6CCCAA
:1004B000000038000000000C00001E0C00001E00B0
:1004C00000001E0000001E0000001E00F8FF1F00BC
:1004D000F8FF1F00F8FF1F00F8FF1F0000001E00BC
:1004E00000001E0000001E0000001E0000005E0054
:1004F0000000400000007C000000400000004000C0
:1005000000007C00000030000000100000003000FF
:1005100000007C0011241FBECFEFD8E0DEBFCDBFAE
:1005200011E0A0E0B1E0E6E7FDE302C005900D9226
:10053000A832B107D9F722E0A8E2B1E001C01D92CC
:10054000AE32B207E1F70E94A9020C94B91E0C94D6
:1005500000000E94C60A0E94B80A0E94B31680E0FA
:1005600090E008950F931F9385E00E940C08882364
:1005700011F082E07BC00E94AC03182F0E94270874
:100580001150123008F06EC08150823008F06AC0FD
:100590000E94AA0360E08EEA0E948F0360E082EA74
:1005A0000E948F0360E080EA0E948F0300E513EC55
:1005B000C8010197F1F760E080EC0E948F0360E0D2
:1005C0008FE20E948F0360E081E80E948F0360E069
:1005D00086E10E948F0360E082E20E948F03C801DF
:1005E0000197F1F760E08FEA0E948F0360E086EAEE
:1005F0000E948F0360E085EA0E948F0320E030E0D4
:10060000E8E8F3E1CF010197F1F72F5F3F4F93E067
:10061000283E3907B9F760E083EB0E948F0360E062
:1006200080E40E948F0360E083E00E943A0360E070
:1006300083E00E947D031092C6011092C8011092BF
:10064000C70180E091E090932B0280932A0288E119
:100650000E945C030E94180D60E084EA0E948F03F0
:1006600081E004C085E00E94FB0787E099271F9185
:100670000F910895FF920F931F93082FF62E85E098
:100680000E941A088823A1F01F2D1F77037060E0D5
:10069000802F806B0E948F0312951F7060E0812F66
:1006A00080610E948F0360E08F2D8F700E948F0306
:1006B0001F910F91FF9008951F93182F85E00E94BE
:1006C0001A088823C1F087E00E94EF036AE082E005
:1006D0000E944E0461EB82E00E944E04612F1132B1
:1006E00008F060E282E00E944E0489EE8A95F1F7FC
:1006F00087E00E94EF031F9108950F931F93082F27
:10070000162F85E00E941A08882331F003701F77A6
:100710001093C4010093C5011F910F9108950F9389
:100720001F93082F162F85E00E941A08882379F05E
:10073000112319F0113021F402C02B9801C02B9A1B
:1007400086E08A95F1F7602F80E00E944E041F91A9
:100750000F910895239A089582E00E940C0888233F
:1007600011F082E031C00E945D0465E77EE080E028
:100770000E94E6036DE67EE081E00E94E60365E606
:100780007EE082E00E94E60364E57EE086E00E946F
:10079000E6036DE57EE083E00E94E6036DE57EE022
:1007A00084E00E94E6036DE57EE085E00E94E603BA
:1007B0006DE57EE087E00E94E6038FEF8093C9013C
:1007C00087E00E94EF0381E099270895E82FFF2733
:1007D000EE0FFF1FE459FE4F7183608308951F934E
:1007E000182F82E00E941A08882309F455C0912F1F
:1007F00097708091C901981709F44EC09093C90170
:1008000085B1887F892B85B9933051F1943028F4D4
:10081000913051F09230B0F40EC0953079F19530AE
:1008200030F1963091F515C0E0916E01F0916F01B5
:10083000309791F130C0E0916C01F0916D013097EB
:1008400059F129C0E0917001F0917101309721F1C7
:1008500022C0E0917801F09179013097E9F01BC056
:10086000E0917201F09173013097B1F014C0E09102
:100870007401F0917501309779F00DC0E091760127
:10088000F0917701309741F006C0E0917A01F09144
:100890007B01309709F009951F9108951F93162F3A
:1008A0000E94EF0382E00E941A08882321F01EBDF7
:1008B0000DB407FEFDCF1F910895259A2698279A1B
:1008C000209A219A229A08952F923F924F925F92F6
:1008D0006F927F928F929F92AF92BF92CF92DF9250
:1008E000EF92FF920F931F93CF93DF93CDB7DEB7B5
:1008F00022970FB6F894DEBF0FBECDBF382E962ECE
:10090000242E290138011C2DBA82A982B82C6B8DA6
:100910007C8DAD8C81E0981609F1981628F092E054
:10092000991609F062C039C0B70180E00E94BA058B
:1009300041E0C42E42E0D42E31E0E32E012F93019A
:10094000A201622D80E00E947506332009F04DC09F
:1009500089819A819F938F931F9219C081E00E9491
:10096000BA0521E0C22E22E0D22E91E0E92E0A2D16
:10097000298D3A8D4F89588D682D81E00E9475062A
:10098000332099F58E8D9F8D9F938F939F920E9418
:100990008C070F900F900F9028C0C7010E94DB05B5
:1009A00081E092E09F938F9381E0882EC98CDA8C4E
:1009B000EF88F88C0B2D212FA301B201822D0E940C
:1009C00007070F900F90332081F48E8D9F8D9F939A
:1009D0008F9389819A819F938F939F920E948C0716
:1009E0000F900F900F900F900F9022960FB6F894E3
:1009F000DEBF0FBECDBFDF91CF911F910F91FF9052
:100A0000EF90DF90CF90BF90AF909F908F907F90AE
:100A10006F905F904F903F902F9008958F929F928C
:100A2000AF92BF92CF92DF92EF92FF920F931F93FC
:100A3000CF93DF93CDB7DEB7562F942EAC2DEF8535
:100A4000F889C988DA886B897C894D898130C1F140
:100A5000813030F1823009F04CC0513071F05130AA
:100A600020F0523009F045C011C0B70180E00E946B
:100A7000BA05A801692D80E006C081E00E94BA0590
:100A8000A601682D81E00E94860533C0C7010E943F
:100A9000DB059601482DB801892D0E949D0529C0CE
:100AA0008E899F899F938F934F937F936F93DF924C
:100AB000CF92FF93EF93CA2E492D652F80E00FC090
:100AC0001F921F924F937F936F93DF92CF92FF936A
:100AD000EF93AA24BB24CA2E492D652F81E00E94E2
:100AE00064048DB79EB709960FB6F8949EBF0FBEEB
:100AF0008DBFDF91CF911F910F91FF90EF90DF900D
:100B0000CF90BF90AF909F908F900895EF92FF92FB
:100B10000F931F93182F062F7A0160E00E9416068C
:100B2000602F812F0E94F705B701812F0E942B06AD
:100B30001F910F91FF90EF900895CF92DF92EF9267
:100B4000FF920F931F93C82E7B01D42E890160E082
:100B500082E00E9416066D2D8C2D0E940C06B801B5
:100B6000C7010E9457061F910F91FF90EF90DF90F1
:100B7000CF900895982F81E08093000283E0693E32
:100B8000780710F068EE73E0913071F0913018F052
:100B9000923071F405C07093D5016093D40108C000
:100BA0007093D5016093D4017093D7016093D601FF
:100BB00010920002089521E020930002F89423E0AF
:100BC000893E920710F088EE93E09093D5018093D0
:100BD000D40183E0693E780710F068EE73E070930B
:100BE000D7016093D6017894109200020895982F4F
:100BF00081E080930002913051F0913018F09230F2
:100C000041F403C06093ED0104C06093ED01609373
:100C1000EE0110920002089591E0909300028093FB
:100C2000ED016093EE01109200020895982F81E08B
:100C300080930002913051F0913018F0923041F4DD
:100C400003C06093CA0104C06093CA016093CB01E2
:100C5000109200020895982F81E08093000281E0B5
:100C60006139780710F060E971E0913061F09130FE
:100C700018F09230C9F40EC0F8947093CD016093CF
:100C8000CC01789411C0F8947093CF016093CE0199
:100C900078940AC0F8947093CD016093CC0170935E
:100CA000CF016093CE0178941092000208959C01C8
:100CB00081E080930002F89481E06139780710F0B8
:100CC00060E971E07093CF016093CE01C90121E02A
:100CD0008139920710F080E991E09093CD018093E3
:100CE000CC0178941092000208958F929F92AF9257
:100CF000BF92CF92DF92EF92FF920F931F93CF9309
:100D0000DF93182FF62E4A015901E60187E00E9471
:100D10001A08882309F46EC061E0812F0E9416062C
:100D2000A501B401812F0E9456106F2D812F0E94C2
:100D3000F705602F812F0E944110B401812F0E947E
:100D40001810CD2899F0113049F0113018F01230F8
:100D500069F406C018821092FC0108C0198204C010
:100D6000188219821092FC011092FD01D093FF01AC
:100D7000C093FE01EE20B9F588E291E09093FF0167
:100D80008093FE01B501812F0E942B06812F0E94C6
:100D90000310113071F0113018F0123059F512C0F3
:100DA000109228011092FC0180912801882311F5EE
:100DB000FBCF109229011092FD0180912901882317
:100DC000C9F4FBCF10922801109229011092FC0166
:100DD0001092FD01809128018823E1F3809129017F
:100DE0008823C1F307C0B501812F0E942B06812FF4
:100DF0000E940310DF91CF911F910F91FF90EF9010
:100E0000DF90CF90BF90AF909F908F9008953F92CA
:100E10004F925F926F927F928F929F92AF92BF920A
:100E2000CF92DF92EF92FF920F931F93CF93DF93B6
:100E3000CDB7DEB7382E2B013A01922EB02E0C8999
:100E40001D8987E00E941A08882309F453C061E0D5
:100E500082E00E941606A301B20180E00E945610B3
:100E6000A601B70181E00E9456106B2D832D0E94D0
:100E70000C06692D80E00E9441106A2D81E00E94DD
:100E80004110B701C2010E9433100115110539F05C
:100E9000F801108211821092FC011092FD01109352
:100EA000FF010093FE018820F1F48AE291E0909323
:100EB000FF018093FE01B601C3010E94570682E044
:100EC0000E94031010922A0110922B011092FC0133
:100ED0001092FD0180912A018823E1F380912B017A
:100EE0008823C1F307C0B601C3010E94570682E000
:100EF0000E940310DF91CF911F910F91FF90EF900F
:100F0000DF90CF90BF90AF909F908F907F906F9029
:100F10005F904F903F900895CF92DF92EF92FF92B3
:100F20000F931F93CF93DF93CDB7DEB722970FB602
:100F3000F894DEBF0FBECDBF1D8587E00E941A0862
:100F4000882309F449C0113099F0113020F0123093
:100F500009F042C01BC0CE0140969A838983EE857A
:100F6000FF85809101028823E1F33097A9F10CC03D
:100F7000CE0140969A838983EE85FF858091020297
:100F80008823E1F3309741F1099526C0CE84DF84B0
:100F9000CE0142969A838983E888F98800E010E0C0
:100FA000002351F480910102882331F0C114D1044F
:100FB00011F0F601099501E0112351F4809102022C
:100FC000882331F0E114F10411F0F701099511E0E3
:100FD000002331F3112321F322960FB6F894DEBFDC
:100FE0000FBECDBFDF91CF911F910F91FF90EF907A
:100FF000DF90CF900895853160F4E82FFF27ED56FC
:10100000FE4F8081882329F08081815080838081F8
:1010100001C08FEF99270895853110F080E008C056
:10102000E82FFF27ED56FE4F80818F5F8083815030
:1010300099270895853110F080E007C0E82FFF2739
:10104000ED56FE4F8081811181E099270895CF935D
:10105000DF93CDB7DEB723970FB6F894DEBF0FBE90
:10106000CDBF81E00E940C08882311F082E011C0FE
:101070000E94AC038150823040F40E945308CE019C
:1010800001960E94AA1081E004C081E00E94FB0743
:1010900087E0992723960FB6F894DEBF0FBECDBF29
:1010A000DF91CF91089510921802109217021092BA
:1010B0001A021092190210921C0210921B02109236
:1010C0001E0210921D021092200210921F0280E94F
:1010D00091E0909304028093030290930602809320
:1010E0000502909308028093070290930A0280936E
:1010F000090290930C0280930B0284E398E0909392
:101100000E0280930D029093100280930F02909331
:101110001202809311029093140280931302909311
:101120001602809315020895CF92DF92EF92FF92FC
:101130000F931F93CF93DF937B018C01EA01690129
:1011400081E0E81681EEF80680E0080780E01807E5
:1011500040F424E0EE0CFF1C001F111F2A95D1F76C
:1011600007C093E0EE0CFF1C001F111F9A95D1F7EA
:1011700060E072EC8BEE9BE0A80197010E94931A4D
:1011800079018A0186EF9FEFAFEFBFEFE80EF91EFE
:101190000A1F1B1FC801B7012AE030E040E050E001
:1011A0000E94931A653071058105910540F08AE02F
:1011B00090E0A0E0B0E0E80EF91E0A1F1B1FC80176
:1011C000B7012AE030E040E050E00E94931A288303
:1011D000232F342F452F5527D6012C93DF91CF9104
:1011E0001F910F91FF90EF90DF90CF900895AF92F5
:1011F000BF92CF92DF92EF92FF920F931F93CF9304
:10120000DF93CDB7DEB722970FB6F894DEBF0FBEDF
:10121000CDBFA82EB62ED42EC22E882329F081E071
:10122000A81609F076C03CC08DE00E941A088823F9
:1012300009F46FC01A8219821092C0001092C10086
:101240001092C2009E012F5F3F4FAE014E5F5F4F75
:10125000C801B7010E949408BB0CDD0CDD0CDD0C4D
:10126000DB28CC0CCC0CCC0CCC0CCD288A81809308
:10127000C40089818093C500C092C20081E0E81655
:1012800081EEF80680E0080780E0180728F08091DA
:10129000C00082608093C00081E08093BC0139C0AF
:1012A0008EE00E941A088823A1F119821A821092F6
:1012B000C8001092C9001092CA009E012E5F3F4FD5
:1012C000AE014F5F5F4FC801B7010E949408BB0C8D
:1012D000DD0CDD0CDD0CDB28CC0CCC0CCC0CCC0CF0
:1012E000CD2889818093CC008A818093CD00C092E3
:1012F000CA0081E0E81681EEF80680E0080780E089
:10130000180728F08091C80082608093C800A092DE
:10131000C10122960FB6F894DEBF0FBECDBFDF919C
:10132000CF911F910F91FF90EF90DF90CF90BF90E2
:10133000AF900895882319F08130A1F408C08DE0A2
:101340000E941A08882371F08091C00007C08EE0C7
:101350000E941A08882331F08091C800881F8827CE
:10136000881F01C080E099270895882321F08130EB
:10137000D9F084E037C08DE00E940C08882389F5FD
:101380001092BC011092BA011092BB010E94AB0AEC
:1013900065E070E080E00E94920A28EE33E041E0D0
:1013A00061E081EB91E019C08EE00E940C08882377
:1013B000C1F41092C1011092BF011092C00181E0EE
:1013C0000E94AB0A65E070E081E00E94920A28EE7C
:1013D00033E041E061E088EA91E00E94151181E08C
:1013E00001C082E099270895CF93DF93EB01882312
:1013F00019F08130E9F51EC08DE00E941A0888239B
:10140000B9F12091BD013091BE018091BB018130C5
:1014100079F50CC08091B701882321F0215030402C
:101420001092B7018091C00087FD24C012161306E8
:101430008CF328C08EE00E941A088823C9F02091FE
:10144000C2013091C3018091C001813089F40CC088
:101450008091AE01882321F0215030401092AE01DE
:101460008091C80087FD09C0121613068CF30AC0CC
:1014700081E009C08091C60002C08091CE008883BF
:1014800080E001C083E09927DF91CF9108950F9309
:101490001F93182F062F882331F48DE00E941A081D
:1014A000882341F43CC0813029F48EE00E941A0860
:1014B0008823A9F10023F9F0013089F5112319F0EF
:1014C000113069F50CC09091BC01913041F58091CB
:1014D000C10080618093C1009093BB0120C08091C6
:1014E000C1018130E1F48091C90080618093C9001D
:1014F0001093C00114C0112319F0113081F408C0F9
:101500008091C1008F7E8093C1001092BB0107C003
:101510008091C9008F7E8093C9001092C0011F91F5
:101520000F91089577FF03C060E070E005C06F3150
:10153000710514F06EE170E0882319F0813051F4E8
:1015400005C07093BE016093BD0108957093C301FF
:101550006093C2010895882319F0813041F404C0DA
:10156000519A5098599A0895539A52985B9A0895AF
:101570000E9493100E94F20D0E94060D0E945411C9
:101580000E94AC030E9427087894089500000895F3
:101590001F920F920FB60F9211242F933F934F93E8
:1015A0005F936F937F938F939F93AF93BF93EF93CB
:1015B000FF93E0914C01F0914D01309709F00995AE
:1015C000FF91EF91BF91AF919F918F917F916F911B
:1015D0005F914F913F912F910F900FBE0F901F90F1
:1015E00018951F920F920FB60F9211242F933F93CD
:1015F0004F935F936F937F938F939F93AF93BF931B
:10160000EF93FF93E0914E01F0914F01309709F075
:101610000995FF91EF91BF91AF919F918F917F912C
:101620006F915F914F913F912F910F900FBE0F904F
:101630001F9018951F920F920FB60F9211242F939F
:101640003F934F935F936F937F938F939F93AF934A
:10165000BF93EF93FF93E0915001F09151013097C8
:1016600009F00995FF91EF91BF91AF919F918F91F3
:101670007F916F915F914F913F912F910F900FBE8E
:101680000F901F9018951F920F920FB60F92112472
:101690002F933F934F935F936F937F938F939F937A
:1016A000AF93BF93EF93FF93E0913E01F0913F0121
:1016B000309709F00995FF91EF91BF91AF919F91FC
:1016C0008F917F916F915F914F913F912F910F90EB
:1016D0000FBE0F901F9018951F920F920FB60F928A
:1016E00011242F933F934F935F936F937F938F9327
:1016F0009F93AF93BF93EF93FF93E0914001F091DD
:101700004101309709F00995FF91EF91BF91AF9199
:101710009F918F917F916F915F914F913F912F9109
:101720000F900FBE0F901F9018951F920F920FB63B
:101730000F9211242F933F934F935F936F937F9357
:101740008F939F93AF93BF93EF93FF93E0914201E9
:10175000F0914301309709F00995FF91EF91BF9106
:10176000AF919F918F917F916F915F914F913F9139
:101770002F910F900FBE0F901F9018951F920F92F0
:101780000FB60F9211242F933F934F935F936F9354
:101790007F938F939F93AF93BF93EF93FF93E091CA
:1017A0004601F0914701309709F00995FF91EF91BB
:1017B000BF91AF919F918F917F916F915F914F9169
:1017C0003F912F910F900FBE0F901F9018951F9271
:1017D0000F920FB60F9211242F933F934F935F9365
:1017E0006F937F938F939F93AF93BF93EF93FF93E9
:1017F000E0914801F0914901309709F00995FF9176
:10180000EF91BF91AF919F918F917F916F915F9178
:101810004F913F912F910F900FBE0F901F901895F1
:101820001F920F920FB60F9211242F933F934F9355
:101830005F936F937F938F939F93AF93BF93EF9338
:10184000FF93E0914401F0914501309709F009952B
:10185000FF91EF91BF91AF919F918F917F916F9188
:101860005F914F913F912F910F900FBE0F901F905E
:1018700018951F920F920FB60F9211242F933F933A
:101880004F935F936F937F938F939F93AF93BF9388
:10189000EF93FF93E0914A01F0914B01309709F0EB
:1018A0000995FF91EF91BF91AF919F918F917F919A
:1018B0006F915F914F913F912F910F900FBE0F90BD
:1018C0001F9018951F920F920FB60F9211242F930D
:1018D0003F934F935F936F937F938F939F93AF93B8
:1018E000BF93EF93FF93E0913401F091350130976E
:1018F00009F00995FF91EF91BF91AF919F918F9161
:101900007F916F915F914F913F912F910F900FBEFB
:101910000F901F9018951F920F920FB60F921124DF
:101920002F933F934F935F936F937F938F939F93E7
:10193000AF93BF93EF93FF93E0913601F09137019E
:10194000309709F00995FF91EF91BF91AF919F9169
:101950008F917F916F915F914F913F912F910F9058
:101960000FBE0F901F9018951F920F920FB60F92F7
:1019700011242F933F934F935F936F937F938F9394
:101980009F93AF93BF93EF93FF93E0913801F09152
:101990003901309709F00995FF91EF91BF91AF910F
:1019A0009F918F917F916F915F914F913F912F9177
:1019B0000F900FBE0F901F9018951F920F920FB6A9
:1019C0000F9211242F933F934F935F936F937F93C5
:1019D0008F939F93AF93BF93EF93FF93E0913A015F
:1019E000F0913B01309709F00995FF91EF91BF917C
:1019F000AF919F918F917F916F915F914F913F91A7
:101A00002F910F900FBE0F901F90189580E10E94AC
:101A10000C08882311F082E009C0ECE2F1E0119299
:101A2000119281E0EC36F807D1F781E0992708950B
:101A30001F93CF93DF9385E00E941A088823D1F08B
:101A400060E080E40E948F03C0E0D0E060E08C2F73
:101A50000E943A0310E061E080E00E948F031F5F64
:101A60001038C9F72196C430D10581F760E083E0D2
:101A70000E947D03DF91CF911F9108950F931F93D3
:101A8000CF93DF93082F11278A3091F08B3040F4E9
:101A9000883091F1893020F5873009F049C037C08E
:101AA0008D3049F08B3181F08C3009F041C006C097
:101AB0001092C40103C01092C4017AC08091C50184
:101AC00081508093C50174C00E94180D7DC061E0F3
:101AD00080E00E948F038091C4018F5F8093C401D6
:101AE0008091C40187FFF3CF1092C4018091C5019A
:101AF00081508093C50168C08091C401882309F496
:101B000057C08091C40186508093C40151C081E0C8
:101B10000E94540F24E630E04DE750E064EF71E09E
:101B200080E090E00E94610F81E00E94A50E40C01D
:101B30006091C4018091C5010E943A03E801CC0F75
:101B4000DD1FCC0FDD1FC00FD11FCF59DF4F10E0BD
:101B5000FE01849161E00E948F031F5F2196153082
:101B6000B9F761E080E00E948F038091C4018A5F31
:101B70008093C4018091C40199278C3791053CF072
:101B80001092C4018091C50181508093C50180915C
:101B9000C50183708093C5018091C6018130D9F45D
:101BA000E091C701F091C8013097A9F0099513C0E1
:101BB0006091C4018091C5010E943A038091C501E2
:101BC00083708093C50107C06091C4018091C501F5
:101BD0000E943A03DCCF80E090E0DF91CF911F912B
:101BE0000F910895F8940E94510E81E00E94FB0D20
:101BF00081E090E00895813071F0F894813059F0DF
:101C0000813030F08230C9F0833009F046C01AC00C
:101C100080E090E020C02C9A80E8809361001092D0
:101C2000610080E090E00000019688329105D9F7CC
:101C30001092680010926B00089580E88093610014
:101C400083E004C080E88093610088E080936100B5
:101C500026C0000001962DE680369207D1F72C9819
:101C600080E090E0000001962DE680369207D1F7E3
:101C700010927A008FEF80936400809168008160F9
:101C80008093680080916B00846080936B007894EF
:101C900083B7816083BF88950895823008F0789477
:101CA0000895249A2C9A089583E58CBD81E08DBD1A
:101CB00084EF91E00197F1F7089583E58CBD81E011
:101CC0008DBD8DE08A95F1F7089583E58CBD1DBC2F
:101CD00084EF91E00197F1F708958FE78CBD1DBC6B
:101CE00084EF91E00197F1F7089583E58CBD81E0E1
:101CF0008DBD8DE08A95F1F708958AE00E94FB077B
:101D0000882329F481E00E94B70F10927D01089585
:101D100089E00E94FB078823B9F480917C01882325
:101D200011F00E94FD0F82E00E94B70F80918A019E
:101D300090918B01009731F00E94671B10928B01EC
:101D400010928A0110927C010895813029F082302E
:101D500029F40E94880E08950E947D0E0895CF9266
:101D6000DF92EF92FF920F931F93CF93DF9380E266
:101D700091E00E94CF1AEC0190938B0180938A012D
:101D8000892B11F480E044C0CC24DD24EE24FF2410
:101D90008701C801B7010E94F517D7FE06C020E0F1
:101DA00030E040E857E40E94271720E030E040EAA6
:101DB00051E40E948B1727EF35E740E05FE30E9474
:101DC000BB189B01AC0160E070E080E291E40E94EE
:101DD0001E192DEC3CEC42E851E40E94BB180E9415
:101DE00081182AE030E040E050E00E94831A6993B5
:101DF0007993899399930894C11CD11C0894E11C90
:101E0000F11C011D111D88E4C816D10411F681E0F2
:101E10009927DF91CF911F910F91FF90EF90DF9065
:101E2000CF9008958AE00E940C08882311F082E088
:101E30000AC0109287011092860181E00E94D30FA0
:101E400081E080937D01992708951F9389E00E9486
:101E50000C08882311F082E024C08BE00E941A084D
:101E60008823D9F40E94AF0E182F813011F086E03C
:101E700018C010927E0110927F0110928001109282
:101E800081016DE172E18DE00E94E91182E00E9422
:101E9000D30F10937C0181E004C089E00E94FB070E
:101EA00087E099271F910895813021F0823029F031
:101EB00084E005C00E94120F02C00E94250F9927DE
:101EC00008956F927F928F929F92AF92BF92CF921E
:101ED000DF92EF92FF920F931F93CF93DF933B011B
:101EE0004C015A01E9018AE00E941A08882381F115
:101EF000209741F1B501882777FD8095982F9E01A5
:101F0000C536D10510F024E630E0442755270E945D
:101F1000831A24E630E040E050E00E94931A7901F1
:101F20008A01C401B3010E942012C7010E94E71078
:101F300060E070E080E090E00E942012C5018E1900
:101F40009F0904C0A114B10419F0C5010E94E71053
:101F5000DF91CF911F910F91FF90EF90DF90CF9085
:101F6000BF90AF909F908F907F906F900895823038
:101F700029F4809181008E7F8093810080917C0183
:101F8000813031F480917D01813011F40000089599
:101F900080917C01813021F080917D01813011F4AC
:101FA0005F9857980895982F80917C01882331F489
:101FB00080917D01882311F4579A5F9880917C016C
:101FC0008823D1F49230C1F41092800010928100E5
:101FD0008091810088608093810080918100816080
:101FE00080938100109285001092840081E080939C
:101FF000890080E9809388000895EFE6F0E0808111
:102000008D7F80830895982F81E080930002913026
:1020100051F0913018F0923041F403C01092E80171
:1020200004C01092E8011092E90110920002089594
:10203000982F81E080930002913071F0913018F078
:10204000923071F405C07093DD016093DC0108C02B
:102050007093DD016093DC017093DF016093DE011A
:1020600010920002089521E0209300029093DD0178
:102070008093DC017093DF016093DE011092000217
:102080000895982F81E080930002913051F09130B3
:1020900018F0923041F403C06093EA0104C06093E9
:1020A000EA016093EB011092000208950F931F93D1
:1020B000CF93DF938B01EA01813031F1813018F049
:1020C000823061F513C08091D4019091D501892BA4
:1020D00011F080E008C01092E1011092E0011EC0F2
:1020E000AE01B80181E00E94851218C08091D40130
:1020F0009091D501892B21F080E00E94851204C0C7
:102100001092E1011092E0018091D6019091D701E7
:10211000892B31F71092E3011092E201DF91CF9108
:102120001F910F910895CF93DF93C0E0D0E060E05E
:102130008C2F0E94A2102196C531D105C1F7DF91E5
:10214000CF910895853128F4E82FFF27ED56FE4FF3
:10215000608308951F93CF93DF93EC01892B99F14E
:1021600081E00E941A08882351F187E00E94EF0362
:1021700018EC812F8A95F1F76AE082E00E944E0404
:1021800064EB82E00E944E04812F8A95F1F760E0B3
:1021900082E00E940C128883812F8A95F1F760E01B
:1021A00082E00E940C1289831A95F1F760E082E0C8
:1021B0000E940C128A8387E00E94EF0304C01882F9
:1021C00019828DE28A83DF91CF911F9108950F9339
:1021D0001F93CF93DF93CDB7DEB729970FB6F8944F
:1021E000DEBF0FBECDBF8C0188E00E941A08882395
:1021F00011F491E00DC0980140E061E0CE0101963C
:102200000E941511982F882319F48F818823E9F3F0
:10221000892F992729960FB6F894DEBF0FBECDBF40
:10222000DF91CF911F910F910895EF92FF920F933D
:102230001F93CF93DF93EC01F62EE42E890188E003
:102240000E941A08882311F481E026C084E090E0FF
:102250000E94CF1AFC01892B11F482E01DC0F98283
:10226000F0FC1E8281E0E81619F48981846089837C
:102270008981886089831B830A831D830C83D183B2
:10228000C0831382128281E080938C01CF010E946F
:102290007A1110928C0180E09927DF91CF911F91E4
:1022A0000F91FF90EF90089588E00E940C0888231A
:1022B00011F082E014C010922102109223021092B9
:1022C000220210928C0110928D0160EF72E180E188
:1022D0000E94FC110E9471110E94E31181E0992774
:1022E000089584B5826084BD85B5846085BD8EE423
:1022F00087BD0895CF92DF92EF92FF920F931F93C5
:10230000CF93DF93EC0180912102882339F4D0939D
:102310002302C09322020E94F71247C0C0902202FB
:10232000D090230200E010E0EE24FF2429C0A88111
:10233000B981FD0164817581F60140815181FA0105
:10234000848195819B01281B390B37FF0AC0861BAE
:10235000970B95838483DB82CA82012BF1F0F7010E
:1023600022C0F601828193812115310581F0FD01A2
:10237000358324830097B1F00F5F1F4F76016C0106
:102380008091210299270817190788F20BC0FD01D7
:10239000158214829B838A8305C0D0932302C09345
:1023A000220203C0F601D383C283809121028F5F92
:1023B00080932102DF91CF911F910F91FF90EF90B9
:1023C000DF90CF900895EEE6F0E080818260808318
:1023D0000895E82F803268F48051833050F0FF2751
:1023E000EE0FFF1FE45DFE4F80819181718360835A
:1023F000089580E090E00895803218F080E090E049
:102400000895E82FFF27EE0FFF1FE45DFE4F808148
:1024100091817183608308951F93162F0E94EF03AB
:1024200082E00E941A08882329F01EBD0DB407FE21
:10243000FDCF8EB599271F9108950E9444120895EB
:10244000EF92FF920F931F937B018C018AE00E9411
:102450001A088823A1F080917D01882381F0D8019A
:10246000C701880F991FAA1FBB1F909389018093F2
:102470008801E114F1040105110509F45F981F9129
:102480000F91FF90EF90089580917E0190917F01D0
:10249000A0918001B091810120918201309183014E
:1024A0004091840150918501820F931FA41FB51F95
:1024B00080937E0190937F01A0938001B09381016E
:1024C00080917E0190917F01A0918001B091810166
:1024D0008851964FA040B040BCF08BB180588BB96A
:1024E00080917E0190917F01A0918001B091810146
:1024F0008851964FA040B04080937E0190937F0119
:10250000A0938001B09381010895EF92FF920F9301
:102510001F93CF93DF93EB01882321F0813009F0E3
:1025200058C02CC0CA019C0144275527CA01B901D3
:102530000E94831A2091D4013091D501220F331FBC
:10254000442755270E94931A79018A01220F331FCD
:10255000441F551FCE01AA27BB2782179307A40744
:10256000B50728F0F092E101E092E00132C0D69583
:10257000C795D093E101C093E0012BC0CA019C0133
:1025800044275527CA01B9010E94831A2091D60118
:102590003091D701220F331F442755270E94931AE9
:1025A00079018A01220F331F441F551FCE01AA272C
:1025B000BB2782179307A407B50728F0F092E30121
:1025C000E092E20106C0D695C795D093E301C0938F
:1025D000E201DF91CF911F910F91FF90EF9008954D
:1025E0000E94FB120E943C130E941513089581E083
:1025F00080938D01089588E00E941A08882311F4C1
:1026000084E011C080918D01882311F483E00BC018
:1026100080918C01882311F082E005C00E94AC15E6
:102620008130E1F380E09927089580917D01813028
:1026300011F5809186019091870120918801309158
:102640008901820F931F9093870180938601809167
:10265000860190918701885E93406CF08BB1805821
:102660008BB98091860190918701885E9340909309
:10267000870180938601089587E00E941A088823C5
:1026800009F4AAC08091D4019091D501892B09F158
:102690008091F8019091F9012091D4013091D501F8
:1026A000820F931F9093F9018093F8018091F801B4
:1026B0009091F901885E9340A4F08091F801909187
:1026C000F901885E93409093F9018093F80141E00D
:1026D00009C08091CC019091CD019093D10180935C
:1026E000D00140E08091D6019091D701892B09F16A
:1026F0008091FA019091FB012091D6013091D70190
:10270000820F931F9093FB018093FA018091FA014D
:102710009091FB01885E9340A4F08091FA01909122
:10272000FB01885E93409093FB018093FA0161E086
:1027300009C08091CE019091CF019093D3018093F5
:10274000D20160E0842F0E94ED138091F4019091FA
:10275000F5012091D0013091D101820F931F909308
:10276000F5018093F4018091F4019091F501885E68
:10277000934014F440E00BC08091F4019091F50176
:10278000885E93409093F5018093F40141E080913D
:10279000F6019091F7012091D2013091D301820F7F
:1027A000931F9093F7018093F6018091F601909129
:1027B000F701885E934014F460E00BC08091F6014D
:1027C0009091F701885E93409093F7018093F60112
:1027D00061E0842F0E94321408958823F1F0209143
:1027E000CC013091CD018091D0019091D101281B75
:1027F000390B1216130634F48091D0019091D10157
:10280000019607C0232B49F08091D0019091D1010E
:1028100001979093D1018093D001662311F120910B
:10282000CE013091CF018091D2019091D301281B2C
:10283000390B1216130654F48091D2019091D301F2
:1028400001969093D3018093D2010895232B49F0F0
:102850008091D2019091D30101979093D3018093FD
:10286000D20108950F931F93082F162F8091000215
:10287000882309F0E3C08091E801882309F05AC059
:102880008091D0019091D101892BE9F480918E0142
:10289000837E80938E011092F1018091FC01882348
:1028A00009F45BC06091EA0180E00E948715E09125
:1028B000FE01F091FF01309709F44FC081E0808361
:1028C0001092FC014AC08091CA01813041F480918C
:1028D000DC019091DD01019711F401E002C00023B9
:1028E000E1F190918E01937EE091EF01FF27E25F8D
:1028F000FE4F8081982B90938E018091ED0188236B
:1029000021F48091EF018F5F03C08091EF0181502E
:102910008093EF018091EF0183708093EF0181E05C
:102920008093F1018091CA018130B9F480E00E9466
:10293000311513C090918E01937EE091EF01FF2736
:10294000E25FFE4F8081982B90938E0182E080930E
:10295000F1011092D1011092D0018091E9018823F8
:1029600009F059C08091D2019091D301892BE9F4EB
:1029700080918E018F7180938E011092F20180916F
:10298000FD01882309F45AC06091EB0181E00E94A7
:102990008715E091FE01F091FF01309709F44EC0D8
:1029A00081E081831092FD0149C08091CB0181308B
:1029B00041F48091DE019091DF01019711F411E063
:1029C00002C01123D9F190918E019F71E091F00125
:1029D000FF27EE5EFE4F8081982B90938E018091B1
:1029E000EE01882321F48091F0018F5F03C0809174
:1029F000F00181508093F0018091F0018370809309
:102A0000F00181E08093F2018091CB018130B1F43B
:102A10000E94311513C090918E019F71E091F001D9
:102A2000FF27EE5EFE4F8081982B90938E0182E00F
:102A30008093F2011092D3011092D2018091F301A0
:102A4000882331F4412F602F8EE891E00E941B16FD
:102A500088B1837090918E01892B88B91F910F9155
:102A600008951F93182F882321F0813009F04DC05D
:102A700027C08091DC019091DD01892B49F0809184
:102A8000DC019091DD0101979093DD018093DC01E1
:102A90008091FC018823C9F52091DC013091DD0192
:102AA0008091E0019091E1012817390771F560E00C
:102AB00070E080E00E942B0681E08093FC0125C03D
:102AC0008091DE019091DF01892B49F08091DE0138
:102AD0009091DF0101979093DF018093DE01809157
:102AE000FD01882391F42091DE013091DF01809176
:102AF000E2019091E3012817390739F460E070E0B2
:102B000081E00E942B061093FD011F9108950F9301
:102B10001F93182F062F662349F460E070E00E948F
:102B20002B0660E070E0812F0E94181081E08093F6
:102B30000002113051F0113018F0123041F403C08E
:102B40000093E80104C00093E8010093E9011092AA
:102B500000021F910F910895FF920F931F93CF933F
:102B6000DF9380912102882309F459C00091220249
:102B700010912302F801C081D1818C819D81019740
:102B80009D838C83181619060CF449C0898180FF37
:102B900005C08E81882311F481E08E83898181FFB5
:102BA00003C0EF81F8850995809121028230A8F059
:102BB000F8018281938190932302809322021382F1
:102BC0001282E0910000F091010084819581181635
:102BD00019063CF081E0F82E05C0109223021092F5
:102BE0002202FF2480912102815080932102809152
:102BF0002102882311F40E941816898182FF08C0DF
:102C00008A819B819D838C83C8010E947A1108C0B0
:102C1000C8010E94671B89818F7E898301C0FF24C0
:102C20008F2D9927DF91CF911F910F91FF900895DC
:102C300010928D010895FC018091F101823069F4B8
:102C40008091920191E0892780939201882309F075
:102C50003EC08081837E80833AC08091D001909174
:102C6000D101C397A4F56623D1F02091D001309112
:102C7000D10180E690E0BC01269FC001279F900D06
:102C8000369F900D1124880F892F881F990B9093E0
:102C9000E5018093E40181E08093900118C0809168
:102CA00090018823A1F08091E4019091E5010197C2
:102CB0009093E5018093E4018091E4019091E50116
:102CC000892B29F48081837E8083109290018091EA
:102CD000F201823069F48091910191E0892780931B
:102CE0009101882309F03EC080818F71808308950F
:102CF0008091D2019091D301C397A4F54423D1F0E0
:102D00002091D2013091D30180E690E0AC01249F64
:102D1000C001259F900D349F900D1124880F892F9D
:102D2000881F990B9093E7018093E60181E08093DF
:102D30008F01089580918F018823A1F08091E60191
:102D40009091E70101979093E7018093E6018091CC
:102D5000E6019091E701892B29F480818F718083AE
:102D600010928F010895CF93DF9300D000D01F926F
:102D7000CDB7DEB70E94B20280E00E94B509813073
:102D800009F063C08CE191E09F938F930E94F61B42
:102D900010E8E12E15E2F12E00E010E020E040E026
:102DA00063E080E00E94F70861E080E00E94470A4B
:102DB0000F900F903E0185E0680E711C23E0422EBB
:102DC00038EE532E42E0942E58E5D52E80E00E9436
:102DD0009A098130D9F78E010F5F1F4FB30180E050
:102DE0000E94F4098D81F80181938F01E615F705A2
:102DF000A9F78B818111EACF8C81813039F71F923D
:102E00001F921F924F925F929F92DF921F928F9319
:102E1000812CA12CB12CC12C88EEE82E83E0F82E59
:102E200008E512E021E030E040E062E082E00E944C
:102E30000E0587EA91E60197F1F700C000000FB692
:102E4000F894DEBF0FBECDBFC1CFFFCF5058BB2718
:102E5000AA270ED01CC10DD130F012D120F031F4D0
:102E60009F3F11F41EF402C10EF4E095E7FBF8C099
:102E7000E92F1ED180F3BA176207730784079507FD
:102E800018F071F49EF536C10EF4E0950B2EBA2FB2
:102E9000A02D0B01B90190010C01CA01A001112460
:102EA000FF27591B99F0593F50F4503E68F11A160C
:102EB000F040A22F232F342F4427585FF3CF46959D
:102EC00037952795A795F0405395C9F77EF41F16BF
:102ED000BA0B620B730B840BBAF09150A1F0FF0F89
:102EE000BB1F661F771F881FC2F70EC0BA0F621F75
:102EF000731F841F48F4879577956795B795F79565
:102F00009E3F08F0B3CF9395880F08F09927EE0FF6
:102F10009795879508950CD0BAC0B2D040F0A9D04B
:102F200030F021F45F3F19F09BC05111E4C09EC006
:102F3000BFD098F39923C9F35523B1F3951B550BD3
:102F4000BB27AA2762177307840738F09F5F5F4F7C
:102F5000220F331F441FAA1FA9F333D00E2E3AF0BD
:102F6000E0E830D091505040E695001CCAF729D0D7
:102F7000FE2F27D0660F771F881FBB1F2617370726
:102F80004807AB07B0E809F0BB0B802DBF01FF2756
:102F900093585F4F2AF09E3F510568F061C0ABC067
:102FA0005F3FECF3983EDCF3869577956795B79590
:102FB000F7959F5FC9F7880F911D9695879597F9AB
:102FC0000895E1E0660F771F881FBB1F6217730724
:102FD0008407BA0720F0621B730B840BBA0BEE1F39
:102FE00088F7E0950895E89409C097FB3EF4909522
:102FF0008095709561957F4F8F4F9F4F9923A9F0D2
:10300000F92F96E9BB279395F69587957795679560
:10301000B795F111F8CFFAF4BB0F11F460FF1BC0A4
:103020006F5F7F4F8F4F9F4F16C0882311F096E937
:1030300011C0772321F09EE8872F762F05C06623E5
:1030400071F096E8862F70E060E02AF09A95660F9E
:10305000771F881FDAF7880F9695879597F9089557
:1030600097F99F6780E870E060E008959FEF80EC3B
:10307000089500240A9416161706180609060895DE
:1030800000240A9412161306140605060895092E44
:103090000394000C11F4882352F0BB0F40F4BF2BB3
:1030A00011F460FF04C06F5F7F4F8F4F9F4F0895F3
:1030B00057FD9058440F551F59F05F3F71F04795E9
:1030C000880F97FB991F61F09F3F79F087950895CE
:1030D000121613061406551FF2CF4695F1DF08C0ED
:1030E000161617061806991FF1CF8695710561050A
:1030F00008940895E894BB2766277727CB0197F9B2
:103100000895DEDFA8F19E57A8F1985160F039F1DB
:10311000983070F5092E9927660F771F881F991F21
:103120000A94D1F71CC0BB27993F4CF4B111B1E010
:10313000B62B672F782F8827985FB1F708C0869540
:1031400077956795B79508F4B1609395C1F7BB0F74
:1031500030F411F460FF03C06F5F7F4F8F4F3EF478
:1031600090958095709561957F4F8F4F9F4F0895F3
:103170006894C1CFBFCF0BD08ACF7BDF28F080DF30
:1031800018F0952309F06CCF71CF1124B4CF90DFE4
:10319000A0F3959FD1F3950F50E0551F629FF0016A
:1031A000729FBB27F00DB11D639FAA27F00DB11DC3
:1031B000AA1F649F6627B00DA11D661F829F22274C
:1031C000B00DA11D621F739FB00DA11D621F839FD3
:1031D000A00D611D221F749F3327A00D611D231FA9
:1031E000849F600D211D822F762F6A2F11249F57F7
:1031F00050408AF0E1F088234AF0EE0FFF1FBB1F1A
:10320000661F771F881F91505040A9F79E3F5105B8
:1032100070F026CF70CF5F3FECF3983EDCF38695DD
:1032200077956795B795F795E7959F5FC1F7FE2B63
:10323000880F911D9695879597F90895FA01EE0FDD
:10324000FF1F30962105310599F16115710561F473
:103250008038BFE39B0749F168949038810561F09D
:103260008038BFEF9B0741F0992342F5FF3FE1050E
:103270003105210511F1E8940894E795D901AA23B5
:1032800029F4AB2FBE2FF85FD0F310C0FF5F70F4AE
:10329000A695E0F7F73950F019F0FF3A38F49F7728
:1032A0009F930CD00F9007FC905808953EF0DECE0F
:1032B00060E070E080E89FE308954FE79F775F93B9
:1032C0004F933F932F939ED02F913F914F915F91BA
:1032D00052DF05C019F40EF0C3CE0CCFC7CEF0DE1E
:1032E000C8F39638C0F707F80F92E8942BE33AEA50
:1032F00048EB5FE74EDF0F920F920F924DB75EB72C
:103300000F92C0D0ECE7F0E016D04F915F91EF91B3
:10331000FF91E595EE1FFF1F49F0FE57E068442737
:10332000EE0F441FFA95E1F74195550B32D00F90FF
:1033300007FE26C00895DF93CF931F930F93FF924C
:10334000EF92DF927B018C01689405C0DA2EEF01C9
:103350001EDFFE01E894A591259135914591559187
:10336000AEF3EF0185DDFE019701A801DA9479F74C
:10337000DF90EF90FF900F911F91CF91DF91089513
:103380009B01AC0160E070E080E89FE3C4CD68CEB3
:10339000ACC096DEE8F39923D9F3940F511DBBF32B
:1033A0009150504094F059F0882332F0660F771F07
:1033B000881F91505040C1F79E3F510544F7880F38
:1033C000911D9695879597F908955F3FACF0983ECB
:1033D0009CF0BB27869577956795B79508F4B16003
:1033E0009395C1F7BB0F58F711F460FFE8CF6F5FFB
:1033F0007F4F8F4F9F4FE3CF7ECE0EF076C036CEFD
:1034000068942ECE5DDEC8F39923D1F3C6F3DF9323
:10341000CF931F930F93FF92C92FDD2788232AF0A4
:103420002197660F771F881FDAF720E030E040E829
:103430005FEB9FE3883920F0803E30F021968F7754
:1034400006DDE4EAF0E003C002DDE1EDF0E073DF69
:103450008B01BE01EC01FB2E6F5771097595771F2B
:10346000880B990BC2DD28E132E741E35FE38FDE91
:10347000AF2D9801AE01FF900F911F91CF91DF9179
:10348000F7DC05CEFA01DC01AA0FBB1F9B01AC01E2
:10349000BF5728F422273327442750781FC0B7513D
:1034A00088F4AB2F0024469537952795011CA395EA
:1034B000D2F3002069F0220F331F441FB395DAF3D3
:1034C0000DD0C4CC61307105A0E88A07B94630F44C
:1034D0009B01AC016627772788279078309621F0EA
:1034E000208331834283538308959F3F31F091506D
:1034F00020F4879577956795B795880F911D9695D8
:10350000879597F90895DB018F939F930E94B51AD1
:10351000BF91AF91A29F800D911DA39F900DB29F6F
:10352000900D11240895A1E21A2EAA1BBB1BFD01C8
:103530000DC0AA1FBB1FEE1FFF1FA217B307E40792
:10354000F50720F0A21BB30BE40BF50B661F771FEA
:10355000881F991F1A9469F76095709580959095CA
:103560009B01AC01BD01CF0108950E94C01AA59F27
:10357000900DB49F900DA49F800D911D112408956E
:10358000A29FB001B39FC001A39F700D811D1124A4
:10359000911DB29F700D811D1124911D0895CF932F
:1035A000DF938230910510F482E090E0E0912602F2
:1035B000F091270220E030E0A0E0B0E0309739F150
:1035C0004081518148175907B8F04817590771F4DD
:1035D00082819381109729F013969C938E93129772
:1035E0002CC0909327028093260227C02115310515
:1035F00031F04217530718F0A901DB0101C0EF01B8
:103600009A01BD01DF010280F381E02DD7CF2115A2
:103610003105F9F0281B390B2430310580F48A81FB
:103620009B816115710521F0FB019383828304C0A6
:103630009093270280932602FE01329644C0FE0139
:10364000E20FF31F8193919322503109398328832C
:103650003AC02091240230912502232B41F420917D
:1036600018013091190130932502209324022091F2
:103670001601309117012115310541F42DB73EB7E0
:1036800040911A0150911B01241B350BE09124023B
:10369000F0912502E217F307A0F42E1B3F0B281729
:1036A000390778F0AC014E5F5F4F2417350748F0BB
:1036B0004E0F5F1F509325024093240281939193F4
:1036C00002C0E0E0F0E0CF01DF91CF910895CF9309
:1036D000DF93009709F487C0FC01329713821282AE
:1036E000C0912602D0912702209781F42081318158
:1036F000280F391F80912402909125028217930789
:1037000079F5F0932502E09324026DC0DE0120E0FC
:1037100030E0AE17BF0750F412964D915C911397AD
:103720009D014115510509F1DA01F3CFB383A2835D
:1037300040815181840F951F8A179B0771F48D91E9
:103740009C911197840F951F029691838083129606
:103750008D919C911397938382832115310529F4D0
:10376000F0932702E09326023EC0D9011396FC9302
:10377000EE9312974D915D91A40FB51FEA17FB07C9
:1037800079F480819181840F951F0296D901119659
:103790009C938E938281938113969C938E93129720
:1037A000E0E0F0E08A819B81009719F0FE01EC01D6
:1037B000F9CFCE01029628813981820F931F209183
:1037C0002402309125022817390769F4309729F42B
:1037D000109227021092260202C013821282D09306
:1037E0002502C0932402DF91CF910895A0E0B0E0BC
:1037F000ECEFFBE10C94921EFE0135966191719104
:10380000AF0180912A0290912B020E940A1CE2E0F3
:103810000C94AE1EACE0B0E0E0E1FCE10C94821E42
:103820007C016B018A01FC0117821682838181FF72
:10383000BDC1CE0101964C01F7019381F60193FDC4
:10384000859193FF81916F01882309F4ABC1853283
:1038500039F493FD859193FF81916F01853229F4AD
:10386000B70190E00E94F21DE7CF512C312C20E0EF
:103870002032A0F48B3269F030F4803259F0833278
:1038800069F420612CC08D3239F0803339F4216025
:1038900026C02260246023C0286021C027FD27C0E5
:1038A00030ED380F3A3078F426FF06C0FAE05F9E1C
:1038B000300D1124532E13C08AE0389E300D112490
:1038C000332E20620CC08E3221F426FD6BC12064A1
:1038D00006C08C3611F4206802C0883641F4F60127
:1038E00093FD859193FF81916F018111C1CF982F35
:1038F0009F7D9554933028F40C5F1F4FFFE3F983AD
:103900000DC0833631F0833771F0833509F05BC029
:1039100022C0F801808189830E5F1F4F44244394A5
:10392000512C540115C03801F2E06F0E711CF801E2
:10393000A080B18026FF03C0652D70E002C06FEF4C
:103940007FEFC5012C870E94E71D2C0183012C8588
:103950002F77222E17C03801F2E06F0E711CF8018C
:10396000A080B18026FF03C0652D70E002C06FEF1C
:103970007FEFC5012C870E94DC1D2C012C8520685F
:10398000222E830123FC1BC0832D90E0481659068C
:10399000B0F4B70180E290E00E94F21D3A94F4CFB7
:1039A000F50127FC859127FE81915F01B70190E029
:1039B0000E94F21D31103A94F1E04F1A510841145F
:1039C000510471F7E5C0843611F0893639F5F801F4
:1039D00027FF07C060817181828193810C5F1F4F37
:1039E00008C060817181882777FD8095982F0E5FD0
:1039F0001F4F2F76B22E97FF09C090958095709536
:103A000061957F4F8F4F9F4F2068B22E2AE030E0A4
:103A1000A4010E94241EA82EA81844C0853729F4AA
:103A20002F7EB22E2AE030E025C0F22FF97FBF2E84
:103A30008F36C1F018F4883579F0B4C0803719F0AA
:103A4000883721F0AFC02F2F2061B22EB4FE0DC0F9
:103A50008B2D8460B82E09C024FF0AC09F2F96606A
:103A6000B92E06C028E030E005C020E130E002C0F9
:103A700020E132E0F801B7FE07C0608171818281E8
:103A800093810C5F1F4F06C06081718180E090E0E0
:103A90000E5F1F4FA4010E94241EA82EA818FB2D04
:103AA000FF77BF2EB6FE0BC02B2D2E7FA51450F432
:103AB000B4FE0AC0B2FC08C02B2D2E7E05C07A2CA5
:103AC0002B2D03C07A2C01C0752C24FF0DC0FE01E4
:103AD000EA0DF11D8081803311F4297E09C022FF97
:103AE00006C07394739404C0822F867809F073948F
:103AF00023FD13C020FF06C05A2C731418F4530C76
:103B00005718732C731468F4B70180E290E02C8787
:103B10000E94F21D73942C85F5CF731410F437189E
:103B200001C0312C24FF12C0B70180E390E02C8744
:103B30000E94F21D2C8522FF17C021FF03C088E5DB
:103B400090E002C088E790E0B7010CC0822F867831
:103B500059F021FD02C080E201C08BE227FD8DE219
:103B6000B70190E00E94F21DA51438F4B70180E37C
:103B700090E00E94F21D5A94F7CFAA94F401EA0D46
:103B8000F11D8081B70190E00E94F21DA110F5CFD8
:103B9000332009F451CEB70180E290E00E94F21D7B
:103BA0003A94F6CFF7018681978102C08FEF9FEF9D
:103BB0002C96E2E10C949E1EFC0105906150704031
:103BC0000110D8F7809590958E0F9F1F0895FC01E6
:103BD0006150704001900110D8F7809590958E0F3C
:103BE0009F1F08950F931F93CF93DF93182F092FD3
:103BF000EB018B8181FD03C08FEF9FEF20C082FF1F
:103C000010C04E815F812C813D81421753077CF4A7
:103C1000E881F9819F012F5F3F4F3983288310830B
:103C200006C0E885F985812F0995892B29F72E8112
:103C30003F812F5F3F4F3F832E83812F902FDF9156
:103C4000CF911F910F910895FA01AA27283051F1C1
:103C5000203181F1E8946F936E7F6E5F7F4F8F4FBD
:103C60009F4FAF4FB1E03ED0B4E03CD0670F781F1C
:103C7000891F9A1FA11D680F791F8A1F911DA11D01
:103C80006A0F711D811D911DA11D20D009F468943A
:103C90003F912AE0269F11243019305D3193DEF6E2
:103CA000CF010895462F4770405D4193B3E00FD098
:103CB000C9F7F6CF462F4F70405D4A3318F0495D83
:103CC00031FD4052419302D0A9F7EACFB4E0A69566
:103CD0009795879577956795BA95C9F70097610588
:103CE000710508959B01AC010A2E069457954795DE
:103CF00037952795BA95C9F7620F731F841F951FD3
:103D0000A01D08952F923F924F925F926F927F92E3
:103D10008F929F92AF92BF92CF92DF92EF92FF92DB
:103D20000F931F93CF93DF93CDB7DEB7CA1BDB0B87
:103D30000FB6F894DEBF0FBECDBF09942A8839882C
:103D400048885F846E847D848C849B84AA84B98433
:103D5000C884DF80EE80FD800C811B81AA81B9813F
:103D6000CE0FD11D0FB6F894DEBF0FBECDBFED0153
:063D70000895F894FFCF56
:103D760000000002000000003E0D00000000180CCC
:103D8600041060C0802000002E02200055415254CD
:083D960030204F50454E0000A3
:00000001FF
