:100000000C948A020C94A7020C94A7020C94A702E9
:100010000C9437070C9460070C9489070C94B20772
:100020000C94A7020C9418060C9441060C946A06D2
:100030000C94E5060C9493060C94BC060C940E07E5
:100040000C949D050C94C6050C94EF050C94A70226
:100050000C94A7020C94A7020C94A7020C94A7027C
:100060000C94A7020C94A7020C94A7020C94A7026C
:100070000C94A7020C94A7020C94A70207634236C3
:10008000B79BD8A71A39685618AEBAAB558C1D3C29
:10009000B7CC5763BD6DEDFD753EF6177231BF00ED
:1000A0000000803F08000000BE922449123EABAA27
:1000B000AA2ABECDCCCC4C3E00000080BEABAAAA82
:1000C000AA3E00000000BF000000803F00000000CA
:1000D00000084178D3BB4387D1133D190E3CC3BD03
:1000E0004282AD2B3E68EC8276BED98FE1A93E4CB0
:1000F00080EFFFBE01C4FF7F3F0000000000160537
:100100000100000000000000FA000000E000E00034
:1001100028FE28FE282454FE5448C4C81026466CE5
:1001200092AA44A000A0C0000000384482000082CF
:1001300044380028107C102810107C1010000A0C85
:100140000000101010101000060600000408102017
:10015000407C8A92A27C0042FE020042868A926221
:100160008482A2D28C182848FE08E4A2A2A29C3C59
:100170005292920C808E90A0C06C9292926C60927F
:10018000929478006C6C0000006A6C0000102844A7
:1001900082002828282828008244281040808A903D
:1001A000604C929E827C7E8888887EFE9292926CC1
:1001B0007C82828244FE82824438FE92929282FE47
:1001C000909090807C8292925EFE101010FE0082D1
:1001D000FE8200040282FC80FE10284482FE02029D
:1001E0000202FE403040FEFE201008FE7C82828229
:1001F0007CFE909090607C828A847AFE90989462D3
:10020000629292928C8080FE8080FC020202FCF856
:10021000040204F8FC021C02FCC6281028C6E010E8
:100220000E10E0868A92A2C200FE82820040201058
:100230000804008282FE0020408040200202020268
:10024000020080402000042A2A2A1EFE1222221CBC
:100250001C222222041C222212FE1C2A2A2A1810E6
:100260007E908040304A4A4A7CFE1020201E0022A8
:10027000BE0200040222BC00FE081422000082FE1E
:1002800002003E2018201E3E1020201E1C2222228A
:100290001C3E28282810102828183E3E1020201028
:1002A000122A2A2A0420FC2202043C0202043E38BC
:1002B000040204383C020C023C2214081422300AC6
:1002C0000A0A3C22262A322200106C82000000FE1C
:1002D000000000826C1000081010081000000000E0
:1002E000007F8181817F7F8383837F7F8787877F73
:1002F0007F8F8F8F7F7F9F9F9F7F7FBFBFBF7F7FBE
:10030000FFFFFF7F2040FF4020621517156500FBAF
:10031000FB00000000000000C0FF0300E0FF07003A
:10032000F0FF0F00F8FF1F0078001E0078001E008D
:1003300078001E0078001E0078001E0078001E0065
:1003400078001E0078001E0078001E0000000000EB
:100350000000000080FF0300E0FF0700F0FF0F0037
:10036000F8FF1F00F83C1F00783C1E00783C1E0080
:10037000783C1E00783C1E00783C1E00783C1E0035
:10038000783C1E00783C1E00783C1E00783C1E0025
:100390000000000000000000E0FF0300F0FF070085
:1003A000F8FF0F00F8FF1F00783C1E00783C1E008D
:1003B000783C1E00783C1E00783C1E00783C1E00F5
:1003C000783C1E00783C1E00783C1E00783C1E00E5
:1003D0000000000000000000F8FF0300F8FF0F001D
:1003E000F8FF1F00F8FF1F0000001E0000001E00A5
:1003F00000801F0000F01F0000FF0F00E0FF07005B
:10040000F0FF0000F80F0000F80000007800000086
:1004100078000000F8FF1F00F8FF1F00F0FF1F002A
:10042000E0FF1F000000000000000000F8FF1F00B8
:10043000F8FF1F00F8FF1F00F8FF1F0078001E00E4
:10044000783C1E00783C1E00783C1E00783C1E0064
:10045000783C1E00783C1E00F87E1F00F8FF1F004D
:10046000F0FF0F00E0E7030000000000000038008C
:10047000EEFF6C002A8045003A0047FC03FF6CFC4D
:1004800083FF3900DEFF0B7CD0810BFCD0810BC0D9
:10049000D0810BFCD0810B7CDEFF0B0082FF39701A
:1004A00002FF6CF83A0047DC2A8045CCEEFF6CCCAA
:1004B000000038000000000C00001E0C00001E00B0
:1004C00000001E0000001E0000001E00F8FF1F00BC
:1004D000F8FF1F00F8FF1F00F8FF1F0000001E00BC
:1004E00000001E0000001E0000001E0000005E0054
:1004F0000000400000007C000000400000004000C0
:1005000000007C00000030000000100000003000FF
:1005100000007C0011241FBECFEFD8E0DEBFCDBFAE
:1005200011E0A0E0B1E0E8ECF1E302C005900D922B
:10053000A633B107D9F722E0A6E3B1E001C01D92CE
:10054000A033B207E1F70E9422030C94E2180C9446
:1005500000008FE00E940505882311F082E003C0AF
:100560000E94170381E0992708958FE00E941305E8
:10057000882319F480E090E0089580917A008064E7
:1005800080937A0080917A00829586958695837013
:1005900080FDF8CF20917800809179009927982FDD
:1005A00088273327822B932B0895ECE7F0E0908186
:1005B0009F738295880F880F807C982B9083089575
:1005C000582F80910001652F77278830D0F4409113
:1005D0007E0021E030E0F90102C0EE0FFF1F8A9596
:1005E000E2F7CF018095842380937E0080917E0086
:1005F00002C0220F331F6A95E2F7822B80937E00A0
:100600000CC020917E0081E090E002C0880F991F0D
:100610006A95E2F7282B20937E0050930001809189
:100620007C00807E5F71852B80937C0008958FE134
:1006300080937C00EAE7F0E087E080838081806837
:10064000808308950E949B050E948D050E943711AA
:1006500080E090E008950F931F9385E00E940505C8
:10066000882311F082E07BC00E943C04182F0E9476
:1006700020051150123008F06EC08150823008F011
:100680006AC00E943A0460E08EEA0E941F0460E0A3
:1006900082EA0E941F0460E080EA0E941F0400E5D5
:1006A00013ECC8010197F1F760E080EC0E941F0491
:1006B00060E08FE20E941F0460E081E80E941F0456
:1006C00060E086E10E941F0460E082E20E941F0455
:1006D000C8010197F1F760E08FEA0E941F0460E013
:1006E00086EA0E941F0460E085EA0E941F0420E061
:1006F00030E0E8E8F3E1CF010197F1F72F5F3F4FDA
:1007000093E0283E3907B9F760E083EB0E941F04AD
:1007100060E080E40E941F0460E083E00E94B30375
:1007200060E083E00E940D041092C8011092CA019B
:100730001092C90181E091E090932D0280932C02E8
:1007400088E10E94EC030E94ED0760E084EA0E94C9
:100750001F0481E004C085E00E94F40487E099272B
:100760001F910F910895FF920F931F93082FF62E5C
:1007700085E00E9413058823A1F01F2D1F770370C9
:1007800060E0802F806B0E941F0412951F7060E054
:10079000812F80610E941F0460E08F2D8F700E9466
:1007A0001F041F910F91FF9008950F931F93082F1F
:1007B000162F85E00E941305882359F0812F1531EB
:1007C00008F084E166E0869FB0011124802F0E942A
:1007D0000D041F910F9108951F93182F85E00E941B
:1007E00013058823C1F087E00E947F046AE082E05D
:1007F0000E94DE0461EB82E00E94DE04612F113270
:1008000008F060E282E00E94DE0489EE8A95F1F74A
:1008100087E00E947F041F9108950F931F93082F74
:10082000162F85E00E941305882331F003701F778F
:100830001093C6010093C7011F910F9108950F9364
:100840001F93082F162F85E00E941305882379F047
:10085000112319F0113021F402C02B9801C02B9AFA
:1008600086E08A95F1F7602F80E00E94DE041F91F8
:100870000F910895239A089582E00E940505882328
:1008800011F082E031C00E94ED046AE479E080E07A
:100890000E94760462E479E081E00E9476046AE3D3
:1008A00079E082E00E94760469E279E086E00E94C5
:1008B000760462E379E083E00E94760462E379E003
:1008C00084E00E94760462E379E085E00E94760489
:1008D00062E379E087E00E9476048FEF8093CB019A
:1008E00087E00E947F0481E099270895E82FFF2781
:1008F000EE0FFF1FEA58FE4F7183608308951F9328
:10090000182F82E00E941305882309F455C0912F07
:1009100097708091CB01981709F44EC09093CB014A
:1009200085B1887F892B85B9933051F1943028F4B3
:10093000913051F09230B0F40EC0953079F195308D
:1009400030F1963091F515C0E0917801F091790180
:10095000309791F130C0E0917601F09177013097B6
:1009600059F129C0E0917A01F0917B01309721F192
:1009700022C0E0918201F09183013097E9F01BC021
:10098000E0917C01F0917D013097B1F014C0E091CD
:100990007E01F0917F01309779F00DC0E0918001E8
:1009A000F0918101309741F006C0E0918401F0910F
:1009B0008501309709F009951F9108951F93162F0F
:1009C0000E947F0482E00E941305882321F01EBD4F
:1009D0000DB407FEFDCF1F910895259A2698279AFA
:1009E000209A219A229A0895853160F4E82FFF27F2
:1009F000EF54FE4F8081882329F0808181508083CD
:100A0000808101C08FEF99270895853110F080E033
:100A100008C0E82FFF27EF54FE4F80818F5F80834F
:100A2000815099270895853110F080E007C0E82FA4
:100A3000FF27EF54FE4F8081811181E099270895AF
:100A4000CF93DF93CDB7DEB723970FB6F894DEBF11
:100A50000FBECDBF81E00E940505882311F082E022
:100A600011C00E943C048150823040F40E944C0529
:100A7000CE0101960E94EF0A81E004C081E00E944D
:100A8000F40487E0992723960FB6F894DEBF0FBED3
:100A9000CDBFDF91CF9108951092E1011092E00156
:100AA0001092E3011092E2011092E5011092E4012C
:100AB0001092E7011092E6011092E9011092E8010C
:100AC00080E991E09093CD018093CC019093CF0188
:100AD0008093CE019093D1018093D0019093D30164
:100AE0008093D2019093D5018093D40184E398E060
:100AF0009093D7018093D6019093D9018093D80128
:100B00009093DB018093DA019093DD018093DC0107
:100B10009093DF018093DE0108950E94D80A0E941D
:100B2000C7080E94DB070E94990B0E943C040E94A8
:100B3000200578940895000008951F920F920FB633
:100B40000F9211242F933F934F935F936F937F9353
:100B50008F939F93AF93BF93EF93FF93E0915601D1
:100B6000F0915701309709F00995FF91EF91BF91EE
:100B7000AF919F918F917F916F915F914F913F9135
:100B80002F910F900FBE0F901F9018951F920F92EC
:100B90000FB60F9211242F933F934F935F936F9350
:100BA0007F938F939F93AF93BF93EF93FF93E091C6
:100BB0005801F0915901309709F00995FF91EF9193
:100BC000BF91AF919F918F917F916F915F914F9165
:100BD0003F912F910F900FBE0F901F9018951F926D
:100BE0000F920FB60F9211242F933F934F935F9361
:100BF0006F937F938F939F93AF93BF93EF93FF93E5
:100C0000E0915A01F0915B01309709F00995FF914D
:100C1000EF91BF91AF919F918F917F916F915F9174
:100C20004F913F912F910F900FBE0F901F901895ED
:100C30001F920F920FB60F9211242F933F934F9351
:100C40005F936F937F938F939F93AF93BF93EF9334
:100C5000FF93E0914801F0914901309709F009951F
:100C6000FF91EF91BF91AF919F918F917F916F9184
:100C70005F914F913F912F910F900FBE0F901F905A
:100C800018951F920F920FB60F9211242F933F9336
:100C90004F935F936F937F938F939F93AF93BF9384
:100CA000EF93FF93E0914A01F0914B01309709F0E7
:100CB0000995FF91EF91BF91AF919F918F917F9196
:100CC0006F915F914F913F912F910F900FBE0F90B9
:100CD0001F9018951F920F920FB60F9211242F9309
:100CE0003F934F935F936F937F938F939F93AF93B4
:100CF000BF93EF93FF93E0914C01F0914D0130973A
:100D000009F00995FF91EF91BF91AF919F918F915C
:100D10007F916F915F914F913F912F910F900FBEF7
:100D20000F901F9018951F920F920FB60F921124DB
:100D30002F933F934F935F936F937F938F939F93E3
:100D4000AF93BF93EF93FF93E0915001F091510166
:100D5000309709F00995FF91EF91BF91AF919F9165
:100D60008F917F916F915F914F913F912F910F9054
:100D70000FBE0F901F9018951F920F920FB60F92F3
:100D800011242F933F934F935F936F937F938F9390
:100D90009F93AF93BF93EF93FF93E0915201F09134
:100DA0005301309709F00995FF91EF91BF91AF91F1
:100DB0009F918F917F916F915F914F913F912F9173
:100DC0000F900FBE0F901F9018951F920F920FB6A5
:100DD0000F9211242F933F934F935F936F937F93C1
:100DE0008F939F93AF93BF93EF93FF93E0914E0147
:100DF000F0914F01309709F00995FF91EF91BF9164
:100E0000AF919F918F917F916F915F914F913F91A2
:100E10002F910F900FBE0F901F9018951F920F9259
:100E20000FB60F9211242F933F934F935F936F93BD
:100E30007F938F939F93AF93BF93EF93FF93E09133
:100E40005401F0915501309709F00995FF91EF9108
:100E5000BF91AF919F918F917F916F915F914F91D2
:100E60003F912F910F900FBE0F901F9018951F92DA
:100E70000F920FB60F9211242F933F934F935F93CE
:100E80006F937F938F939F93AF93BF93EF93FF9352
:100E9000E0913E01F0913F01309709F00995FF91F3
:100EA000EF91BF91AF919F918F917F916F915F91E2
:100EB0004F913F912F910F900FBE0F901F9018955B
:100EC0001F920F920FB60F9211242F933F934F93BF
:100ED0005F936F937F938F939F93AF93BF93EF93A2
:100EE000FF93E0914001F0914101309709F009959D
:100EF000FF91EF91BF91AF919F918F917F916F91F2
:100F00005F914F913F912F910F900FBE0F901F90C7
:100F100018951F920F920FB60F9211242F933F93A3
:100F20004F935F936F937F938F939F93AF93BF93F1
:100F3000EF93FF93E0914201F0914301309709F064
:100F40000995FF91EF91BF91AF919F918F917F9103
:100F50006F915F914F913F912F910F900FBE0F9026
:100F60001F9018951F920F920FB60F9211242F9376
:100F70003F934F935F936F937F938F939F93AF9321
:100F8000BF93EF93FF93E0914401F09145013097B7
:100F900009F00995FF91EF91BF91AF919F918F91CA
:100FA0007F916F915F914F913F912F910F900FBE65
:100FB0000F901F90189580E10E940505882311F07D
:100FC00082E009C0E6E3F1E01192119281E0E63798
:100FD000F807D1F781E0992708951F93CF93DF9306
:100FE00085E00E9413058823D1F060E080E40E9430
:100FF0001F04C0E0D0E060E08C2F0E94B30310E03B
:1010000061E080E00E941F041F5F1038C9F721963D
:10101000C430D10581F760E083E00E940D04DF91C8
:10102000CF911F9108950F931F93CF93DF93082FB4
:1010300011278A3091F08B3040F4883091F189305B
:1010400020F5873009F049C037C08D3049F08B3129
:1010500081F08C3009F041C006C01092C60103C077
:101060001092C6017AC08091C70181508093C70158
:1010700074C00E94ED077DC061E080E00E941F0403
:101080008091C6018F5F8093C6018091C60187FF62
:10109000F3CF1092C6018091C70181508093C701A0
:1010A00068C08091C601882309F457C08091C601A9
:1010B00086508093C60151C081E00E94290A24E62F
:1010C00030E04DE750E064EF71E080E090E00E9496
:1010D000360A81E00E947A0940C06091C601809181
:1010E000C7010E94B303E801CC0FDD1FCC0FDD1F49
:1010F000C00FD11FCF59DF4F10E0FE01849161E096
:101100000E941F041F5F21961530B9F761E080E04F
:101110000E941F048091C6018A5F8093C60180915E
:10112000C60199278C3791053CF01092C601809139
:10113000C70181508093C7018091C701837080935C
:10114000C7018091C8018130D9F4E091C901F091C3
:10115000CA013097A9F0099513C06091C60180912A
:10116000C7010E94B3038091C70183708093C701B8
:1011700007C06091C6018091C7010E94B303DCCF14
:1011800080E090E0DF91CF911F910F910895F89446
:101190000E94260981E00E94D00881E090E0089535
:1011A000813071F0F894813059F0813030F0823024
:1011B000C9F0833009F046C01AC080E090E020C03A
:1011C0002C9A80E8809361001092610080E090E0AA
:1011D0000000019688329105D9F7109268001092AC
:1011E0006B00089580E88093610083E004C080E88C
:1011F0008093610088E08093610026C00000019622
:101200002DE680369207D1F72C9880E090E0000020
:1012100001962DE680369207D1F710927A008FEF73
:101220008093640080916800816080936800809161
:101230006B00846080936B00789483B7816083BF78
:1012400088950895823008F078940895249A2C9A0D
:10125000089583E58CBD81E08DBD84EF91E0019719
:10126000F1F7089583E58CBD81E08DBD8DE08A9511
:10127000F1F7089583E58CBD1DBC84EF91E00197E3
:10128000F1F708958FE78CBD1DBC84EF91E00197C5
:10129000F1F7089583E58CBD81E08DBD8DE08A95E1
:1012A000F1F708958AE00E94F404882329F481E08C
:1012B0000E948C0A10928701089589E00E94F4042C
:1012C0008823B9F480918601882311F00E94D20A04
:1012D00082E00E948C0A8091940190919501009780
:1012E00031F00E9490151092950110929401109285
:1012F00086010895813029F0823029F40E945D0929
:1013000008950E9452090895CF92DF92EF92FF92C2
:101310000F931F93CF93DF9380E291E00E94F81424
:10132000EC019093950180939401892B11F480E056
:1013300044C0CC24DD24EE24FF248701C801B7017A
:101340000E941E12D7FE06C020E030E040E857E4BD
:101350000E94501120E030E040EA51E40E94B411B4
:1013600027EF35E740E05FE30E94E4129B01AC0108
:1013700060E070E080E291E40E9447132DEC3CECC9
:1013800042E851E40E94E4120E94AA122AE030E0EE
:1013900040E050E00E94AC1469937993899399934B
:1013A0000894C11CD11C0894E11CF11C011D111DE5
:1013B00088E4C816D10411F681E09927DF91CF9116
:1013C0001F910F91FF90EF90DF90CF9008958AE0EA
:1013D0000E940505882311F082E00AC01092910155
:1013E0001092900181E00E94A80A81E08093870119
:1013F000992708951F9389E00E940505882311F01D
:1014000082E024C08BE00E9413058823D9F40E9457
:101410008409182F813011F086E018C010928801DD
:101420001092890110928A0110928B0162E67CE091
:101430008DE00E942E0C82E00E94A80A1093860183
:1014400081E004C089E00E94F40487E099271F919D
:101450000895813021F0823029F084E005C00E9497
:10146000E70902C00E94FA09992708956F927F92B6
:101470008F929F92AF92BF92CF92DF92EF92FF92A4
:101480000F931F93CF93DF933B014C015A01E90166
:101490008AE00E941305882381F1209741F1B5016C
:1014A000882777FD8095982F9E01C536D10510F0CD
:1014B00024E630E0442755270E94AC1424E630E0AF
:1014C00040E050E00E94BC1479018A01C401B301DC
:1014D0000E94650CC7010E942C0B60E070E080E068
:1014E00090E00E94650CC5018E199F0904C0A114EB
:1014F000B10419F0C5010E942C0BDF91CF911F910F
:101500000F91FF90EF90DF90CF90BF90AF909F90A2
:101510008F907F906F900895823029F480918100A0
:101520008E7F8093810080918601813031F480919B
:101530008701813011F40000089580918601813087
:1015400021F080918701813011F45F9857980895B8
:10155000982F80918601882331F480918701882318
:1015600011F4579A5F98809186018823D1F49230C4
:10157000C1F41092800010928100809181008860F7
:10158000809381008091810081608093810010921E
:1015900085001092840081E08093890080E9809327
:1015A00088000895EFE6F0E080818D7F80830895C4
:1015B000CF93DF93C0E0D0E060E08C2F0E94E70A79
:1015C0002196C531D105C1F7DF91CF9108958531BD
:1015D00028F4E82FFF27EF54FE4F608308951F93F0
:1015E000CF93DF93EC01892B99F181E00E941305E1
:1015F000882351F187E00E947F0418EC812F8A959F
:10160000F1F76AE082E00E94DE0464EB82E00E946F
:10161000DE04812F8A95F1F760E082E00E94510C90
:101620008883812F8A95F1F760E082E00E94510C57
:1016300089831A95F1F760E082E00E94510C8A8359
:1016400087E00E947F0404C0188219828DE28A8399
:10165000DF91CF911F9108950F931F93CF93DF9345
:10166000CDB7DEB729970FB6F894DEBF0FBECDBF5A
:101670008C0188E00E941305882311F491E00DC0CD
:10168000980140E061E0CE0101960E945A0B982F2C
:10169000882319F48F818823E9F3892F99272996C4
:1016A0000FB6F894DEBF0FBECDBFDF91CF911F9173
:1016B0000F910895EF92FF920F931F93CF93DF93B3
:1016C000EC01F62EE42E890188E00E9413058823A0
:1016D00011F481E026C084E090E00E94F814FC013F
:1016E000892B11F482E01DC0F982F0FC1E8281E09A
:1016F000E81619F4898184608983898188608983E7
:101700001B830A831D830C83D183C08313821282BF
:1017100081E080939601CF010E94BF0B1092960149
:1017200080E09927DF91CF911F910F91FF90EF906B
:10173000089588E00E940505882311F082E014C016
:101740001092EA011092EC011092EB0110929601B6
:10175000109297016AEC7CE080E10E94410C0E94AB
:10176000B60B0E94280C81E09927089584B5826009
:1017700084BD85B5846085BD8EE487BD0895CF9214
:10178000DF92EF92FF920F931F93CF93DF93EC01C1
:101790008091EA01882339F4D093EC01C093EB01E6
:1017A0000E94D10C47C0C090EB01D090EC0100E04A
:1017B00010E0EE24FF2429C0A881B981FD016481D5
:1017C0007581F60140815181FA01848195819B01E7
:1017D000281B390B37FF0AC0861B970B9583848320
:1017E000DB82CA82012BF1F0F70122C0F60182816F
:1017F00093812115310581F0FD0135832483009704
:10180000B1F00F5F1F4F76016C018091EA019927BB
:101810000817190788F20BC0FD01158214829B83FB
:101820008A8305C0D093EC01C093EB0103C0F6019D
:10183000D383C2838091EA018F5F8093EA01DF91B5
:10184000CF911F910F91FF90EF90DF90CF9008956F
:10185000EEE6F0E08081826080830895E82F803298
:1018600068F48051833050F0FF27EE0FFF1FEA5CD1
:10187000FE4F8081918171836083089580E090E0C4
:101880000895803218F080E090E00895E82FFF2757
:10189000EE0FFF1FEA5CFE4F8081918171836083B0
:1018A00008951F93162F0E947F0482E00E94130563
:1018B000882329F01EBD0DB407FEFDCF8EB59927F4
:1018C0001F9108950E94890C0895EF92FF920F9343
:1018D0001F937B018C018AE00E9413058823A1F0ED
:1018E00080918701882381F0D801C701880F991F53
:1018F000AA1FBB1F9093930180939201E114F104FE
:101900000105110509F45F981F910F91FF90EF9069
:1019100008958091880190918901A0918A01B091E8
:101920008B0120918C0130918D0140918E0150915D
:101930008F01820F931FA41FB51F8093880190937E
:101940008901A0938A01B0938B01809188019091C5
:101950008901A0918A01B0918B018851964FA040D6
:10196000B040BCF08BB180588BB9809188019091C8
:101970008901A0918A01B0918B018851964FA040B6
:10198000B0408093880190938901A0938A01B0931D
:101990008B0108950E94D50C0E94160D0E94EF0C39
:1019A000089581E080939701089588E00E941305CF
:1019B000882311F484E011C080919701882311F4E9
:1019C00083E00BC080919601882311F082E005C06E
:1019D0000E94B20F8130E1F380E099270895809151
:1019E0008701813011F580919001909191012091B2
:1019F000920130919301820F931F909391018093F4
:101A000090018091900190919101885E93406CF0DB
:101A10008BB180588BB98091900190919101885E33
:101A200093409093910180939001089587E00E94E4
:101A30001305882309F4AAC08091F7019091F80159
:101A4000892B09F180911B0290911C022091F701D2
:101A50003091F801820F931F90931C0280931B0218
:101A600080911B0290911C02885E9340A4F08091AB
:101A70001B0290911C02885E934090931C028093FD
:101A80001B0241E009C08091EF019091F001909319
:101A9000F4018093F30140E08091F9019091FA0103
:101AA000892B09F180911D0290911E022091F9016C
:101AB0003091FA01820F931F90931E0280931D02B2
:101AC00080911D0290911E02885E9340A4F0809147
:101AD0001D0290911E02885E934090931E02809397
:101AE0001D0261E009C08091F1019091F201909393
:101AF000F6018093F50160E0842F0E94C70D80916C
:101B00001702909118022091F3013091F401820F95
:101B1000931F90931802809317028091170290915F
:101B20001802885E934014F440E00BC080911702C5
:101B300090911802885E9340909318028093170248
:101B400041E08091190290911A022091F5013091A3
:101B5000F601820F931F90931A02809319028091CD
:101B6000190290911A02885E934014F460E00BC051
:101B70008091190290911A02885E934090931A0204
:101B80008093190261E0842F0E940C0E089588232F
:101B9000F1F02091EF013091F0018091F3019091EB
:101BA000F401281B390B1216130634F48091F3014B
:101BB0009091F401019607C0232B49F08091F30125
:101BC0009091F40101979093F4018093F3016623BF
:101BD00011F12091F1013091F2018091F501909184
:101BE000F601281B390B1216130654F48091F501E7
:101BF0009091F60101969093F6018093F501089576
:101C0000232B49F08091F5019091F6010197909373
:101C1000F6018093F50108950F931F93082F162F57
:101C200080912302882309F0E3C080910B0288236E
:101C300009F05AC08091F3019091F401892BE9F4E5
:101C400080919801837E8093980110921402809174
:101C50001F02882309F45BC060910D0280E00E949E
:101C60008D0FE0912102F0912202309709F44FC0CC
:101C700081E0808310921F024AC08091ED01813083
:101C800041F48091FF0190910002019711F401E06D
:101C900002C00023E1F190919801937EE09112023D
:101CA000FF27E15FFE4F8081982B909398018091F0
:101CB0001002882321F4809112028F5F03C080916B
:101CC00012028150809312028091120283708093DD
:101CD000120281E0809314028091ED018130B9F409
:101CE00080E00E940B0F13C090919801937EE091C9
:101CF0001202FF27E15FFE4F8081982B909398019D
:101D000082E0809314021092F4011092F30180910A
:101D10000C02882309F059C08091F5019091F601D9
:101D2000892BE9F4809198018F718093980110922A
:101D3000150280912002882309F45AC060910E0296
:101D400081E00E948D0FE0912102F09122023097F4
:101D500009F44EC081E081831092200249C0809135
:101D6000EE01813041F480910102909102020197CD
:101D700011F411E002C01123D9F1909198019F71E3
:101D8000E0911302FF27ED5EFE4F8081982B909328
:101D9000980180911102882321F4809113028F5FB2
:101DA00003C080911302815080931302809113022B
:101DB00083708093130281E0809315028091EE017D
:101DC0008130B1F40E940B0F13C0909198019F7164
:101DD000E0911302FF27ED5EFE4F8081982B9093D8
:101DE000980182E0809315021092F6011092F5019D
:101DF00080911602882331F4412F602F88E991E009
:101E00000E94211088B1837090919801892B88B924
:101E10001F910F9108951F93182F882321F081306F
:101E200009F04DC027C08091FF0190910002892BDD
:101E300049F08091FF019091000201979093000278
:101E40008093FF0180911F028823C9F52091FF0133
:101E50003091000280910302909104022817390703
:101E600071F560E070E080E00E94610F81E0809396
:101E70001F0225C08091010290910202892B49F036
:101E80008091010290910202019790930202809347
:101E9000010280912002882391F420910102309167
:101EA000020280910502909106022817390739F441
:101EB00060E070E081E00E94610F109320021F91AA
:101EC0000895982F81E08093230281E0613978079B
:101ED00010F060E971E0913061F0913018F09230CB
:101EE000C9F40EC0F8947093F0016093EF017894F8
:101EF00011C0F8947093F2016093F10178940AC0D4
:101F0000F8947093F0016093EF017093F201609385
:101F1000F10178941092230208950F931F93182FC4
:101F2000062F662349F460E070E00E94610F60E0D4
:101F300070E0812F0E94B91081E08093230211305C
:101F400051F0113018F0123041F403C000930B022D
:101F500004C000930B0200930C02109223021F9105
:101F60000F910895FF920F931F93CF93DF9380916A
:101F7000EA01882309F459C00091EB011091EC01AA
:101F8000F801C081D1818C819D8101979D838C83D3
:101F9000181619060CF449C0898180FF05C08E818E
:101FA000882311F481E08E83898181FF03C0EF8152
:101FB000F88509958091EA018230A8F0F8018281C4
:101FC00093819093EC018093EB0113821282E09154
:101FD0000000F091010084819581181619063CF0EB
:101FE00081E0F82E05C01092EC011092EB01FF2465
:101FF0008091EA0181508093EA018091EA0188236F
:1020000011F40E941E10898182FF08C08A819B8181
:102010009D838C83C8010E94BF0B08C0C8010E9429
:10202000901589818F7E898301C0FF248F2D992788
:10203000DF91CF911F910F91FF900895109297011A
:102040000895FC0180911402823069F480919C0112
:1020500091E0892780939C01882309F03EC080810C
:10206000837E80833AC08091F3019091F401C397FD
:10207000A4F56623D1F02091F3013091F40180E6BC
:1020800090E0BC01269FC001279F900D369F900DC8
:102090001124880F892F881F990B90930802809331
:1020A000070281E080939A0118C080919A018823E9
:1020B000A1F0809107029091080201979093080285
:1020C000809307028091070290910802892B29F4DE
:1020D0008081837E808310929A01809115028230E4
:1020E00069F480919B0191E0892780939B0188236B
:1020F00009F03EC080818F71808308958091F50141
:102100009091F601C397A4F54423D1F02091F501F5
:102110003091F60180E690E0AC01249FC001259F3C
:10212000900D349F900D1124880F892F881F990BD3
:1021300090930A028093090281E0809399010895A7
:10214000809199018823A1F08091090290910A025F
:10215000019790930A02809309028091090290915D
:102160000A02892B29F480818F7180831092990152
:102170000895982F81E080932302913071F091307F
:1021800018F0923071F405C0709300026093FF0163
:1021900008C0709300026093FF0170930202609385
:1021A000010210922302089581E00E94D50283E08B
:1021B0000E94E0020E94B5029093A7018093A601BD
:1021C00060E083E00E94D5038091A7018F93809106
:1021D000A6018F938DE191E09F938F930E941F162C
:1021E0000F900F900F900F90089581E00E94D502FC
:1021F00084E00E94E0020E94B5029093B0018093B7
:10220000AF0160E082E00E94D5038091B0018F931E
:102210008091AF018F9385E291E09F938F930E940D
:102220001F160F900F900F900F90089581E00E945D
:10223000D50285E00E94E0020E94B5029093AD01B4
:102240008093AC0160E081E00E94D5038091AD01F4
:102250008F938091AC018F938DE291E09F938F9348
:102260000E941F160F900F900F900F9008950E94DC
:102270002B0380939D010E94A9028093AE0190914F
:10228000AE0180919D0181509130F1F78230F0F7DD
:102290000E94D4100E94F5100E941611F0CF5058E1
:1022A000BB27AA270ED01CC10DD130F012D120F0CF
:1022B00031F49F3F11F41EF402C10EF4E095E7FBE8
:1022C000F8C0E92F1ED180F3BA176207730784079D
:1022D000950718F071F49EF536C10EF4E0950B2EBB
:1022E000BA2FA02D0B01B90190010C01CA01A00168
:1022F0001124FF27591B99F0593F50F4503E68F1C3
:102300001A16F040A22F232F342F4427585FF3CF03
:10231000469537952795A795F0405395C9F77EF4D4
:102320001F16BA0B620B730B840BBAF09150A1F01D
:10233000FF0FBB1F661F771F881FC2F70EC0BA0FA3
:10234000621F731F841F48F4879577956795B7952B
:10235000F7959E3F08F0B3CF9395880F08F0992723
:10236000EE0F9795879508950CD0BAC0B2D040F083
:10237000A9D030F021F45F3F19F09BC05111E4C0A7
:102380009EC0BFD098F39923C9F35523B1F3951B91
:10239000550BBB27AA2762177307840738F09F5F86
:1023A0005F4F220F331F441FAA1FA9F333D00E2EF5
:1023B0003AF0E0E830D091505040E695001CCAF762
:1023C00029D0FE2F27D0660F771F881FBB1F261727
:1023D00037074807AB07B0E809F0BB0B802DBF01FA
:1023E000FF2793585F4F2AF09E3F510568F061C068
:1023F000ABC05F3FECF3983EDCF38695779567952D
:10240000B795F7959F5FC9F7880F911D96958795AA
:1024100097F90895E1E0660F771F881FBB1F6217C9
:1024200073078407BA0720F0621B730B840BBA0B87
:10243000EE1F88F7E0950895E89409C097FB3EF4F5
:1024400090958095709561957F4F8F4F9F4F992301
:10245000A9F0F92F96E9BB279395F695879577957F
:102460006795B795F111F8CFFAF4BB0F11F460FF3F
:102470001BC06F5F7F4F8F4F9F4F16C0882311F097
:1024800096E911C0772321F09EE8872F762F05C0AB
:10249000662371F096E8862F70E060E02AF09A9546
:1024A000660F771F881FDAF7880F9695879597F93B
:1024B000089597F99F6780E870E060E008959FEFC6
:1024C00080EC089500240A941616170618060906CB
:1024D000089500240A94121613061406050608959A
:1024E000092E0394000C11F4882352F0BB0F40F422
:1024F000BF2B11F460FF04C06F5F7F4F8F4F9F4F62
:10250000089557FD9058440F551F59F05F3F71F0E3
:102510004795880F97FB991F61F09F3F79F087954A
:102520000895121613061406551FF2CF4695F1DFD3
:1025300008C0161617061806991FF1CF8695710563
:10254000610508940895E894BB2766277727CB0197
:1025500097F90895DEDFA8F19E57A8F1985160F031
:1025600039F1983070F5092E9927660F771F881F6B
:10257000991F0A94D1F71CC0BB27993F4CF4B111A5
:10258000B1E0B62B672F782F8827985FB1F708C086
:10259000869577956795B79508F4B1609395C1F7DF
:1025A000BB0F30F411F460FF03C06F5F7F4F8F4F9C
:1025B0003EF490958095709561957F4F8F4F9F4F1A
:1025C00008956894C1CFBFCF0BD08ACF7BDF28F0AE
:1025D00080DF18F0952309F06CCF71CF1124B4CFB0
:1025E00090DFA0F3959FD1F3950F50E0551F629FA8
:1025F000F001729FBB27F00DB11D639FAA27F00D5C
:10260000B11DAA1F649F6627B00DA11D661F829F82
:102610002227B00DA11D621F739FB00DA11D621F67
:10262000839FA00D611D221F749F3327A00D611D84
:10263000231F849F600D211D822F762F6A2F112466
:102640009F5750408AF0E1F088234AF0EE0FFF1FB9
:10265000BB1F661F771F881F91505040A9F79E3FF0
:10266000510570F026CF70CF5F3FECF3983EDCF35E
:10267000869577956795B795F795E7959F5FC1F72D
:10268000FE2B880F911D9695879597F90895FA016D
:10269000EE0FFF1F30962105310599F16115710587
:1026A00061F48038BFE39B0749F168949038810555
:1026B00061F08038BFEF9B0741F0992342F5FF3F5F
:1026C000E1053105210511F1E8940894E795D90158
:1026D000AA2329F4AB2FBE2FF85FD0F310C0FF5F01
:1026E00070F4A695E0F7F73950F019F0FF3A38F496
:1026F0009F779F930CD00F9007FC905808953EF061
:10270000DECE60E070E080E89FE308954FE79F77BA
:102710005F934F933F932F939ED02F913F914F9173
:102720005F9152DF05C019F40EF0C3CE0CCFC7CEB7
:10273000F0DEC8F39638C0F707F80F92E8942BE361
:102740003AEA48EB5FE74EDF0F920F920F924DB7D8
:102750005EB70F92C0D0ECE7F0E016D04F915F91DA
:10276000EF91FF91E595EE1FFF1F49F0FE57E068DE
:102770004427EE0F441FFA95E1F74195550B32D0EF
:102780000F9007FE26C00895DF93CF931F930F93FA
:10279000FF92EF92DF927B018C01689405C0DA2EE4
:1027A000EF011EDFFE01E894A59125913591459139
:1027B0005591AEF3EF0185DDFE019701A801DA9492
:1027C00079F7DF90EF90FF900F911F91CF91DF91FC
:1027D00008959B01AC0160E070E080E89FE3C4CD08
:1027E00068CEACC096DEE8F39923D9F3940F511D5F
:1027F000BBF39150504094F059F0882332F0660FAB
:10280000771F881F91505040C1F79E3F510544F7F4
:10281000880F911D9695879597F908955F3FACF0C5
:10282000983E9CF0BB27869577956795B79508F4F9
:10283000B1609395C1F7BB0F58F711F460FFE8CF73
:102840006F5F7F4F8F4F9F4FE3CF7ECE0EF076C0EE
:1028500036CE68942ECE5DDEC8F39923D1F3C6F34D
:10286000DF93CF931F930F93FF92C92FDD27882308
:102870002AF02197660F771F881FDAF720E030E0F3
:1028800040E85FEB9FE3883920F0803E30F02196EE
:102890008F7706DDE4EAF0E003C002DDE1EDF0E071
:1028A00073DF8B01BE01EC01FB2E6F57710975952B
:1028B000771F880B990BC2DD28E132E741E35FE324
:1028C0008FDEAF2D9801AE01FF900F911F91CF9138
:1028D000DF91F7DC05CEFA01DC01AA0FBB1F9B01DB
:1028E000AC01BF5728F422273327442750781FC054
:1028F000B75188F4AB2F0024469537952795011CD6
:10290000A395D2F3002069F0220F331F441FB39523
:10291000DAF30DD0C4CC61307105A0E88A07B9465E
:1029200030F49B01AC016627772788279078309692
:1029300021F0208331834283538308959F3F31F0F8
:10294000915020F4879577956795B795880F911DDD
:102950009695879597F90895DB018F939F930E9431
:10296000DE14BF91AF91A29F800D911DA39F900D8A
:10297000B29F900D11240895A1E21A2EAA1BBB1B31
:10298000FD010DC0AA1FBB1FEE1FFF1FA217B3073B
:10299000E407F50720F0A21BB30BE40BF50B661F51
:1029A000771F881F991F1A9469F760957095809515
:1029B00090959B01AC01BD01CF0108950E94E914DF
:1029C000A59F900DB49F900DA49F800D911D112483
:1029D0000895A29FB001B39FC001A39F700D811DF8
:1029E0001124911DB29F700D811D1124911D089518
:1029F000CF93DF938230910510F482E090E0E09174
:102A00002802F091290220E030E0A0E0B0E0309709
:102A100039F14081518148175907B8F048175907D3
:102A200071F482819381109729F013969C938E9371
:102A300012972CC0909329028093280227C0211559
:102A4000310531F04217530718F0A901DB0101C02D
:102A5000EF019A01BD01DF010280F381E02DD7CFA4
:102A600021153105F9F0281B390B2430310580F48C
:102A70008A819B816115710521F0FB01938382831B
:102A800004C09093290280932802FE01329644C02C
:102A9000FE01E20FF31F8193919322503109398394
:102AA00028833AC02091260230912702232B41F43B
:102AB0002091190130911A013093270220932602A8
:102AC00020911701309118012115310541F42DB7DE
:102AD0003EB740911B0150911C01241B350BE09126
:102AE0002602F0912702E217F307A0F42E1B3F0BFA
:102AF0002817390778F0AC014E5F5F4F2417350770
:102B000048F04E0F5F1F5093270240932602819397
:102B1000919302C0E0E0F0E0CF01DF91CF91089502
:102B2000CF93DF93009709F487C0FC01329713829B
:102B30001282C0912802D0912902209781F420812D
:102B40003181280F391F8091260290912702821728
:102B5000930779F5F0932702E09326026DC0DE011A
:102B600020E030E0AE17BF0750F412964D915C9113
:102B700013979D014115510509F1DA01F3CFB38394
:102B8000A28340815181840F951F8A179B0771F49E
:102B90008D919C911197840F951F0296918380834C
:102BA00012968D919C911397938382832115310501
:102BB00029F4F0932902E09328023EC0D90113962C
:102BC000FC93EE9312974D915D91A40FB51FEA17F8
:102BD000FB0779F480819181840F951F0296D901BA
:102BE00011969C938E938281938113969C938E93DE
:102BF0001297E0E0F0E08A819B81009719F0FE01D6
:102C0000EC01F9CFCE01029628813981820F931F02
:102C100020912602309127022817390769F430974E
:102C200029F4109229021092280202C01382128203
:102C3000D0932702C0932602DF91CF910895A0E0A0
:102C4000B0E0E5E2F6E10C94BB18FE013596619127
:102C50007191AF0180912C0290912D020E94331648
:102C6000E2E00C94D718ACE0B0E0E9E3F6E10C94B4
:102C7000AB187C016B018A01FC01178216828381EB
:102C800081FFBDC1CE0101964C01F7019381F60190
:102C900093FD859193FF81916F01882309F4ABC166
:102CA000853239F493FD859193FF81916F018532CF
:102CB00029F4B70190E00E941B18E7CF512C312C6A
:102CC00020E02032A0F48B3269F030F4803259F0E9
:102CD000833269F420612CC08D3239F0803339F4AD
:102CE000216026C02260246023C0286021C027FD07
:102CF00027C030ED380F3A3078F426FF06C0FAE0EE
:102D00005F9E300D1124532E13C08AE0389E300D83
:102D10001124332E20620CC08E3221F426FD6BC1AB
:102D2000206406C08C3611F4206802C0883641F455
:102D3000F60193FD859193FF81916F018111C1CFC0
:102D4000982F9F7D9554933028F40C5F1F4FFFE31D
:102D5000F9830DC0833631F0833771F0833509F084
:102D60005BC022C0F801808189830E5F1F4F44241D
:102D70004394512C540115C03801F2E06F0E711CC0
:102D8000F801A080B18026FF03C0652D70E002C06D
:102D90006FEF7FEFC5012C870E9410182C01830173
:102DA0002C852F77222E17C03801F2E06F0E711C90
:102DB000F801A080B18026FF03C0652D70E002C03D
:102DC0006FEF7FEFC5012C870E9405182C012C8521
:102DD0002068222E830123FC1BC0832D90E048161F
:102DE0005906B0F4B70180E290E00E941B183A94B3
:102DF000F4CFF50127FC859127FE81915F01B70192
:102E000090E00E941B1831103A94F1E04F1A5108DB
:102E10004114510471F7E5C0843611F0893639F553
:102E2000F80127FF07C060817181828193810C5F67
:102E30001F4F08C060817181882777FD8095982F8A
:102E40000E5F1F4F2F76B22E97FF09C09095809589
:102E5000709561957F4F8F4F9F4F2068B22E2AE06B
:102E600030E0A4010E944D18A82EA81844C0853750
:102E700029F42F7EB22E2AE030E025C0F22FF97F10
:102E8000BF2E8F36C1F018F4883579F0B4C0803782
:102E900019F0883721F0AFC02F2F2061B22EB4FE79
:102EA0000DC08B2D8460B82E09C024FF0AC09F2F4F
:102EB0009660B92E06C028E030E005C020E130E081
:102EC00002C020E132E0F801B7FE07C060817181E5
:102ED000828193810C5F1F4F06C06081718180E009
:102EE00090E00E5F1F4FA4010E944D18A82EA81855
:102EF000FB2DFF77BF2EB6FE0BC02B2D2E7FA5140A
:102F000050F4B4FE0AC0B2FC08C02B2D2E7E05C0C2
:102F10007A2C2B2D03C07A2C01C0752C24FF0DC0F8
:102F2000FE01EA0DF11D8081803311F4297E09C074
:102F300022FF06C07394739404C0822F867809F030
:102F4000739423FD13C020FF06C05A2C731418F489
:102F5000530C5718732C731468F4B70180E290E097
:102F60002C870E941B1873942C85F5CF731410F4D2
:102F7000371801C0312C24FF12C0B70180E390E064
:102F80002C870E941B182C8522FF17C021FF03C02D
:102F900088E590E002C088E790E0B7010CC0822F7E
:102FA000867859F021FD02C080E201C08BE227FD46
:102FB0008DE2B70190E00E941B18A51438F4B70108
:102FC00080E390E00E941B185A94F7CFAA94F40172
:102FD000EA0DF11D8081B70190E00E941B18A1103D
:102FE000F5CF332009F451CEB70180E290E00E9482
:102FF0001B183A94F6CFF7018681978102C08FEFB4
:103000009FEF2C96E2E10C94C718FC0105906150EB
:1030100070400110D8F7809590958E0F9F1F0895EE
:10302000FC016150704001900110D8F78095909597
:103030008E0F9F1F08950F931F93CF93DF93182F29
:10304000092FEB018B8181FD03C08FEF9FEF20C023
:1030500082FF10C04E815F812C813D814217530752
:103060007CF4E881F9819F012F5F3F4F39832883EA
:10307000108306C0E885F985812F0995892B29F7EA
:103080002E813F812F5F3F4F3F832E83812F902FD3
:10309000DF91CF911F910F910895FA01AA2728304F
:1030A00051F1203181F1E8946F936E7F6E5F7F4F15
:1030B0008F4F9F4FAF4FB1E03ED0B4E03CD0670F91
:1030C000781F891F9A1FA11D680F791F8A1F911DE4
:1030D000A11D6A0F711D811D911DA11D20D009F434
:1030E00068943F912AE0269F11243019305D319376
:1030F000DEF6CF010895462F4770405D4193B3E05F
:103100000FD0C9F7F6CF462F4F70405D4A3318F005
:10311000495D31FD4052419302D0A9F7EACFB4E0B6
:10312000A6959795879577956795BA95C9F700976E
:103130006105710508959B01AC010A2E069457950F
:10314000479537952795BA95C9F7620F731F841F66
:10315000951FA01D08952F923F924F925F926F92FC
:103160007F928F929F92AF92BF92CF92DF92EF9217
:10317000FF920F931F93CF93DF93CDB7DEB7CA1B98
:10318000DB0B0FB6F894DEBF0FBECDBF09942A88C3
:10319000398848885F846E847D848C849B84AA846B
:1031A000B984C884DF80EE80FD800C811B81AA81F8
:1031B000B981CE0FD11D0FB6F894DEBF0FBECDBFC3
:0831C000ED010895F894FFCF22
:1031C8001F000000020000000013080000000018A3
:1031D8000C041060C08020000030022000583A2003
:1031E8002564200900593A2025642009005A3A200C
:0631F8002564200900001F
:00000001FF
