:100000000C948A020C94A7020C94A7020C94A702E9
:100010000C944E0B0C94770B0C94A00B0C94C90B06
:100020000C94A7020C942F0A0C94580A0C94810A81
:100030000C94FC0A0C94AA0A0C94D30A0C94250B79
:100040000C94B4090C94DD090C94060A0C94A702D4
:100050000C94A7020C94A7020C94A7020C94A7027C
:100060000C94A7020C94A7020C94A7020C94A7026C
:100070000C94A7020C94A7020C94A70207634236C3
:10008000B79BD8A71A39685618AEBAAB558C1D3C29
:10009000B7CC5763BD6DEDFD753EF6177231BF00ED
:1000A0000000803F08000000BE922449123EABAA27
:1000B000AA2ABECDCCCC4C3E00000080BEABAAAA82
:1000C000AA3E00000000BF000000803F00000000CA
:1000D00000084178D3BB4387D1133D190E3CC3BD03
:1000E0004282AD2B3E68EC8276BED98FE1A93E4CB0
:1000F00080EFFFBE01C4FF7F3F0000000000160537
:100100000100000000000000FA000000E000E00034
:1001100028FE28FE282454FE5448C4C81026466CE5
:1001200092AA44A000A0C0000000384482000082CF
:1001300044380028107C102810107C1010000A0C85
:100140000000101010101000060600000408102017
:10015000407C8A92A27C0042FE020042868A926221
:100160008482A2D28C182848FE08E4A2A2A29C3C59
:100170005292920C808E90A0C06C9292926C60927F
:10018000929478006C6C0000006A6C0000102844A7
:1001900082002828282828008244281040808A903D
:1001A000604C929E827C7E8888887EFE9292926CC1
:1001B0007C82828244FE82824438FE92929282FE47
:1001C000909090807C8292925EFE101010FE0082D1
:1001D000FE8200040282FC80FE10284482FE02029D
:1001E0000202FE403040FEFE201008FE7C82828229
:1001F0007CFE909090607C828A847AFE90989462D3
:10020000629292928C8080FE8080FC020202FCF856
:10021000040204F8FC021C02FCC6281028C6E010E8
:100220000E10E0868A92A2C200FE82820040201058
:100230000804008282FE0020408040200202020268
:10024000020080402000042A2A2A1EFE1222221CBC
:100250001C222222041C222212FE1C2A2A2A1810E6
:100260007E908040304A4A4A7CFE1020201E0022A8
:10027000BE0200040222BC00FE081422000082FE1E
:1002800002003E2018201E3E1020201E1C2222228A
:100290001C3E28282810102828183E3E1020201028
:1002A000122A2A2A0420FC2202043C0202043E38BC
:1002B000040204383C020C023C2214081422300AC6
:1002C0000A0A3C22262A322200106C82000000FE1C
:1002D000000000826C1000081010081000000000E0
:1002E000007F8181817F7F8383837F7F8787877F73
:1002F0007F8F8F8F7F7F9F9F9F7F7FBFBFBF7F7FBE
:10030000FFFFFF7F2040FF4020621517156500FBAF
:10031000FB00000000000000C0FF0300E0FF07003A
:10032000F0FF0F00F8FF1F0078001E0078001E008D
:1003300078001E0078001E0078001E0078001E0065
:1003400078001E0078001E0078001E0000000000EB
:100350000000000080FF0300E0FF0700F0FF0F0037
:10036000F8FF1F00F83C1F00783C1E00783C1E0080
:10037000783C1E00783C1E00783C1E00783C1E0035
:10038000783C1E00783C1E00783C1E00783C1E0025
:100390000000000000000000E0FF0300F0FF070085
:1003A000F8FF0F00F8FF1F00783C1E00783C1E008D
:1003B000783C1E00783C1E00783C1E00783C1E00F5
:1003C000783C1E00783C1E00783C1E00783C1E00E5
:1003D0000000000000000000F8FF0300F8FF0F001D
:1003E000F8FF1F00F8FF1F0000001E0000001E00A5
:1003F00000801F0000F01F0000FF0F00E0FF07005B
:10040000F0FF0000F80F0000F80000007800000086
:1004100078000000F8FF1F00F8FF1F00F0FF1F002A
:10042000E0FF1F000000000000000000F8FF1F00B8
:10043000F8FF1F00F8FF1F00F8FF1F0078001E00E4
:10044000783C1E00783C1E00783C1E00783C1E0064
:10045000783C1E00783C1E00F87E1F00F8FF1F004D
:10046000F0FF0F00E0E7030000000000000038008C
:10047000EEFF6C002A8045003A0047FC03FF6CFC4D
:1004800083FF3900DEFF0B7CD0810BFCD0810BC0D9
:10049000D0810BFCD0810B7CDEFF0B0082FF39701A
:1004A00002FF6CF83A0047DC2A8045CCEEFF6CCCAA
:1004B000000038000000000C00001E0C00001E00B0
:1004C00000001E0000001E0000001E00F8FF1F00BC
:1004D000F8FF1F00F8FF1F00F8FF1F0000001E00BC
:1004E00000001E0000001E0000001E0000005E0054
:1004F0000000400000007C000000400000004000C0
:1005000000007C00000030000000100000003000FF
:1005100000007C0011241FBECFEFD8E0DEBFCDBFAE
:1005200011E0A0E0B1E0E4E5FCE302C005900D922B
:10053000A034B107D9F722E0A0E4B1E001C01D92D8
:10054000AA32B207E1F70E9422030C94281E0C94F1
:1005500000008FE00E941C09882311F082E003C094
:100560000E94170381E0992708958FE00E942A09CD
:10057000882319F480E090E0089580917A008064E7
:1005800080937A0080917A00829586958695837013
:1005900080FDF8CF20917800809179009927982FDD
:1005A00088273327822B932B0895ECE7F0E0908186
:1005B0009F738295880F880F807C982B9083089575
:1005C000582F80910001652F77278830D0F4409113
:1005D0007E0021E030E0F90102C0EE0FFF1F8A9596
:1005E000E2F7CF018095842380937E0080917E0086
:1005F00002C0220F331F6A95E2F7822B80937E00A0
:100600000CC020917E0081E090E002C0880F991F0D
:100610006A95E2F7282B20937E0050930001809189
:100620007C00807E5F71852B80937C0008958FE134
:1006300080937C00EAE7F0E087E080838081806837
:10064000808308950E94B2090E94A4090E949F1508
:1006500080E090E008950F931F9385E00E941C09AD
:10066000882311F082E07BC00E943C04182F0E9476
:1006700037091150123008F06EC08150823008F0F6
:100680006AC00E943A0460E08EEA0E941F0460E0A3
:1006900082EA0E941F0460E080EA0E941F0400E5D5
:1006A00013ECC8010197F1F760E080EC0E941F0491
:1006B00060E08FE20E941F0460E081E80E941F0456
:1006C00060E086E10E941F0460E082E20E941F0455
:1006D000C8010197F1F760E08FEA0E941F0460E013
:1006E00086EA0E941F0460E085EA0E941F0420E061
:1006F00030E0E8E8F3E1CF010197F1F72F5F3F4FDA
:1007000093E0283E3907B9F760E083EB0E941F04AD
:1007100060E080E40E941F0460E083E00E94B30375
:1007200060E083E00E940D041092C2011092C401A7
:100730001092C30181E091E09093270280932602FA
:1007400088E10E94EC030E94040C60E084EA0E94AD
:100750001F0481E004C085E00E940B0987E099270F
:100760001F910F910895FF920F931F93082FF62E5C
:1007700085E00E942A098823A1F01F2D1F770370AE
:1007800060E0802F806B0E941F0412951F7060E054
:10079000812F80610E941F0460E08F2D8F700E9466
:1007A0001F041F910F91FF9008950F931F93082F1F
:1007B000162F85E00E942A09882359F0812F1531D0
:1007C00008F084E166E0869FB0011124802F0E942A
:1007D0000D041F910F9108951F93182F85E00E941B
:1007E0002A098823C1F087E00E947F046AE082E042
:1007F0000E94DE0461EB82E00E94DE04612F113270
:1008000008F060E282E00E94DE0489EE8A95F1F74A
:1008100087E00E947F041F9108950F931F93082F74
:10082000162F85E00E942A09882331F003701F7774
:100830001093C0010093C1011F910F9108950F9370
:100840001F93082F162F85E00E942A09882379F02C
:10085000112319F0113021F402C02B9801C02B9AFA
:1008600086E08A95F1F7602F80E00E94DE041F91F8
:100870000F910895239A089582E00E941C0988230D
:1008800011F082E031C00E94ED0461E67DE080E07D
:100890000E94760469E57DE081E00E94760461E5CE
:1008A0007DE082E00E94760460E47DE086E00E94C4
:1008B000760469E47DE083E00E94760469E47DE0EB
:1008C00084E00E94760469E47DE085E00E9476047D
:1008D00069E47DE087E00E9476048FEF8093C50194
:1008E00087E00E947F0481E099270895E82FFF2781
:1008F000EE0FFF1FEC57FE4F7183608308951F9327
:10090000182F82E00E942A09882309F455C0912FEC
:1009100097708091C501981709F44EC09093C50156
:1009200085B1887F892B85B9933051F1943028F4B3
:10093000913051F09230B0F40EC0953079F195308D
:1009400030F1963091F515C0E0918601F091870164
:10095000309791F130C0E0918401F091850130979A
:1009600059F129C0E0918801F0918901309721F176
:1009700022C0E0919001F09191013097E9F01BC005
:10098000E0918A01F0918B013097B1F014C0E091B1
:100990008C01F0918D01309779F00DC0E0918E01BE
:1009A000F0918F01309741F006C0E0919201F091F3
:1009B0009301309709F009951F9108951F93162F01
:1009C0000E947F0482E00E942A09882321F01EBD34
:1009D0000DB407FEFDCF1F910895259A2698279AFA
:1009E000209A219A229A08952F923F924F925F92D5
:1009F0006F927F928F929F92AF92BF92CF92DF922F
:100A0000EF92FF920F931F93CF93DF93CDB7DEB793
:100A100022970FB6F894DEBF0FBECDBF382E962EAC
:100A2000242E290138011C2DBA82A982B82C6B8D85
:100A30007C8DAD8C81E0981609F1981628F092E033
:100A4000991609F062C039C0B70180E00E94C00663
:100A50004DEFC42E41E0D42E31E0E32E012F93015F
:100A6000A201622D80E00E947B07332009F04DC077
:100A700089819A819F938F931F9219C081E00E9470
:100A8000C0062DEFC22E21E0D22E91E0E92E0A2DD4
:100A9000298D3A8D4F89588D682D81E00E947B0702
:100AA000332099F58E8D9F8D9F938F939F920E94F7
:100AB00092080F900F900F9028C0C7010E94E10686
:100AC0008DEF91E09F938F9381E0882EC98CDA8C13
:100AD000EF88F88C0B2D212FA301B201822D0E94EB
:100AE0000D080F900F90332081F48E8D9F8D9F9372
:100AF0008F9389819A819F938F939F920E949208EE
:100B00000F900F900F900F900F9022960FB6F894C1
:100B1000DEBF0FBECDBFDF91CF911F910F91FF9030
:100B2000EF90DF90CF90BF90AF909F908F907F908D
:100B30006F905F904F903F902F9008958F929F926B
:100B4000AF92BF92CF92DF92EF92FF920F931F93DB
:100B5000CF93DF93CDB7DEB7562F942EAC2DEF8514
:100B6000F889C988DA886B897C894D898130C1F11F
:100B7000813030F1823009F04CC0513071F0513089
:100B800020F0523009F045C011C0B70180E00E944A
:100B9000C006A801692D80E006C081E00E94C00661
:100BA000A601682D81E00E948C0633C0C7010E9417
:100BB000E1069601482DB801892D0E94A30629C09F
:100BC0008E899F899F938F934F937F936F93DF922B
:100BD000CF92FF93EF93CA2E492D652F80E00FC06F
:100BE0001F921F924F937F936F93DF92CF92FF9349
:100BF000EF93AA24BB24CA2E492D652F81E00E94C1
:100C0000F4048DB79EB709960FB6F8949EBF0FBE39
:100C10008DBFDF91CF911F910F91FF90EF90DF90EB
:100C2000CF90BF90AF909F908F90089587E00E94E3
:100C30001C09882311F082E06DC00E94010981E047
:100C40008093FC011092C6011092C7011092C90155
:100C50001092C8011092CB011092CA011092CD01DE
:100C60001092CC011092CF011092CE011092D101BE
:100C70001092D0011092D3011092D2011092D5019E
:100C80001092D4011092D7011092D6011092D9017E
:100C90001092D8011092DB011092DA011092DD015E
:100CA0001092DC011092DF011092DE011092E4013B
:100CB0001092E5011092E6011092E7011092E9010D
:100CC0001092EA011092EB011092EC011092ED01EA
:100CD0001092EE011092EF011092F1011092F001CA
:100CE0001092F3011092F2011092F5011092F401AA
:100CF0001092F7011092F6011092E1011092E001BA
:100D00001092E3011092E2011092FB011092FA019D
:100D10001092FC0199270895EF92FF920F931F9371
:100D2000182F062F7A0160E00E941C07602F812F88
:100D30000E94FD06B701812F0E9431071F910F917C
:100D4000FF90EF900895CF92DF92EF92FF920F9372
:100D50001F93C82E7B01D42E890160E082E00E949F
:100D60001C076D2D8C2D0E941207B801C7010E942F
:100D70005D071F910F91FF90EF90DF90CF90089546
:100D8000982F81E08093FC0183E0693E780710F0A2
:100D900068EE73E0913071F0913018F0923071F498
:100DA00005C07093D1016093D00108C07093D10148
:100DB0006093D0017093D3016093D2011092FC0133
:100DC000089521E02093FC01F89423E0893E9207E6
:100DD00010F088EE93E09093D1018093D00183E0EE
:100DE000693E780710F068EE73E07093D30160936A
:100DF000D20178941092FC010895982F81E080939D
:100E0000FC01913051F0913018F0923041F403C060
:100E10006093E90104C06093E9016093EA011092D4
:100E2000FC01089591E09093FC018093E9016093A7
:100E3000EA011092FC010895982F81E08093FC0153
:100E4000913051F0913018F0923041F403C060932A
:100E5000C60104C06093C6016093C7011092FC01F3
:100E60000895982F81E08093FC0181E06139780733
:100E700010F060E971E0913061F0913018F092303B
:100E8000C9F40EC0F8947093C9016093C8017894B6
:100E900011C0F8947093CB016093CA0178940AC092
:100EA000F8947093C9016093C8017093CB0160936B
:100EB000CA0178941092FC0108959C0181E080930E
:100EC000FC01F89481E06139780710F060E971E085
:100ED0007093CB016093CA01C90121E08139920767
:100EE00010F080E991E09093C9018093C801789453
:100EF0001092FC0108958F929F92AF92BF92CF9271
:100F0000DF92EF92FF920F931F93CF93DF93182FEF
:100F1000F62E4A015901E60187E00E942A0988233A
:100F200009F46EC061E0812F0E941C07A501B40185
:100F3000812F0E94420F6F2D812F0E94FD06602F8E
:100F4000812F0E942D0FB401812F0E94040FCD2804
:100F500099F0113049F0113018F0123069F406C0E0
:100F600018821092F80108C0198204C018821982F0
:100F70001092F8011092F901D093FB01C093FA018D
:100F8000EE20B9F580E491E09093FB018093FA01A3
:100F9000B501812F0E943107812F0E94EF0E113081
:100FA00071F0113018F0123059F512C01092400152
:100FB0001092F80180914001882311F5FBCF109227
:100FC00041011092F901809141018823C9F4FBCFBE
:100FD00010924001109241011092F8011092F90113
:100FE000809140018823E1F3809141018823C1F37E
:100FF00007C0B501812F0E943107812F0E94EF0E9B
:10100000DF91CF911F910F91FF90EF90DF90CF90E4
:10101000BF90AF909F908F9008953F924F925F92B4
:101020006F927F928F929F92AF92BF92CF92DF92F8
:10103000EF92FF920F931F93CF93DF93CDB7DEB75D
:10104000382E2B013A01922EB02E0C891D8987E093
:101050000E942A09882309F453C061E082E00E94BB
:101060001C07A301B20180E00E94420FA601B70154
:1010700081E00E94420F6B2D832D0E941207692D83
:1010800080E00E942D0F6A2D81E00E942D0FB70194
:10109000C2010E941F0F0115110539F0F8011082DD
:1010A00011821092F8011092F9011093FB01009344
:1010B000FA018820F1F482E491E09093FB0180939F
:1010C000FA01B601C3010E945D0782E00E94EF0EA3
:1010D00010924201109243011092F8011092F9010E
:1010E000809142018823E1F3809143018823C1F379
:1010F00007C0B601C3010E945D0782E00E94EF0EA7
:10110000DF91CF911F910F91FF90EF90DF90CF90E3
:10111000BF90AF909F908F907F906F905F904F9017
:101120003F900895CF92DF92EF92FF920F931F931B
:10113000CF93DF93CDB7DEB722970FB6F894DEBF1B
:101140000FBECDBF1D8587E00E942A09882309F4C0
:1011500049C0113099F0113020F0123009F042C02E
:101160001BC0CE0140969A838983EE85FF858091CE
:10117000FD018823E1F33097A9F10CC0CE01409620
:101180009A838983EE85FF858091FE018823E1F3B0
:10119000309741F1099526C0CE84DF84CE01429676
:1011A0009A838983E888F98800E010E0002351F4ED
:1011B0008091FD01882331F0C114D10411F0F601B2
:1011C000099501E0112351F48091FE01882331F04B
:1011D000E114F10411F0F701099511E0002331F356
:1011E000112321F322960FB6F894DEBF0FBECDBFB8
:1011F000DF91CF911F910F91FF90EF90DF90CF90F3
:1012000008953A9A3B9A3C9A3D9A3E9A3F9A88B101
:10121000837088B90895853160F4E82FFF27E5557C
:10122000FE4F8081882329F08081815080838081D6
:1012300001C08FEF99270895853110F080E008C034
:10124000E82FFF27E555FE4F80818F5F8083815017
:1012500099270895853110F080E007C0E82FFF2717
:10126000E555FE4F8081811181E099270895CF9344
:10127000DF93CDB7DEB723970FB6F894DEBF0FBE6E
:10128000CDBF81E00E941C09882311F082E011C0CB
:101290000E943C048150823040F40E946309CE01D8
:1012A00001960E94960F81E004C081E00E940B0924
:1012B00087E0992723960FB6F894DEBF0FBECDBF07
:1012C000DF91CF91089510921402109213021092A0
:1012D0001602109215021092180210921702109224
:1012E0001A021092190210921C0210921B0280E93D
:1012F00091E0909300028093FF019093020280930B
:10130000010290930402809303029093060280935B
:101310000502909308028093070284E398E090937B
:101320000A028093090290930C0280930B0290931F
:101330000E0280930D029093100280930F029093FF
:1013400012028093110208950E947F0F0E94DE0C0A
:101350000E94F20B0E9440100E943C040E94370938
:1013600078940895000008951F920F920FB60F927F
:1013700011242F933F934F935F936F937F938F939A
:101380009F93AF93BF93EF93FF93E0916401F0912C
:101390006501309709F00995FF91EF91BF91AF91E9
:1013A0009F918F917F916F915F914F913F912F917D
:1013B0000F900FBE0F901F9018951F920F920FB6AF
:1013C0000F9211242F933F934F935F936F937F93CB
:1013D0008F939F93AF93BF93EF93FF93E091660139
:1013E000F0916701309709F00995FF91EF91BF9156
:1013F000AF919F918F917F916F915F914F913F91AD
:101400002F910F900FBE0F901F9018951F920F9263
:101410000FB60F9211242F933F934F935F936F93C7
:101420007F938F939F93AF93BF93EF93FF93E0913D
:101430006801F0916901309709F00995FF91EF91EA
:10144000BF91AF919F918F917F916F915F914F91DC
:101450003F912F910F900FBE0F901F9018951F92E4
:101460000F920FB60F9211242F933F934F935F93D8
:101470006F937F938F939F93AF93BF93EF93FF935C
:10148000E0915601F0915701309709F00995FF91CD
:10149000EF91BF91AF919F918F917F916F915F91EC
:1014A0004F913F912F910F900FBE0F901F90189565
:1014B0001F920F920FB60F9211242F933F934F93C9
:1014C0005F936F937F938F939F93AF93BF93EF93AC
:1014D000FF93E0915801F0915901309709F0099577
:1014E000FF91EF91BF91AF919F918F917F916F91FC
:1014F0005F914F913F912F910F900FBE0F901F90D2
:1015000018951F920F920FB60F9211242F933F93AD
:101510004F935F936F937F938F939F93AF93BF93FB
:10152000EF93FF93E0915A01F0915B01309709F03E
:101530000995FF91EF91BF91AF919F918F917F910D
:101540006F915F914F913F912F910F900FBE0F9030
:101550001F9018951F920F920FB60F9211242F9380
:101560003F934F935F936F937F938F939F93AF932B
:10157000BF93EF93FF93E0915E01F0915F0130978D
:1015800009F00995FF91EF91BF91AF919F918F91D4
:101590007F916F915F914F913F912F910F900FBE6F
:1015A0000F901F9018951F920F920FB60F92112453
:1015B0002F933F934F935F936F937F938F939F935B
:1015C000AF93BF93EF93FF93E0916001F0916101BE
:1015D000309709F00995FF91EF91BF91AF919F91DD
:1015E0008F917F916F915F914F913F912F910F90CC
:1015F0000FBE0F901F9018951F920F920FB60F926B
:1016000011242F933F934F935F936F937F938F9307
:101610009F93AF93BF93EF93FF93E0915C01F091A1
:101620005D01309709F00995FF91EF91BF91AF915E
:101630009F918F917F916F915F914F913F912F91EA
:101640000F900FBE0F901F9018951F920F920FB61C
:101650000F9211242F933F934F935F936F937F9338
:101660008F939F93AF93BF93EF93FF93E0916201AA
:10167000F0916301309709F00995FF91EF91BF91C7
:10168000AF919F918F917F916F915F914F913F911A
:101690002F910F900FBE0F901F9018951F920F92D1
:1016A0000FB60F9211242F933F934F935F936F9335
:1016B0007F938F939F93AF93BF93EF93FF93E091AB
:1016C0004C01F0914D01309709F00995FF91EF9190
:1016D000BF91AF919F918F917F916F915F914F914A
:1016E0003F912F910F900FBE0F901F9018951F9252
:1016F0000F920FB60F9211242F933F934F935F9346
:101700006F937F938F939F93AF93BF93EF93FF93C9
:10171000E0914E01F0914F01309709F00995FF914A
:10172000EF91BF91AF919F918F917F916F915F9159
:101730004F913F912F910F900FBE0F901F901895D2
:101740001F920F920FB60F9211242F933F934F9336
:101750005F936F937F938F939F93AF93BF93EF9319
:10176000FF93E0915001F0915101309709F00995F4
:10177000FF91EF91BF91AF919F918F917F916F9169
:101780005F914F913F912F910F900FBE0F901F903F
:1017900018951F920F920FB60F9211242F933F931B
:1017A0004F935F936F937F938F939F93AF93BF9369
:1017B000EF93FF93E0915201F0915301309709F0BC
:1017C0000995FF91EF91BF91AF919F918F917F917B
:1017D0006F915F914F913F912F910F900FBE0F909E
:1017E0001F90189580E10E941C09882311F082E067
:1017F00009C0E4E4F1E01192119281E0E438F807C5
:10180000D1F781E0992708951F93CF93DF9385E067
:101810000E942A098823D1F060E080E40E941F041E
:10182000C0E0D0E060E08C2F0E94B30310E061E0E4
:1018300080E00E941F041F5F1038C9F72196C43052
:10184000D10581F760E083E00E940D04DF91CF9124
:101850001F9108950F931F93CF93DF93082F1127A4
:101860008A3091F08B3040F4883091F1893020F546
:10187000873009F049C037C08D3049F08B3181F095
:101880008C3009F041C006C01092C00103C0109214
:10189000C0017AC08091C10181508093C10174C0A0
:1018A0000E94040C7DC061E080E00E941F048091D2
:1018B000C0018F5F8093C0018091C00187FFF3CF8B
:1018C0001092C0018091C10181508093C10168C014
:1018D0008091C001882309F457C08091C0018650CF
:1018E0008093C00151C081E00E94400E24E630E0A8
:1018F0004DE750E064EF71E080E090E00E944D0E13
:1019000081E00E94910D40C06091C0018091C101B1
:101910000E94B303E801CC0FDD1FCC0FDD1FC00F09
:10192000D11FCF59DF4F10E0FE01849161E00E948A
:101930001F041F5F21961530B9F761E080E00E9417
:101940001F048091C0018A5F8093C0018091C00113
:1019500099278C3791053CF01092C0018091C1010C
:1019600081508093C1018091C10183708093C10136
:101970008091C2018130D9F4E091C301F091C4019A
:101980003097A9F0099513C06091C0018091C10101
:101990000E94B3038091C10183708093C10107C08D
:1019A0006091C0018091C1010E94B303DCCF80E04F
:1019B00090E0DF91CF911F910F910895F8940E94CC
:1019C0003D0D81E00E94E70C81E090E008958130B8
:1019D00071F0F894813059F0813030F08230C9F0E4
:1019E000833009F046C01AC080E090E020C02C9AF5
:1019F00080E8809361001092610080E090E0000038
:101A0000019688329105D9F71092680010926B0008
:101A1000089580E88093610083E004C080E88093AB
:101A2000610088E08093610026C0000001962DE6E9
:101A300080369207D1F72C9880E090E00000019664
:101A40002DE680369207D1F710927A008FEF8093BF
:101A500064008091680081608093680080916B00D1
:101A6000846080936B00789483B7816083BF88958E
:101A70000895823008F078940895249A2C9A089555
:101A800083E58CBD81E08DBD84EF91E00197F1F796
:101A9000089583E58CBD81E08DBD8DE08A95F1F7D9
:101AA000089583E58CBD1DBC84EF91E00197F1F7AB
:101AB00008958FE78CBD1DBC84EF91E00197F1F78D
:101AC000089583E58CBD81E08DBD8DE08A95F1F7A9
:101AD00008958AE00E940B09882329F481E00E947E
:101AE000A30E10929501089589E00E940B098823A6
:101AF000B9F480919401882311F00E94E90E82E0EC
:101B00000E94A30E8091A2019091A301009731F051
:101B10000E94D61A1092A3011092A2011092940171
:101B20000895813029F0823029F40E94740D0895BF
:101B30000E94690D0895CF92DF92EF92FF920F936A
:101B40001F93CF93DF9380E291E00E943E1AEC0155
:101B50009093A3018093A201892B11F480E044C0EB
:101B6000CC24DD24EE24FF248701C801B7010E94A4
:101B70006417D7FE06C020E030E040E857E40E943A
:101B8000961620E030E040EA51E40E94FA1627EF72
:101B900035E740E05FE30E942A189B01AC0160E05A
:101BA00070E080E291E40E948D182DEC3CEC42E85C
:101BB00051E40E942A180E94F0172AE030E040E029
:101BC00050E00E94F219699379938993999308944C
:101BD000C11CD11C0894E11CF11C011D111D88E4DD
:101BE000C816D10411F681E09927DF91CF911F919A
:101BF0000F91FF90EF90DF90CF9008958AE00E94C0
:101C00001C09882311F082E00AC010929F011092F3
:101C10009E0181E00E94BF0E81E08093950199278B
:101C200008951F9389E00E941C09882311F082E027
:101C300024C08BE00E942A098823D9F40E949B0DBE
:101C4000182F813011F086E018C010929601109282
:101C50009701109298011092990169E071E18DE06D
:101C60000E94D51082E00E94BF0E1093940181E083
:101C700004C089E00E940B0987E099271F9108950D
:101C8000813021F0823029F084E005C00E94FE0DF1
:101C900002C00E94110E992708956F927F928F9231
:101CA0009F92AF92BF92CF92DF92EF92FF920F93EB
:101CB0001F93CF93DF933B014C015A01E9018AE066
:101CC0000E942A09882381F1209741F1B5018827D4
:101CD00077FD8095982F9E01C536D10510F024E63A
:101CE00030E0442755270E94F21924E630E040E016
:101CF00050E00E94021A79018A01C401B3010E94D6
:101D00000C11C7010E94D30F60E070E080E090E00A
:101D10000E940C11C5018E199F0904C0A114B104C1
:101D200019F0C5010E94D30FDF91CF911F910F9140
:101D3000FF90EF90DF90CF90BF90AF909F908F90EB
:101D40007F906F900895823029F4809181008E7F7A
:101D50008093810080919401813031F480919501CC
:101D6000813011F40000089580919401813021F0B8
:101D700080919501813011F45F9857980895982FBC
:101D800080919401882331F480919501882311F486
:101D9000579A5F98809194018823D1F49230C1F4CE
:101DA0001092800010928100809181008860809361
:101DB0008100809181008160809381001092850074
:101DC0001092840081E08093890080E980938800EC
:101DD0000895EFE6F0E080818D7F80830895982F4D
:101DE00081E08093FC01913051F0913018F09230F5
:101DF00041F403C01092E40104C01092E401109277
:101E0000E5011092FC010895982F81E08093FC0178
:101E1000913071F0913018F0923071F405C07093E8
:101E2000D9016093D80108C07093D9016093D8019B
:101E30007093DB016093DA011092FC01089521E0B8
:101E40002093FC019093D9018093D8017093DB011A
:101E50006093DA011092FC010895982F81E080933D
:101E6000FC01913051F0913018F0923041F403C0F0
:101E70006093E60104C06093E6016093E70110926D
:101E8000FC0108950F931F93CF93DF938B01EA0119
:101E9000813031F1813018F0823061F513C08091CA
:101EA000D0019091D101892B11F080E008C01092EF
:101EB000DD011092DC011EC0AE01B80181E00E947C
:101EC000711118C08091D0019091D101892B21F01E
:101ED00080E00E94711104C01092DD011092DC01BB
:101EE0008091D2019091D301892B31F71092DF01BB
:101EF0001092DE01DF91CF911F910F910895CF9342
:101F0000DF93C0E0D0E060E08C2F0E948E0F21961E
:101F1000C531D105C1F7DF91CF910895853128F4FE
:101F2000E82FFF27E555FE4F608308951F93CF9359
:101F3000DF93EC01892B99F181E00E942A09882323
:101F400051F187E00E947F0418EC812F8A95F1F708
:101F50006AE082E00E94DE0464EB82E00E94DE041C
:101F6000812F8A95F1F760E082E00E94F810888363
:101F7000812F8A95F1F760E082E00E94F810898352
:101F80001A95F1F760E082E00E94F8108A8387E0FA
:101F90000E947F0404C0188219828DE28A83DF9137
:101FA000CF911F9108950F931F93CF93DF93CDB7D8
:101FB000DEB729970FB6F894DEBF0FBECDBF8C01F8
:101FC00088E00E942A09882311F491E00DC098014D
:101FD00040E061E0CE0101960E940110982F882315
:101FE00019F48F818823E9F3892F992729960FB651
:101FF000F894DEBF0FBECDBFDF91CF911F910F913F
:102000000895EF92FF920F931F93CF93DF93EC010C
:10201000F62EE42E890188E00E942A09882311F413
:1020200081E026C084E090E00E943E1AFC01892BEA
:1020300011F482E01DC0F982F0FC1E8281E0E816F6
:1020400019F48981846089838981886089831B83ED
:102050000A831D830C83D183C0831382128281E0A3
:102060008093A401CF010E9466101092A40180E029
:102070009927DF91CF911F910F91FF90EF900895D5
:1020800088E00E941C09882311F082E014C010929D
:102090001D0210921F0210921E021092A4011092B3
:1020A000A5016CED71E180E10E94E8100E945D10D5
:1020B0000E94CF1081E09927089584B5826084BD85
:1020C00085B5846085BD8EE487BD0895CF92DF928B
:1020D000EF92FF920F931F93CF93DF93EC018091C8
:1020E0001D02882339F4D0931F02C0931E020E9460
:1020F000E31147C0C0901E02D0901F0200E010E024
:10210000EE24FF2429C0A881B981FD016481758175
:10211000F60140815181FA01848195819B01281B40
:10212000390B37FF0AC0861B970B95838483DB82AC
:10213000CA82012BF1F0F70122C0F601828193815E
:102140002115310581F0FD01358324830097B1F01D
:102150000F5F1F4F76016C0180911D0299270817B0
:10216000190788F20BC0FD01158214829B838A83B4
:1021700005C0D0931F02C0931E0203C0F601D38393
:10218000C28380911D028F5F80931D02DF91CF91EA
:102190001F910F91FF90EF90DF90CF900895EEE6A2
:1021A000F0E08081826080830895E82F803268F4B7
:1021B0008051833050F0FF27EE0FFF1FEC5BFE4F86
:1021C0008081918171836083089580E090E008951B
:1021D000803218F080E090E00895E82FFF27EE0F9E
:1021E000FF1FEC5BFE4F80819181718360830895B6
:1021F0001F93162F0E947F0482E00E942A098823E1
:1022000029F01EBD0DB407FEFDCF8EB599271F9195
:1022100008950E9430110895EF92FF920F931F933B
:102220007B018C018AE00E942A098823A1F0809119
:102230009501882381F0D801C701880F991FAA1F33
:10224000BB1F9093A1018093A001E114F10401054B
:10225000110509F45F981F910F91FF90EF90089579
:102260008091960190919701A0919801B091990168
:1022700020919A0130919B0140919C0150919D01C8
:10228000820F931FA41FB51F80939601909397010F
:10229000A0939801B0939901809196019091970134
:1022A000A0919801B09199018851964FA040B040FB
:1022B000BCF08BB180588BB98091960190919701B9
:1022C000A0919801B09199018851964FA040B040DB
:1022D0008093960190939701A0939801B0939901F0
:1022E0000895EF92FF920F931F93CF93DF93EB012B
:1022F000882321F0813009F058C02CC0CA019C010C
:1023000044275527CA01B9010E94F2192091D00132
:102310003091D101220F331F442755270E94021A02
:1023200079018A01220F331F441F551FCE01AA27AE
:10233000BB2782179307A407B50728F0F092DD01A9
:10234000E092DC0132C0D695C795D093DD01C093F1
:10235000DC012BC0CA019C0144275527CA01B901E1
:102360000E94F2192091D2013091D301220F331F24
:10237000442755270E94021A79018A01220F331F30
:10238000441F551FCE01AA27BB2782179307A40716
:10239000B50728F0F092DF01E092DE0106C0D69585
:1023A000C795D093DF01C093DE01DF91CF911F91DC
:1023B0000F91FF90EF9008950E94E7110E9428125C
:1023C0000E940112089581E08093A501089588E09C
:1023D0000E942A09882311F484E011C08091A5018C
:1023E000882311F483E00BC08091A401882311F0AD
:1023F00082E005C00E9498148130E1F380E09927C3
:10240000089580919501813011F580919E01909100
:102410009F012091A0013091A101820F931F909301
:102420009F0180939E0180919E0190919F01885E03
:1024300093406CF08BB180588BB980919E01909144
:102440009F01885E934090939F0180939E01089521
:1024500087E00E942A09882309F4AAC08091D0014C
:102460009091D101892B09F18091F4019091F501AE
:102470002091D0013091D101820F931F9093F501EB
:102480008093F4018091F4019091F501885E93406E
:10249000A4F08091F4019091F501885E93409093AF
:1024A000F5018093F40141E009C08091C801909149
:1024B000C9019093CD018093CC0140E08091D2017D
:1024C0009091D301892B09F18091F6019091F70148
:1024D0002091D2013091D301820F931F9093F70185
:1024E0008093F6018091F6019091F701885E934008
:1024F000A4F08091F6019091F701885E934090934B
:10250000F7018093F60161E009C08091CA019091C2
:10251000CB019093CF018093CE0160E0842F0E9485
:10252000D9128091F0019091F1012091CC0130916C
:10253000CD01820F931F9093F1018093F001809160
:10254000F0019091F101885E934014F440E00BC0DB
:102550008091F0019091F101885E93409093F10198
:102560008093F00141E08091F2019091F30120917C
:10257000CE013091CF01820F931F9093F30180938E
:10258000F2018091F2019091F301885E934014F47E
:1025900060E00BC08091F2019091F301885E93405E
:1025A0009093F3018093F20161E0842F0E941E1347
:1025B00008958823F1F02091C8013091C9018091DC
:1025C000CC019091CD01281B390B1216130634F45F
:1025D0008091CC019091CD01019607C0232B49F049
:1025E0008091CC019091CD0101979093CD01809382
:1025F000CC01662311F12091CA013091CB01809169
:10260000CE019091CF01281B390B1216130654F4FA
:102610008091CE019091CF0101969093CF0180934C
:10262000CE010895232B49F08091CE019091CF01E6
:1026300001979093CF018093CE0108950F931F933C
:10264000082F162F8091FC01882309F0E3C08091A8
:10265000E401882309F05AC08091CC019091CD010A
:10266000892BE9F48091A601837E8093A6011092C4
:10267000ED018091F801882309F45BC06091E601C7
:1026800080E00E947314E091FA01F091FB01309711
:1026900009F44FC081E080831092F8014AC0809114
:1026A000C601813041F48091D8019091D901019700
:1026B00011F401E002C00023E1F19091A601937EA4
:1026C000E091EB01FF27E15FFE4F8081982B909313
:1026D000A6018091E901882321F48091EB018F5FAD
:1026E00003C08091EB0181508093EB018091EB015D
:1026F00083708093EB0181E08093ED018091C601AE
:102700008130B9F480E00E941D1413C09091A6019D
:10271000937EE091EB01FF27E15FFE4F8081982BD4
:102720009093A60182E08093ED011092CD0110926A
:10273000CC018091E501882309F059C08091CE0138
:102740009091CF01892BE9F48091A6018F7180933C
:10275000A6011092EE018091F901882309F45AC074
:102760006091E70181E00E947314E091FA01F09119
:10277000FB01309709F44EC081E081831092F9018A
:1027800049C08091C701813041F48091DA01909174
:10279000DB01019711F411E002C01123D9F19091EE
:1027A000A6019F71E091EC01FF27ED5EFE4F808155
:1027B000982B9093A6018091EA01882321F48091BF
:1027C000EC018F5F03C08091EC0181508093EC019C
:1027D0008091EC0183708093EC0181E08093EE01A5
:1027E0008091C7018130B1F40E941D1413C09091F3
:1027F000A6019F71E091EC01FF27ED5EFE4F808105
:10280000982B9093A60182E08093EE011092CF0165
:102810001092CE018091EF01882331F4412F602F77
:1028200086EA91E00E94071588B183709091A60115
:10283000892B88B91F910F9108951F93182F882312
:1028400021F0813009F04DC027C08091D8019091CE
:10285000D901892B49F08091D8019091D901019734
:102860009093D9018093D8018091F8018823C9F50C
:102870002091D8013091D9018091DC019091DD0146
:102880002817390771F560E070E080E00E94310799
:1028900081E08093F80125C08091DA019091DB01FD
:1028A000892B49F08091DA019091DB010197909397
:1028B000DB018093DA018091F901882391F4209162
:1028C000DA013091DB018091DE019091DF01281760
:1028D000390739F460E070E081E00E94310710931D
:1028E000F9011F9108950F931F93182F062F662348
:1028F00049F460E070E00E94310760E070E0812FF1
:102900000E94040F81E08093FC01113051F01130DE
:1029100018F0123041F403C00093E40104C00093A6
:10292000E4010093E5011092FC011F910F910895BD
:10293000FF920F931F93CF93DF9380911D02882303
:1029400009F459C000911E0210911F02F801C081C4
:10295000D1818C819D8101979D838C8318161906E6
:102960000CF449C0898180FF05C08E81882311F451
:1029700081E08E83898181FF03C0EF81F88509950D
:1029800080911D028230A8F0F8018281938190939A
:102990001F0280931E0213821282E0910000F091C8
:1029A000010084819581181619063CF081E0F82E0B
:1029B00005C010921F0210921E02FF2480911D027A
:1029C000815080931D0280911D02882311F40E9482
:1029D0000415898182FF08C08A819B819D838C8335
:1029E000C8010E94661008C0C8010E94D61A8981D9
:1029F0008F7E898301C0FF248F2D9927DF91CF918E
:102A00001F910F91FF9008951092A5010895FC0168
:102A10008091ED01823069F48091AA0191E08927CB
:102A20008093AA01882309F03EC08081837E808341
:102A30003AC08091CC019091CD01C397A4F5662353
:102A4000D1F02091CC013091CD0180E690E0BC0125
:102A5000269FC001279F900D369F900D1124880F4F
:102A6000892F881F990B9093E1018093E00181E009
:102A70008093A80118C08091A8018823A1F08091BB
:102A8000E0019091E10101979093E1018093E001D1
:102A90008091E0019091E101892B29F48081837E6E
:102AA00080831092A8018091EE01823069F48091B8
:102AB000A90191E089278093A901882309F03EC0EC
:102AC00080818F71808308958091CE019091CF0194
:102AD000C397A4F54423D1F02091CE013091CF01CA
:102AE00080E690E0AC01249FC001259F900D349FAB
:102AF000900D1124880F892F881F990B9093E30163
:102B00008093E20181E08093A70108958091A7015D
:102B10008823A1F08091E2019091E30101979093C5
:102B2000E3018093E2018091E2019091E301892B1E
:102B300029F480818F7180831092A70108952F92CC
:102B40003F924F925F926F927F928F929F92AF923D
:102B5000BF92CF92DF92EF92FF920F931F93CF938A
:102B6000DF930E942B030E941606C82F0E94A90221
:102B7000813009F0C7C0C13009F0C4C039E1D32E9B
:102B800044E6942E5AE2452E51E0552E64E3262E5B
:102B900061E0362E81E00E94D50284E00E94E002CE
:102BA0000E94B502EC01C43883E0D80768F51F9293
:102BB0001F921F921F92DF921F92DF921F929F928D
:102BC000812CA12CB12CC12C29E1E22EF12C09E1A0
:102BD00010E024E630E040E062E080E00E949E05E4
:102BE00061E083E00E94D503DF93CF93ADE1B1E0D4
:102BF000BF93AF930E94651BADB7BEB71D960FB6CE
:102C0000F894BEBF0FBEADBF83E00E94E0020E94F9
:102C1000B5028C0185E00E94E0020E94B5023C01F1
:102C20000538B3E01B0798F161E083E00E94D5030B
:102C30001F930F935F924F920E94651B0F900F900E
:102C40000F900F90C63B83E0D80708F51F921F92A4
:102C50001F921F92DF921F92DF921F929F92812CF0
:102C6000A12CB12CC12C99E1E92EF12C09E110E045
:102C700024E630E041E062E080E00E949E05ADB7CE
:102C8000BEB719960FB6F894BEBF0FBEADBFB5E87C
:102C90006B16B3E07B0608F47DCF61E083E00E9411
:102CA000D5037F926F923F922F920E94651B0F90E7
:102CB0000F900F900F90C63BD34008F06BCF1F9240
:102CC0001F921F921F92DF921F92DF921F929F927C
:102CD00088248394A12CB12CC12C89E1E82EF12CFD
:102CE00009E110E024E630E040E062E080E00E948C
:102CF0009E05ADB7BEB719960FB6F894BEBF0FBE0E
:102D0000ADBF48CFDF91CF911F910F91FF90EF9012
:102D1000DF90CF90BF90AF909F908F907F906F90FB
:102D20005F904F903F902F9008955058BB27AA274F
:102D30000ED01CC10DD130F012D120F031F49F3FE4
:102D400011F41EF402C10EF4E095E7FBF8C0E92F80
:102D50001ED180F3BA17620773078407950718F02E
:102D600071F49EF536C10EF4E0950B2EBA2FA02D0E
:102D70000B01B90190010C01CA01A0011124FF2728
:102D8000591B99F0593F50F4503E68F11A16F04023
:102D9000A22F232F342F4427585FF3CF4695379522
:102DA0002795A795F0405395C9F77EF41F16BA0BE7
:102DB000620B730B840BBAF09150A1F0FF0FBB1F95
:102DC000661F771F881FC2F70EC0BA0F621F731FDE
:102DD000841F48F4879577956795B795F7959E3F3B
:102DE00008F0B3CF9395880F08F09927EE0F9795C9
:102DF000879508950CD0BAC0B2D040F0A9D030F079
:102E000021F45F3F19F09BC05111E4C09EC0BFD0B8
:102E100098F39923C9F35523B1F3951B550BBB27A1
:102E2000AA2762177307840738F09F5F5F4F220F4E
:102E3000331F441FAA1FA9F333D00E2E3AF0E0E847
:102E400030D091505040E695001CCAF729D0FE2F93
:102E500027D0660F771F881FBB1F26173707480725
:102E6000AB07B0E809F0BB0B802DBF01FF279358DB
:102E70005F4F2AF09E3F510568F061C0ABC05F3FD5
:102E8000ECF3983EDCF3869577956795B795F795C3
:102E90009F5FC9F7880F911D9695879597F90895BB
:102EA000E1E0660F771F881FBB1F62177307840757
:102EB000BA0720F0621B730B840BBA0BEE1F88F766
:102EC000E0950895E89409C097FB3EF490958095AD
:102ED000709561957F4F8F4F9F4F9923A9F0F92FE0
:102EE00096E9BB279395F695879577956795B7955E
:102EF000F111F8CFFAF4BB0F11F460FF1BC06F5F44
:102F00007F4F8F4F9F4F16C0882311F096E911C055
:102F1000772321F09EE8872F762F05C0662371F076
:102F200096E8862F70E060E02AF09A95660F771F8A
:102F3000881FDAF7880F9695879597F9089597F97E
:102F40009F6780E870E060E008959FEF80EC08954F
:102F500000240A9416161706180609060895002478
:102F60000A9412161306140605060895092E0394F2
:102F7000000C11F4882352F0BB0F40F4BF2B11F466
:102F800060FF04C06F5F7F4F8F4F9F4F089557FDC5
:102F90009058440F551F59F05F3F71F04795880FC7
:102FA00097FB991F61F09F3F79F08795089512165E
:102FB00013061406551FF2CF4695F1DF08C016160A
:102FC00017061806991FF1CF8695710561050894BB
:102FD0000895E894BB2766277727CB0197F90895D2
:102FE000DEDFA8F19E57A8F1985160F039F19830D2
:102FF00070F5092E9927660F771F881F991F0A946D
:10300000D1F71CC0BB27993F4CF4B111B1E0B62BEE
:10301000672F782F8827985FB1F708C08695779536
:103020006795B79508F4B1609395C1F7BB0F30F47D
:1030300011F460FF03C06F5F7F4F8F4F3EF4909598
:103040008095709561957F4F8F4F9F4F089568943D
:10305000C1CFBFCF0BD08ACF7BDF28F080DF18F045
:10306000952309F06CCF71CF1124B4CF90DFA0F37A
:10307000959FD1F3950F50E0551F629FF001729F0D
:10308000BB27F00DB11D639FAA27F00DB11DAA1F2C
:10309000649F6627B00DA11D661F829F2227B00D79
:1030A000A11D621F739FB00DA11D621F839FA00D04
:1030B000611D221F749F3327A00D611D231F849F54
:1030C000600D211D822F762F6A2F11249F575040AB
:1030D0008AF0E1F088234AF0EE0FFF1FBB1F661F46
:1030E000771F881F91505040A9F79E3F510570F0FF
:1030F00026CF70CF5F3FECF3983EDCF38695779553
:103100006795B795F795E7959F5FC1F7FE2B880FF9
:10311000911D9695879597F90895FA01EE0FFF1F77
:1031200030962105310599F16115710561F48038FA
:10313000BFE39B0749F168949038810561F08038BE
:10314000BFEF9B0741F0992342F5FF3FE1053105B1
:10315000210511F1E8940894E795D901AA2329F4EF
:10316000AB2FBE2FF85FD0F310C0FF5F70F4A695B1
:10317000E0F7F73950F019F0FF3A38F49F779F9352
:103180000CD00F9007FC905808953EF0DECE60E022
:1031900070E080E89FE308954FE79F775F934F9338
:1031A0003F932F939ED02F913F914F915F9152DF8C
:1031B00005C019F40EF0C3CE0CCFC7CEF0DEC8F3B5
:1031C0009638C0F707F80F92E8942BE33AEA48EBF9
:1031D0005FE74EDF0F920F920F924DB75EB70F92DF
:1031E000C0D0ECE7F0E016D04F915F91EF91FF91E6
:1031F000E595EE1FFF1F49F0FE57E0684427EE0FEC
:10320000441FFA95E1F74195550B32D00F9007FE18
:1032100026C00895DF93CF931F930F93FF92EF92F1
:10322000DF927B018C01689405C0DA2EEF011EDF6E
:10323000FE01E894A5912591359145915591AEF304
:10324000EF0185DDFE019701A801DA9479F7DF909F
:10325000EF90FF900F911F91CF91DF9108959B0107
:10326000AC0160E070E080E89FE3C4CD68CEACC004
:1032700096DEE8F39923D9F3940F511DBBF39150D7
:10328000504094F059F0882332F0660F771F881F62
:1032900091505040C1F79E3F510544F7880F911D52
:1032A0009695879597F908955F3FACF0983E9CF00E
:1032B000BB27869577956795B79508F4B160939588
:1032C000C1F7BB0F58F711F460FFE8CF6F5F7F4F76
:1032D0008F4F9F4FE3CF7ECE0EF076C036CE6894F0
:1032E0002ECE5DDEC8F39923D1F3C6F3DF93CF93DF
:1032F0001F930F93FF92C92FDD2788232AF0219770
:10330000660F771F881FDAF720E030E040E85FEBB8
:103310009FE3883920F0803E30F021968F7706DDDC
:10332000E4EAF0E003C002DDE1EDF0E073DF8B01E1
:10333000BE01EC01FB2E6F5771097595771F880B45
:10334000990BC2DD28E132E741E35FE38FDEAF2D69
:103350009801AE01FF900F911F91CF91DF91F7DCA3
:1033600005CEFA01DC01AA0FBB1F9B01AC01BF57C0
:1033700028F422273327442750781FC0B75188F4F8
:10338000AB2F0024469537952795011CA395D2F3C2
:10339000002069F0220F331F441FB395DAF30DD0DC
:1033A000C4CC61307105A0E88A07B94630F49B01AE
:1033B000AC016627772788279078309621F0208304
:1033C00031834283538308959F3F31F0915020F41D
:1033D000879577956795B795880F911D96958795F1
:1033E00097F90895DB018F939F930E94241ABF9150
:1033F000AF91A29F800D911DA39F900DB29F900D44
:1034000011240895A1E21A2EAA1BBB1BFD010DC0B9
:10341000AA1FBB1FEE1FFF1FA217B307E407F50784
:1034200020F0A21BB30BE40BF50B661F771F881F60
:10343000991F1A9469F760957095809590959B01F6
:10344000AC01BD01CF0108950E942F1AA59F900DD8
:10345000B49F900DA49F800D911D11240895A29FEB
:10346000B001B39FC001A39F700D811D1124911D58
:10347000B29F700D811D1124911D0895CF93DF938C
:103480008230910510F482E090E0E0912202F09108
:10349000230220E030E0A0E0B0E0309739F1408135
:1034A000518148175907B8F04817590771F48281BC
:1034B0009381109729F013969C938E9312972CC0AA
:1034C000909323028093220227C02115310531F009
:1034D0004217530718F0A901DB0101C0EF019A015F
:1034E000BD01DF010280F381E02DD7CF2115310529
:1034F000F9F0281B390B2430310580F48A819B8137
:103500006115710521F0FB019383828304C09093C0
:10351000230280932202FE01329644C0FE01E20F94
:10352000F31F8193919322503109398328833AC044
:103530002091200230912102232B41F42091190186
:1035400030911A013093210220932002209117011B
:10355000309118012115310541F42DB73EB7409146
:103560001B0150911C01241B350BE0912002F091AE
:103570002102E217F307A0F42E1B3F0B281739078F
:1035800078F0AC014E5F5F4F2417350748F04E0FBF
:103590005F1F50932102409320028193919302C0B8
:1035A000E0E0F0E0CF01DF91CF910895CF93DF937A
:1035B000009709F487C0FC01329713821282C091F0
:1035C0002202D0912302209781F420813181280F9B
:1035D000391F80912002909121028217930779F57B
:1035E000F0932102E09320026DC0DE0120E030E084
:1035F000AE17BF0750F412964D915C9113979D0141
:103600004115510509F1DA01F3CFB383A28340815B
:103610005181840F951F8A179B0771F48D919C919E
:103620001197840F951F02969183808312968D9136
:103630009C911397938382832115310529F4F0938C
:103640002302E09322023EC0D9011396FC93EE932D
:1036500012974D915D91A40FB51FEA17FB0779F4FE
:1036600080819181840F951F0296D90111969C93B8
:103670008E938281938113969C938E931297E0E0B0
:10368000F0E08A819B81009719F0FE01EC01F9CFEF
:10369000CE01029628813981820F931F209120024A
:1036A000309121022817390769F4309729F41092D4
:1036B00023021092220202C013821282D0932102AE
:1036C000C0932002DF91CF910895A0E0B0E0EBE637
:1036D000FBE10C94011EFE01359661917191AF01E1
:1036E00080912602909127020E94791BE2E00C94BF
:1036F0001D1EACE0B0E0EFE7FBE10C94F11D7C0196
:103700006B018A01FC0117821682838181FFBDC192
:10371000CE0101964C01F7019381F60193FD85914D
:1037200093FF81916F01882309F4ABC1853239F48D
:1037300093FD859193FF81916F01853229F4B70143
:1037400090E00E94611DE7CF512C312C20E0203207
:10375000A0F48B3269F030F4803259F0833269F48E
:1037600020612CC08D3239F0803339F4216026C0BD
:103770002260246023C0286021C027FD27C030EDCF
:10378000380F3A3078F426FF06C0FAE05F9E300D1D
:103790001124532E13C08AE0389E300D1124332E8D
:1037A00020620CC08E3221F426FD6BC1206406C05D
:1037B0008C3611F4206802C0883641F4F60193FD7E
:1037C000859193FF81916F018111C1CF982F9F7DCA
:1037D0009554933028F40C5F1F4FFFE3F9830DC01D
:1037E000833631F0833771F0833509F05BC022C036
:1037F000F801808189830E5F1F4F44244394512C2C
:10380000540115C03801F2E06F0E711CF801A08060
:10381000B18026FF03C0652D70E002C06FEF7FEF1F
:10382000C5012C870E94561D2C0183012C852F7702
:10383000222E17C03801F2E06F0E711CF801A08033
:10384000B18026FF03C0652D70E002C06FEF7FEFEF
:10385000C5012C870E944B1D2C012C852068222E2F
:10386000830123FC1BC0832D90E048165906B0F459
:10387000B70180E290E00E94611D3A94F4CFF50117
:1038800027FC859127FE81915F01B70190E00E949E
:10389000611D31103A94F1E04F1A5108411451045E
:1038A00071F7E5C0843611F0893639F5F80127FF44
:1038B00007C060817181828193810C5F1F4F08C0B6
:1038C00060817181882777FD8095982F0E5F1F4F4B
:1038D0002F76B22E97FF09C09095809570956195CF
:1038E0007F4F8F4F9F4F2068B22E2AE030E0A40117
:1038F0000E94931DA82EA81844C0853729F42F7E56
:10390000B22E2AE030E025C0F22FF97FBF2E8F368D
:10391000C1F018F4883579F0B4C0803719F08837D1
:1039200021F0AFC02F2F2061B22EB4FE0DC08B2D21
:103930008460B82E09C024FF0AC09F2F9660B92E5C
:1039400006C028E030E005C020E130E002C020E100
:1039500032E0F801B7FE07C06081718182819381F6
:103960000C5F1F4F06C06081718180E090E00E5FA8
:103970001F4FA4010E94931DA82EA818FB2DFF77AE
:10398000BF2EB6FE0BC02B2D2E7FA51450F4B4FE17
:103990000AC0B2FC08C02B2D2E7E05C07A2C2B2D20
:1039A00003C07A2C01C0752C24FF0DC0FE01EA0D66
:1039B000F11D8081803311F4297E09C022FF06C0E9
:1039C0007394739404C0822F867809F0739423FD56
:1039D00013C020FF06C05A2C731418F4530C571848
:1039E000732C731468F4B70180E290E02C870E9476
:1039F000611D73942C85F5CF731410F4371801C032
:103A0000312C24FF12C0B70180E390E02C870E9484
:103A1000611D2C8522FF17C021FF03C088E590E0BF
:103A200002C088E790E0B7010CC0822F867859F079
:103A300021FD02C080E201C08BE227FD8DE2B701CB
:103A400090E00E94611DA51438F4B70180E390E076
:103A50000E94611D5A94F7CFAA94F401EA0DF11D5A
:103A60008081B70190E00E94611DA110F5CF332045
:103A700009F451CEB70180E290E00E94611D3A94B2
:103A8000F6CFF7018681978102C08FEF9FEF2C96CA
:103A9000E2E10C940D1EFC01059061507040011094
:103AA000D8F7809590958E0F9F1F0895FC01615067
:103AB000704001900110D8F7809590958E0F9F1F50
:103AC00008950F931F93CF93DF93182F092FEB01C6
:103AD0008B8181FD03C08FEF9FEF20C082FF10C05C
:103AE0004E815F812C813D81421753077CF4E88130
:103AF000F9819F012F5F3F4F39832883108306C0D0
:103B0000E885F985812F0995892B29F72E813F8139
:103B10002F5F3F4F3F832E83812F902FDF91CF91D7
:103B20001F910F910895FA01AA27283051F12031F1
:103B300081F1E8946F936E7F6E5F7F4F8F4F9F4F41
:103B4000AF4FB1E03ED0B4E03CD0670F781F891F83
:103B50009A1FA11D680F791F8A1F911DA11D6A0F51
:103B6000711D811D911DA11D20D009F468943F9104
:103B70002AE0269F11243019305D3193DEF6CF0103
:103B80000895462F4770405D4193B3E00FD0C9F7C9
:103B9000F6CF462F4F70405D4A3318F0495D31FD36
:103BA0004052419302D0A9F7EACFB4E0A695979589
:103BB000879577956795BA95C9F70097610571055F
:103BC00008959B01AC010A2E0694579547953795A9
:103BD0002795BA95C9F7620F731F841F951FA01D03
:103BE00008952F923F924F925F926F927F928F92A1
:103BF0009F92AF92BF92CF92DF92EF92FF920F937C
:103C00001F93CF93DF93CDB7DEB7CA1BDB0B0FB685
:103C1000F894DEBF0FBECDBF09942A883988488842
:103C20005F846E847D848C849B84AA84B984C884D8
:103C3000DF80EE80FD800C811B81AA81B981CE0FCF
:103C4000D11D0FB6F894DEBF0FBECDBFED010895B4
:043C5000F894FFCF16
:103C54001F00000002000000002A0C0000000018F1
:103C64000C041060C0802000002A022000466F72FD
:103C7400776172643A20256409004C6566743A20C1
:103C84002564090052696768743A202564090000B4
:00000001FF
